:020000040800F2
:1000000000000524F11E00088D1B00088F1B00084E
:10001000911B0008931B0008951B000800000000BE
:10002000000000000000000000000000F1CC00080B
:10003000971B00080000000091CD0008CDC5000806
:10004000411F0008411F0008411F0008411F000810
:10005000411F0008411F0008411F0008411F000800
:100060000D9B0008BD9A0008411F0008411F0008B1
:10007000411F0008411F0008411F0008411F0008E0
:10008000411F0008411F0008411F0008411F0008D0
:10009000411F0008411F0008411F0008411F0008C0
:1000A000411F0008991B0008411F0008411F00085C
:1000B000259B0008411F0008411F0008411F000840
:1000C000411F0008411F0008411F0008411F000890
:1000D000411F0008411F0008411F0008411F000880
:1000E000E59A0008411F000800000000411F0008B9
:1000F000411F0008411F0008411F0008411F000860
:10010000411F0008411F0008411F0008411F00084F
:10011000411F0008411F0008411F0008411F00083F
:10012000411F0008411F0008411F0008411F00082F
:10013000411F0008A91B0008411F0008411F0008BB
:1001400000000000000000000000000000000000AF
:10015000411F0008411F0008411F0008411F0008FF
:10016000411F0008411F0008411F0008411F0008EF
:10017000411F0008411F0008411F00080000000047
:10018000411F0008411F0008411F0008411F0008CF
:10019000411F0008411F0008411F0008411F0008BF
:1001A000411F0008411F0008411F00080000000017
:1001B000411F0008411F0008411F0008411F00089F
:1001C000411F0008411F000800000000000000005F
:1001D0000000000000000000411F000800000000B7
:1001E000000000000000000000000000000000000F
:1001F0000000000000000000411F0008411F00082F
:10020000411F0008411F000800000000411F0008B6
:10021000411F0008411F0008411F0008411F00083E
:10022000411F000800000000411F000800000000FE
:10023000411F0008411F000800000000411F000886
:10024000411F0008411F0008411F0008411F00080E
:10025000411F0008411F0008411F0008411F0008FE
:10026000411F0008411F0008411F0008411F0008EE
:10027000411F0008411F0008411F00080000000046
:10028000411F0008411F0008411F0008411F0008CE
:1002900000000000411F0008411F0008000000008E
:1002A00000000000411F0008411F0008411F000816
:1002B000411F0008411F0008411F0008411F00089E
:0C02C000411F0008411F0008411F0008FA
:1003000010B5054C237833B9044B13B10448AFF34F
:1003100000800123237010BD100F00240000000096
:10032000F0C2010808B5034B1BB103490348AFF302
:10033000008008BD00000000140F0024F0C2010876
:1003400053B94AB9002908BF00281CBF4FF0FF313C
:100350004FF0FF3000F074B9ADF1080C6DE904CE38
:1003600000F006F8DDF804E0DDE9022304B0704790
:100370002DE9F047089D04468E46002B4DD18A4258
:10038000944669D9B2FA82F252B101FA02F3C2F18B
:10039000200120FA01F10CFA02FC41EA030E94401C
:1003A0004FEA1C48210CBEFBF8F61FFA8CF708FB3D
:1003B00016E341EA034306FB07F199420AD91CEB15
:1003C000030306F1FF3080F01F81994240F21C8147
:1003D000023E63445B1AA4B2B3FBF8F008FB10338F
:1003E00044EA034400FB07F7A7420AD91CEB0404C4
:1003F00000F1FF3380F00A81A74240F20781644494
:10040000023840EA0640E41B00261DB1D440002318
:10041000C5E900433146BDE8F0878B4209D9002D7C
:1004200000F0EF800026C5E9000130463146BDE806
:10043000F087B3FA83F6002E4AD18B4202D3824270
:1004400000F2F980841A61EB030301209E46002D1F
:10045000E0D0C5E9004EDDE702B9FFDEB2FA82F274
:10046000002A40F09280A1EB0C014FEA1C471FFAD2
:100470008CFE0126200CB1FBF7F307FB131140EAB9
:1004800001410EFB03F0884208D91CEB010103F186
:10049000FF3802D2884200F2CB804346091AA4B248
:1004A000B1FBF7F007FB101144EA01440EFB00FE1C
:1004B000A64508D91CEB040400F1FF3102D2A64581
:1004C00000F2BB800846A4EB0E0440EA03409CE720
:1004D000C6F12007B34022FA07FC4CEA030C20FACD
:1004E00007F401FA06F31C43F9404FEA1C4900FAED
:1004F00006F3B1FBF9F8200C1FFA8CFE09FB18116A
:1005000040EA014108FB0EF0884202FA06F20BD9DC
:100510001CEB010108F1FF3A80F08880884240F22C
:100520008580A8F102086144091AA4B2B1FBF9F070
:1005300009FB101144EA014100FB0EFE8E4508D96B
:100540001CEB010100F1FF346CD28E456AD90238F0
:10055000614440EA0840A0FB0294A1EB0E01A142D5
:10056000C846A64656D353D05DB1B3EB080261EB43
:100570000E0101FA07F722FA06F3F1401F43C5E91D
:10058000007100263146BDE8F087C2F12003D84053
:100590000CFA02FC21FA03F3914001434FEA1C4795
:1005A0001FFA8CFEB3FBF7F007FB10360B0C43EA87
:1005B000064300FB0EF69E4204FA02F408D91CEB37
:1005C000030300F1FF382FD29E422DD90238634435
:1005D0009B1B89B2B3FBF7F607FB163341EA0341D5
:1005E00006FB0EF38B4208D91CEB010106F1FF3824
:1005F00016D28B4214D9023E6144C91A46EA00461B
:1006000038E72E46284605E70646E3E61846F8E6AC
:100610004B45A9D2B9EB020864EB0C0E0138A3E7F5
:100620004646EAE7204694E74046D1E7D0467BE7D6
:10063000023B614432E7304609E76444023842E74E
:10064000704700BF844641EA000313F003036DD1F5
:10065000403A41D351F8043B40F8043B51F8043B85
:1006600040F8043B51F8043B40F8043B51F8043B8C
:1006700040F8043B51F8043B40F8043B51F8043B7C
:1006800040F8043B51F8043B40F8043B51F8043B6C
:1006900040F8043B51F8043B40F8043B51F8043B5C
:1006A00040F8043B51F8043B40F8043B51F8043B4C
:1006B00040F8043B51F8043B40F8043B51F8043B3C
:1006C00040F8043B51F8043B40F8043B51F8043B2C
:1006D00040F8043B403ABDD2303211D351F8043BCC
:1006E00040F8043B51F8043B40F8043B51F8043B0C
:1006F00040F8043B51F8043B40F8043B103AEDD27B
:100700000C3205D351F8043B40F8043B043AF9D2CB
:10071000043208D0D2071CBF11F8013B00F8013B9E
:1007200001D30B8803806046704700BF082A13D3AB
:100730008B078DD010F003038AD0C3F10403D21AC3
:10074000DB071CBF11F8013B00F8013B80D331F8F7
:10075000023B20F8023B7BE7043AD9D3013A11F877
:10076000013B00F8013BF9D20B7803704B784370E2
:100770008B78837060467047000000000000000026
:1007800090F800F06DE9024520F007016FF0000CD1
:1007900010F0070491F820F040F049804FF0000479
:1007A0006FF00700D1E9002391F840F000F1080054
:1007B00082FA4CF2A4FA8CF283FA4CF3A2FA8CF38C
:1007C0004BBBD1E9022382FA4CF200F10800A4FAF3
:1007D0008CF283FA4CF3A2FA8CF3E3B9D1E9042347
:1007E00082FA4CF200F10800A4FA8CF283FA4CF37E
:1007F000A2FA8CF37BB9D1E9062301F1200182FA38
:100800004CF200F10800A4FA8CF283FA4CF3A2FA3D
:100810008CF3002BC6D0002A04BF04301A4612BA4B
:10082000B2FA82F2FDE8024500EBD2007047D1E94E
:10083000002304F00305C4F100004FEAC50514F0DD
:10084000040F91F840F00CFA05F562EA05021CBFAE
:1008500063EA050362464FF00004A9E700000000C8
:1008600001F0FF01102A2BDB10F0070F08D010F861
:10087000013B013A8B422DD010F0070F42B3F6D165
:10088000F0B441EA012141EA014122F007047FF07E
:1008900000070023F0E80256083C85EA010586EAD5
:1008A000010685FA47F5A3FA87F586FA47F6A5FA11
:1008B00087F68EB9EED1F0BC01F0FF0102F007021D
:1008C00032B110F8013B013A83EA010313B1F8D1C8
:1008D0000020704701387047002D06BF35460338A9
:1008E000073815F0010F07D1013015F4807F02BFE2
:1008F000013015F4C03F0130F0BC0138704700BF33
:1009000081F0004102E000BF83F0004330B54FEAC0
:1009100041044FEA430594EA050F08BF90EA020F2D
:100920001FBF54EA000C55EA020C7FEA645C7FEAC0
:10093000655C00F0E2804FEA5454D4EB5555B8BFE3
:100940006D420CDD2C4480EA020281EA030382EA54
:10095000000083EA010180EA020281EA0303362DE6
:1009600088BF30BD11F0004F4FEA01314FF4801CB9
:100970004CEA113102D0404261EB410113F0004FCB
:100980004FEA03334CEA133302D0524263EB430382
:1009900094EA050F00F0A780A4F10104D5F1200E20
:1009A0000DDB02FA0EFC22FA05F2801841F100017B
:1009B00003FA0EF2801843FA05F359410EE0A5F14F
:1009C00020050EF1200E012A03FA0EFC28BF4CF080
:1009D000020C43FA05F3C01851EBE37101F0004536
:1009E00007D54FF0000EDCF1000C7EEB00006EEB43
:1009F0000101B1F5801F1BD3B1F5001F0CD34908CD
:100A00005FEA30004FEA3C0C04F101044FEA445223
:100A100012F5800F80F09A80BCF1004F08BF5FEAAA
:100A2000500C50F1000041EB045141EA050130BD8A
:100A30005FEA4C0C404141EB0101013C28BFB1F59C
:100A4000801FE9D291F0000F04BF01460020B1FAE7
:100A500081F308BF2033A3F10B03B3F120020CDABA
:100A60000C3208DD02F1140CC2F10C0201FA0CF098
:100A700021FA02F10CE002F11402D8BFC2F1200CFD
:100A800001FA02F120FA0CFCDCBF41EA0C019040B3
:100A9000E41AA2BF01EB0451294330BD6FEA0404FC
:100AA0001F3C1CDA0C340EDC04F11404C4F12002E7
:100AB00020FA04F001FA02F340EA030021FA04F3F9
:100AC00045EA030130BDC4F10C04C4F1200220FA50
:100AD00002F001FA04F340EA0300294630BD21FA8E
:100AE00004F0294630BD94F0000F83F4801306BF54
:100AF00081F480110134013D4EE77FEA645C18BF48
:100B00007FEA655C29D094EA050F08BF90EA020FDE
:100B100005D054EA000C04BF1946104630BD91EAD6
:100B2000030F1EBF0021002030BD5FEA545C05D1D9
:100B30004000494128BF41F0004130BD14F5800418
:100B40003CBF01F5801130BD01F0004545F0FE418C
:100B500041F470014FF0000030BD7FEA645C1ABFC1
:100B6000194610467FEA655C1CBF0B46024650EAF8
:100B7000013406BF52EA033591EA030F41F4002124
:100B800030BD00BF90F0000F04BF0021704730B5AA
:100B90004FF4806404F132044FF000054FF000017F
:100BA00050E700BF90F0000F04BF0021704730B540
:100BB0004FF4806404F1320410F0004548BF404215
:100BC0004FF000013EE700BF42004FEAE2014FEA6A
:100BD00031014FEA02701FBF12F07F4393F07F4F45
:100BE00081F06051704732F07F4208BF704793F048
:100BF0007F4F04BF41F40021704730B54FF460745B
:100C000001F0004521F000411CE700BF50EA01025D
:100C100008BF704730B54FF000050AE050EA010206
:100C200008BF704730B511F0004502D5404261EB76
:100C300041014FF4806404F132045FEA915C3FF4B7
:100C4000D8AE4FF003025FEADC0C18BF03325FEA54
:100C5000DC0C18BF033202EBDC02C2F1200300FA05
:100C600003FC20FA02F001FA03FE40EA0E0021FA2A
:100C700002F11444BDE600BF70B54FF0FF0C4CF418
:100C8000E06C1CEA11541DBF1CEA135594EA0C0FCA
:100C900095EA0C0F00F0DEF82C4481EA030621EA05
:100CA0004C5123EA4C5350EA013518BF52EA033540
:100CB00041F4801143F4801338D0A0FB02CE4FF0F2
:100CC0000005E1FB02E506F00042E0FB03E54FF022
:100CD0000006E1FB03569CF0000F18BF4EF0010E1A
:100CE000A4F1FF04B6F5007F64F5407404D25FEA16
:100CF0004E0E6D4146EB060642EAC62141EA5551C9
:100D00004FEAC52040EA5E504FEACE2EB4F1FD0C0A
:100D100088BFBCF5E06F1ED8BEF1004F08BF5FEA88
:100D2000500E50F1000041EB045170BD06F000463A
:100D300046EA010140EA020081EA0301B4EB5C04E7
:100D4000C2BFD4EB0C0541EA045170BD41F48011DF
:100D50004FF0000E013C00F3AB8014F1360FDEBF04
:100D6000002001F0004170BDC4F10004203C35DAE0
:100D70000C341BDC04F11404C4F1200500FA05F363
:100D800020FA04F001FA05F240EA020001F0004204
:100D900021F0004110EBD37021FA04F642EB06017A
:100DA0005EEA430E08BF20EAD37070BDC4F10C04A4
:100DB000C4F1200500FA04F320FA05F001FA04F268
:100DC00040EA020001F0004110EBD37041F1000154
:100DD0005EEA430E08BF20EAD37070BDC4F120055F
:100DE00000FA05F24EEA020E20FA04F301FA05F2C7
:100DF00043EA020321FA04F001F0004121FA04F26F
:100E000020EA020000EBD3705EEA430E08BF20EA3E
:100E1000D37070BD94F0000F0FD101F00046400078
:100E200041EB010111F4801F08BF013CF7D041EAFA
:100E3000060195F0000F18BF704703F000465200FE
:100E400043EB030313F4801F08BF013DF7D043EACF
:100E50000603704794EA0C0F0CEA135518BF95EA85
:100E60000C0F0CD050EA410618BF52EA4306D1D10C
:100E700081EA030101F000414FF0000070BD50EA2B
:100E8000410606BF1046194652EA430619D094EAB5
:100E90000C0F02D150EA013613D195EA0C0F05D19F
:100EA00052EA03361CBF104619460AD181EA0301F3
:100EB00001F0004141F0FE4141F470014FF00000AB
:100EC00070BD41F0FE4141F4780170BD70B54FF046
:100ED000FF0C4CF4E06C1CEA11541DBF1CEA1355C6
:100EE00094EA0C0F95EA0C0F00F0A7F8A4EB0504A8
:100EF00081EA030E52EA03354FEA013100F088809F
:100F00004FEA03334FF0805545EA131343EA126367
:100F10004FEA022245EA111545EA10654FEA00261C
:100F20000EF000419D4208BF964244F1FD0404F5D5
:100F3000407402D25B084FEA3202B61A65EB030531
:100F40005B084FEA32024FF480104FF4002CB6EBEE
:100F5000020E75EB030E22BFB61A754640EA0C006E
:100F60005B084FEA3202B6EB020E75EB030E22BFAE
:100F7000B61A754640EA5C005B084FEA3202B6EBEF
:100F8000020E75EB030E22BFB61A754640EA9C00AE
:100F90005B084FEA3202B6EB020E75EB030E22BF7E
:100FA000B61A754640EADC0055EA060E18D04FEA3C
:100FB000051545EA16754FEA06164FEAC30343EADC
:100FC00052734FEAC2025FEA1C1CC0D111F4801FA9
:100FD0000BD141EA00014FF000004FF0004CB6E7A2
:100FE00011F4801F04BF01430020B4F1FD0C88BF41
:100FF000BCF5E06F3FF6AFAEB5EB030C04BFB6EB4C
:10100000020C5FEA500C50F1000041EB045170BD3E
:101010000EF0004E4EEA113114EB5C04C2BFD4EB6B
:101020000C0541EA045170BD41F480114FF0000EEF
:10103000013C90E645EA060E8DE60CEA135594EA6B
:101040000C0F08BF95EA0C0F3FF43BAF94EA0C0F6E
:101050000AD150EA01347FF434AF95EA0C0F7FF4E3
:1010600025AF104619462CE795EA0C0F06D152EA37
:1010700003353FF4FDAE1046194622E750EA41061B
:1010800018BF52EA43067FF4C5AE50EA41047FF42C
:101090000DAF52EA43057FF4EBAE12E74FF0FF3C91
:1010A00006E000BF4FF0010C02E000BF4FF0010C62
:1010B0004DF804CD4FEA410C7FEA6C5C4FEA430CDB
:1010C00018BF7FEA6C5C1BD001B050EA410C0CBF2A
:1010D00052EA430C91EA030F02BF90EA020F00208C
:1010E000704710F1000F91EA030F58BF994208BFF3
:1010F00090422CBFD8176FEAE37040F001007047B0
:101100004FEA410C7FEA6C5C02D150EA013C07D106
:101110004FEA430C7FEA6C5CD6D152EA033CD3D051
:101120005DF8040B704700BF8446104662468C464B
:101130001946634600E000BF01B5FFF7B7FF00287E
:1011400048BF10F1000F01BD4DF808EDFFF7F4FFA7
:101150000CBF012000205DF808FB00BF4DF808ED32
:10116000FFF7EAFF34BF012000205DF808FB00BF55
:101170004DF808EDFFF7E0FF94BF012000205DF877
:1011800008FB00BF4DF808EDFFF7CEFF94BF01202C
:1011900000205DF808FB00BF4DF808EDFFF7C4FF25
:1011A00034BF012000205DF808FB00BF4FEA410C6E
:1011B0007FEA6C5C02D150EA013C0AD14FEA430C51
:1011C0007FEA6C5C02D152EA033C02D14FF000008E
:1011D00070474FF0010070474FEA410212F50012CC
:1011E00015D211D56FF47873B3EB625212D94FEA6E
:1011F000C12343F0004343EA505311F0004F23FA58
:1012000002F018BF404270474FF00000704750EAAC
:10121000013005D111F0004008BF6FF00040704769
:101220004FF00000704700BF08B50AF0D3FD00F092
:10123000B7FD01200BF06CFAFBE708B506F000FCE7
:1012400006F018FD01200BF063FAF9E708B5074A2C
:10125000002107480BF0FEF9064B1860064A0021F2
:1012600006480BF0F7F9064B186008BD48C30108A3
:1012700029120008300F002424C301083B12000883
:101280002C0F00242DE9F0478EB0002409940A9415
:101290000B940C940D946D4BD3F8E02042F01002A7
:1012A000C3F8E020D3F8E02002F010020192019A86
:1012B000D3F8E02042F00402C3F8E020D3F8E020A5
:1012C00002F004020292029AD3F8E02042F02002D7
:1012D000C3F8E020D3F8E02002F020020392039A42
:1012E000D3F8E02042F08002C3F8E020D3F8E020F9
:1012F00002F080020492049AD3F8E02042F0010246
:10130000C3F8E020D3F8E02002F001020592059A2C
:10131000D3F8E02042F00202C3F8E020D3F8E02046
:1013200002F002020692069AD3F8E02042F0080288
:10133000C3F8E020D3F8E02002F008020792079AF1
:10134000D3F8E02042F04002C3F8E020D3F8E030C8
:1013500003F040030893089B3D4E22464FF4016181
:10136000304602F093F9DFF8F8A022464FF48041AE
:10137000504602F08BF9374F22464FF4C061384691
:1013800002F084F94FF00809CDF824904FF40418C6
:10139000CDF8288001250B9509A9304602F06CF89C
:1013A000102309930A950B940C9409A9304602F076
:1013B00063F84FF400530993CDF828800B9509A9E1
:1013C000254802F059F84FF4006309930A950B95EC
:1013D00002230C9309A9304602F04EF84FF48043E3
:1013E00009930A950B940C9409A9504602F044F80D
:1013F00004230993CDF828800B9509A9174802F01A
:101400003BF84FF4C06309930A950B940C9409A917
:10141000384602F031F84FF4405309930A940B9484
:1014200009A9384602F028F822460721484600F06C
:10143000DFFE22460621092000F0DAFE22460721BF
:10144000282000F0D5FE0EB0BDE8F0870044025819
:10145000001002580018025800080258000C0258E8
:101460000004025800B587B0114BD3F8E02042F0D9
:101470001002C3F8E020D3F8E03003F0100300932B
:10148000009B082301934FF4041302930123039359
:1014900001A9084801F0F0FF00220621092000F010
:1014A000A7FE092000F0E8FE07B05DF804FB00BFCE
:1014B000004402580010025800B587B0114BD3F811
:1014C000E02042F00402C3F8E020D3F8E03003F05B
:1014D00004030093009B4FF4005301934FF4041353
:1014E00002930123039301A9074801F0C5FF0022DD
:1014F0000721282000F07CFE282000F0BDFE07B068
:101500005DF804FB004402580008025800B587B09B
:10151000114BD3F8E02042F00802C3F8E020D3F8E2
:10152000E03003F008030093009B042301934FF481
:10153000041302930123039301A9084801F09CFFBF
:1015400000220721082000F053FE082000F094FE3E
:1015500007B05DF804FB00BF00440258000C0258BD
:1015600030B585B00024009401940294039400F0F7
:1015700095FE01258DF800508DF801404FF0405345
:1015800001930E238DF808308DF809408DF80A502C
:1015900003238DF80B308DF80C508DF80D408DF82D
:1015A0000E408DF80F40684600F096FE8DF8015011
:1015B00007238DF808308DF80A408DF80D508DF80E
:1015C0000F50684600F088FE042000F075FE05B05C
:1015D00030BD000008B50268034B9A4200D008BD38
:1015E00000F0C4FDFBE700BF0000014072B6FEE75B
:1015F00000B59DB04C22002109A814F0F5FF20226F
:10160000002101A814F0F0FF022002F0F1FD0023F8
:101610000093214B9A6922F440429A619B6903F43A
:1016200040430093009B1C4B9B6913F4005FFAD06E
:10163000012209924FF480330A93022312931393E9
:101640000521149160211591169204221792189386
:101650000823199300231A931B9309A802F0F2FDA3
:10166000A8B93F2301930321029100230393082388
:1016700004934023059306934FF4806207920893E6
:1016800001A803F0CFF920B91DB05DF804FBFFF706
:10169000ADFFFFF7ABFF00BF0048025808B5FFF7EA
:1016A0005FFF2F4B5B6913F4003F13D1BFF34F8FE4
:1016B000BFF36F8F2A4B0022C3F85022BFF34F8F26
:1016C000BFF36F8F5A6942F400325A61BFF34F8FF4
:1016D000BFF36F8F224B5B6913F4803F27D1204B00
:1016E0000022C3F88420BFF34F8FD3F88040C4F3A7
:1016F0004E3000E01846C4F3C90243F6E07303EA33
:10170000401343EA82731649C1F860321346013A26
:10171000002BF2D1431E0028ECD1BFF34F8F4B6951
:1017200043F480334B61BFF34F8FBFF36F8F00F0F3
:10173000EFFCFFF75DFFFFF7A5FD00F059FB00F0A0
:10174000C7FA00F011F8074800F04CF908F03AF930
:101750000AF048FFFFF77AFD0AF056FFFEE700BFE8
:1017600000ED00E03010002400B587B000230093A6
:10177000019302930393049305931948194A026055
:101780000A2242608360C360132202610522426123
:101790008361C3610362012242624FF08042826230
:1017A0004FF08052C2620363082242638363C363C3
:1017B00002F022FA70B9012300934FF00113039352
:1017C00041F288326946064802F09AFA28B907B011
:1017D0005DF804FBFFF70AFFEDE7FFF707FFF6E709
:1017E000340F002400500052F0B5B9B00446002177
:1017F00033913491359136913791B82204A814F081
:10180000F3FE22682F4B9A4201D039B0F0BD4FF061
:1018100000720023CDE9042305230693402207929A
:101820000893099304230A9380230B93202317938F
:1018300004A803F0BDFB002841D1234BD3F8D420EA
:1018400042F40012C3F8D420D3F8D42002F40012DA
:101850000192019AD3F8D42042F48042C3F8D420F4
:10186000D3F8D42002F480420292029AD3F8E02006
:1018700042F02002C3F8E020D3F8E03003F0200368
:101880000393039B4FF4707333930227349700261E
:101890003596032536950A2337930C4C33A92046F9
:1018A00001F0EAFD4FF48063339334973596369513
:1018B0000923379333A9204601F0DEFDA5E7FFF7A2
:1018C00095FEBAE700500052004402580014025836
:1018D00010B596B004465022002102A814F084FEF0
:1018E0006B230493012305934FF4807309934FF402
:1018F00080530A9308944FF040731093042311937C
:101900000823139341F288320DEB0301124802F0D1
:101910005FF860B941F2883201A90F4802F006F978
:1019200050B10E4814F020FFFFF760FE04E00C48B1
:1019300014F01AFFFFF75AFE9DF807009DF80630D5
:101940001B0443EA00639DF8050043EA00239DF869
:101950000400184316B010BD340F00246CC30108F6
:1019600084C3010830B597B005460C4650220021CB
:1019700002A814F039FE8DF80440230A8DF80530D2
:10198000230C8DF80630240E8DF807406223049353
:10199000012305934FF4807309934FF480530A9306
:1019A00008954FF0407310930423119341F288324D
:1019B00002A90A4802F00CF848B941F2883201A99C
:1019C000064802F066F838B1FFF710FE04E004485C
:1019D00014F0CAFEFFF70AFE17B030BD340F002422
:1019E000A0C3010808B5054B1860054B1868002313
:1019F00002221946806814F0EFFE08BD900F002403
:101A000064050024022804D9034B09221A6000202F
:101A100070470120704700BF6C92002401380128F4
:101A20000BD810B514464FF0FF3392B20748006848
:101A300005F024F938B9204610BD054B09221A607B
:101A40004FF0FF3070470520F6E700BF900F0024ED
:101A50006C920024022801D800207047024B092212
:101A60001A604FF0FF3070476C920024024B09223D
:101A70001A604FF0FF3070476C92002408B548B9E7
:101A80004FF0FF3301220748006805F05FF938B9CD
:101A9000012008BD044B09221A604FF0FF30F8E71F
:101AA0000520F6E7900F00246C920024022804D948
:101AB000044B09221A60002070474FF400534B601A
:101AC000F9E700BF6C92002400B583B00A4BD3F84D
:101AD000F42042F00202C3F8F420D3F8F43003F00B
:101AE00002030193019B00220F216FF0010000F01F
:101AF0007FFB03B05DF804FB004402580F2801D9B6
:101B00000120704710B58AB0044600220146192012
:101B100000F06EFB192000F0A1FB174B1C60174B67
:101B2000D3F8F02042F00102C3F8F020D3F8F030EF
:101B300003F001030093009B01A902A803F002F93E
:101B400003F0EEF843000E48A0FB03239B0C013B7F
:101B50000C480D4A026040F2E732C2604360002345
:101B60000361836004F018FB10B101200AB010BDBE
:101B7000044804F05FF9F9E70C000024004402581F
:101B800083DE1B43940F002400000140FEE7FEE7C4
:101B9000FEE7FEE7FEE7704708B5024804F09EF94D
:101BA00008BD00BF940F002408B5024801F051F9A8
:101BB00008BD00BFF015002401207047024B16221B
:101BC0001A604FF0FF3070476C92002408B54FF058
:101BD000FF31FFF7F3FFFEE710B403460C4A0D494F
:101BE0000D48006850B10C4800680344521A9342F3
:101BF00008D8094A13605DF8044B70470648074C43
:101C00000460F0E7064B0C221A604FF0FF30F2E759
:101C10000000052400200000E00F0024B8920024FA
:101C20006C920024224AD2F8883043F47003C2F840
:101C30008830204B1B6803F00F03062B06D81D4A83
:101C4000136823F00F0343F0070313601A4B1A685D
:101C500042F001021A6000221A611968174A0A400C
:101C60001A60144B1B6813F0080F06D0114A136852
:101C700023F00F0343F0070313600F4B00229A6118
:101C8000DA611A620E4999620E49D9620E491963E6
:101C90005A639963DA6319645A64196821F48021DC
:101CA00019601A66094B43F2D2021A60704700BFEE
:101CB00000ED00E000200052004402587FEDF6EAFB
:101CC000000202020000FF018002010100400052F8
:101CD00000B589B0002304930593069307930193FD
:101CE0000293039315484FF080420260EF22426056
:101CF000836040F2E732C26003618023836104F0B5
:101D00004BFA90B94FF48053049304A90B4804F0A4
:101D100081FA68B900230193039301A9074804F0ED
:101D200015FB40B909B05DF804FBFFF75FFCE9E77C
:101D3000FFF75CFCEEE7FFF759FCF3E7E40F002444
:101D40000368B3F1804F00D0704700B583B00C4BEF
:101D5000D3F8E82042F00102C3F8E820D3F8E830D5
:101D600003F001030193019B002207211C2000F0D6
:101D70003FFA1C2000F072FA03B05DF804FB00BFCC
:101D80000044025810B5084614461A46BDF80830FB
:101D9000214613F0CBFE20460FF080FC10BD000062
:101DA00038B513F047FFD0B1044641F690720D49A3
:101DB00013F054FD054630B1618A0B4814F072FCF3
:101DC0003DB9002038BD00220849204613F0F4FE3A
:101DD000F2E7204613F004FF4FF0FF30F2E74FF038
:101DE000FF30EFE708D40108CCC30108851D0008C7
:101DF00008B51748174B03604FF4E13343600023E5
:101E00008360C36003610C224261836103624362A9
:101E10008362436605F08AF870B900210C4805F02A
:101E2000FEF860B900210A4805F01EF950B90848CB
:101E300005F0D6F848B908BDFFF7D8FBEDE7FFF786
:101E4000D5FBEFE7FFF7D2FBF1E7FFF7CFFBF2E7B8
:101E500030100024000C005810B5B6B00446002124
:101E600031913291339134913591B82202A814F016
:101E7000BBFB22681B4B9A4201D036B010BD042236
:101E80000023CDE9022302A803F092F838BB164BD9
:101E9000D3F8F42042F00802C3F8F420D3F8F42079
:101EA00002F008020092009AD3F8E02042F001020A
:101EB000C3F8E020D3F8E03003F001030193019B65
:101EC0004FF4C063319302233293002333930323EF
:101ED0003493359331A9054801F0CEFACDE7FFF7E9
:101EE00085FBD4E7000C005800440258000002585B
:101EF000DFF834D0FFF796FE0C480D490D4A002359
:101F000002E0D458C4500433C4188C42F9D30A4AAE
:101F10000A4C002301E013600432A242FBD313F009
:101F2000D1FFFFF7BBFB7047000005240000002431
:101F3000100F002408F70108100F0024B8920024A5
:101F4000FEE788B1CA6892B18A689AB10A69A2B1FB
:101F50000A6882604A68C260CA6842618A6802612F
:101F60000A698261002070474FF0FF3070474FF0E0
:101F7000FF3070474FF0FF3070474FF0FF30704731
:101F800070B582B00546002301934468002C49D106
:101F9000836803B1984720232B60002602E06FF08E
:101FA000040601341F2C0DD86B6901AA12212046AA
:101FB00098470028F3DB019B03F01F03A342F0D1F5
:101FC0002C60002628681F2825D836BB2B694FF4C3
:101FD000004200219847002833DB6B6901AA0021E9
:101FE0002868984700282FDBAB6998470446019B77
:101FF00013F4004F11D0AB699847001BB0F5FA7F7E
:102000000DD86B6901AA0021286898470028EEDAEC
:102010006FF0040601E06FF002067EB903E06FF096
:102020000106FAE70026AB6998470446AB69984772
:10203000031BB3F5FA6FF9D901236B60304602B088
:1020400070BD6FF00306F9E76FF00406F6E710B510
:1020500082B0044600230193436901AA012100686C
:102060009847002839DB636901AA01212068984755
:10207000002835DB019B13F0040F34D0636901AAFB
:10208000002120689847002830DB019B13F4805F13
:102090000CD103F40452B2F5045F2AD013F4005FAC
:1020A00029D113F4807F28D004201DE0636901AAA0
:1020B0001F2120689847002821DB019B13F4805FD3
:1020C00020D003F01C03182B1ED0082B1ED0142B7D
:1020D00001D0052008E0042006E06FF0040003E0D2
:1020E0006FF0040000E0012002B010BD6FF00400AA
:1020F000FAE70220F8E70320F6E70520F4E76FF09F
:102100000400F1E70620EFE70220EDE70320EBE70C
:1021100010B5032000F05AF802F08AFB0F498B69D2
:10212000C3F303230E4AD35C03F01F03D8408B692B
:1021300003F00F03D35C03F01F0320FA03F3094AF3
:102140001360094B18600F20FFF7D8FC10B1012471
:10215000204610BD0446FFF7B7FCF9E700440258DB
:10216000BCC301080400002400000024034B1B78BA
:10217000034A11680B441360704700BF0800002435
:10218000C4100024014B1868704700BFC41000241D
:1021900038B50446FFF7F6FF0546B4F1FF3F02D01D
:1021A000044B1B781C44FFF7EDFF401BA042FAD301
:1021B00038BD00BF08000024034A536823F46003BD
:1021C00003435360704700BF000400580649CB68C2
:1021D00023F4E0631B041B0C000200F4E0600343E3
:1021E000024A1A43CA60704700ED00E00000FA0599
:1021F00000B5174BDB68C3F30223C3F1070CBCF136
:10220000040F28BF4FF0040C03F1040EBEF1060FBB
:1022100014D9033B4FF0FF3E0EFA0CFC21EA0C01EF
:1022200099400EFA03F322EA03031943002807DB5F
:102230000901C9B2074B19545DF804FB0023E9E713
:1022400000F00F000901C9B2034B1954F4E700BFB5
:1022500000ED00E000E400E014ED00E0002807DB02
:1022600000F01F02400901239340024A42F8203047
:10227000704700BF00E100E000280CDB00F01F0207
:102280004009012393402030034A42F82030BFF335
:102290004F8FBFF36F8F704700E100E0BFF35F8F98
:1022A000044B5A6A22F480325A620022C3F8942006
:1022B000704700BF00ED00E040F00100054BC3F89F
:1022C00094005A6A42F480325A62BFF34F8FBFF3D0
:1022D0006F8F704700ED00E04278164BC3F89820EE
:1022E0000378FBB14368134AC2F89C30017BC37A80
:1022F0001B0643EA0173817A43EAC143417B43EA07
:102300008143817B43EA4143C17B43EA0143417AF4
:1023100043EA0123017A43EA410301780B43C2F8FF
:10232000A0307047034B0022C3F89C20C3F8A020C4
:10233000704700BF00ED00E02DE9F04182B0074694
:1023400000230193D0F8688008F1120350F823406D
:10235000C56E012611E001A80AF0DEF8019B33B337
:102360002361236012E04FF00143E36018E003F1C2
:10237000120257F82240013D9846002D0CBF002361
:1023800006F00103ABB12369002BE4D0002EF4D09A
:10239000BFF35F8FBB6D002BE5D04FF04143E3608F
:1023A00008F10103032BE2D9A8F10303DFE70026BC
:1023B000E3E7FB6EAB4208D03B6803F58053002295
:1023C000C3F82821C7F86880FD6602B0BDE8F08137
:1023D00030B48B680A6813430A7943EAC2630A7B04
:1023E00043EAC2534A7B43EA82538A7B43EA42531D
:1023F000CA7B43EA02530A7C002A40F0B0804FF4C3
:10240000002213434A7C002A40F0AB804FF4003294
:1024100013438A7C43EA02434A6913438A6913439C
:102420000A7F43EA02334A7F43EAC2238A7F002AB3
:1024300040F099804FF480621343CA7F43EA4223FD
:1024400091F82020002A40F090804FF480721343CE
:102450004A6A134391F8282043EA0213CA6A1343D5
:102460000468226822F07F4222F47B0222F4FE42BA
:1024700022F07C0213432360CA6B91F838301B06AC
:1024800043EA426391F8302043EA824391F83120D5
:1024900043EA424391F83220002A68D14FF4803257
:1024A00013434A6B13430468626822F07C5222F49F
:1024B000EF2222F4FF6222F007021343636091F8D7
:1024C00040204B6C43EA02220468E5682B4B2B400A
:1024D0001343E36091F854200B6D43EA420391F8F3
:1024E0004C20002A45D1802213438A6C43EA0243E0
:1024F0000468226F22F0F2021204120C13432367C5
:1025000091F8563091F8552043EA42020468D4F815
:10251000903023F003031343C4F890300268D2F8DC
:10252000003D23F072038C6D2343C2F8003DCB6D58
:1025300091F86020FAB94022134391F8612043EAF0
:10254000021391F8622043EAC2030168D1F8302DEA
:1025500022F07B021343C1F8303D30BC70470022AB
:102560004FE7002254E7002266E700226FE70022CF
:1025700096E70022B8E70022DEE700BFF0FEFFFF8B
:1025800010B4026802F580521468244B23400C6892
:10259000234313600A798B6843EA02330A7B43EAD8
:1025A000C232036803F5805CDCF804401C4B234016
:1025B0001343CCF8043091F80DC00B6A43EA0C4C7D
:1025C000026802F58052D2F80041164B234043EADC
:1025D0000C03C2F800310B690A7D43EA02134A7FFB
:1025E00043EA0232036803F5805CDCF804410E4BD9
:1025F00023401343CCF804310A7F896941EAC27150
:10260000026802F58052D2F80801084B03400B43E0
:10261000C2F808315DF8044B704700BFFD87FFFF2B
:10262000FE2FFFFF00C0FEFFEFEFC0FFFFFFC07FE8
:1026300070B5A2B0064601258DF8335000241294DF
:102640008DF841408DF843408DF828508DF8565054
:102650008DF832508DF84C408DF884504FF4005373
:102660000F938DF85C4018948DF885408DF8864066
:102670004FF4C36316938DF830400B948DF83550AA
:102680008DF836408DF840401D941B9414948DF8BD
:1026900064408DF87A408DF84250202320938DF8C5
:1026A00044508DF855404FF0405309934FF4804308
:1026B0000E938DF8314002231F938DF878408DF8EA
:1026C00079408DF854408DF834501A948DF870503C
:1026D00009A9FFF77DFE8DF80450029500948DF84E
:1026E0001C408DF80D408DF80C404FF400130693FC
:1026F0008DF8144004938DF81D404FF40673089331
:1027000069463046FFF73CFF22B070BD10B400228E
:1027100010E0C46802EB42034FEAC30C04EBC303AE
:10272000002144F80C1059609960D960911D40F85F
:1027300021300132032AECD900238362036803F5B8
:1027400080530322C3F82C21C268036803F5805329
:10275000C3F81421C268036803F58053C3F820212D
:102760005DF8044B704710B4002113E0046901EBDD
:1027700041034FEAC30C04EBC303002244F80C20CE
:102780005A609A60DA601A615A6101F1120240F8E7
:10279000223001310329E9D90023C365036683662A
:1027A000C3668365036803F580530322C3F83021B1
:1027B0000269036803F58053C3F81C21036903F120
:1027C0004802036803F58053C3F828215DF8044BE1
:1027D000704700002DE9F0419046846A00EB8403C5
:1027E0009B69D1F808C0DA68002AC0F29881221DDE
:1027F00000EB8202D269002A40F093810A6812F04D
:10280000040F2CD0DD68814A2A404D6A2A43DA60E1
:10281000DA6842F48032DA6005682A6E42F4801287
:102820002A660A6812F0080F19D09A6892B2CD6A27
:1028300042EA05429A60DA6842F40032DA60DA6805
:1028400022F440220D6B2A43DA6005686A6E42F476
:1028500080126A6605682A6D42F080622A650A68FD
:1028600012F0100F09D09D68694A2A408D692A43E9
:102870009A60DA6842F08062DA600A6812F0140244
:1028800020D0DA6842F08042DA60BFF35F8FDA6806
:1028900042F00042DA60661C032E00D9E61E00EB0F
:1028A00086039B69DA68002A01DB01220BE000EB5A
:1028B00084008269BFF35F8FD36823F00043D36045
:1028C00002202FE1264602F1010EDCF800201A60FA
:1028D0009A684F4D1540DCF804202A439A60DCF8D2
:1028E0000820002A48D015685D609D68DFF824C183
:1028F00005EA0C0C55684CEA05459D600D6815F01D
:10290000100F41D0DD6825F4F00C0D6A4CEAC54586
:10291000DD60DD68DFF804C105EA0C0CCD694CEA26
:102920000505DD60DD6845F48025DD600D6815F086
:10293000040F06D09D6825F4404C8D6A4CEA0505CD
:102940009D60DD6845F00055DD60DD6825F080455F
:10295000DD60BFF35F8FDD6845F00045DD600D6829
:1029600015F0020F06D0DD6825F0607CCD684CEADA
:102970000505DD6000256FE000225A609D68254A4C
:102980002A409A606246B9E7DD68DFF88CC005EA44
:102990000C0C4D684CEA0505DD600D6815F0010F63
:1029A00006D0DD6825F4403C4D694CEA0505DD6044
:1029B0000D6815F0200FB9D0DD6825F0406C0D6969
:1029C0004CEA0505DD60B1E700EB8403996900225C
:1029D00004E000EB8301896901321C4672450AD28A
:1029E000BFF35F8FCB6823F00043CB60631C032BE6
:1029F000EFD9E31EEDE7022094E000225A609E68C2
:102A0000044A32409A603A465CE000BF0000FFFF93
:102A100000C0FFFFFFFF00C00080FFFF0000FCFFC1
:102A2000DF68414E3E404F683E43DE600E6816F060
:102A3000010F05D0DE6826F440364F693E43DE6064
:102A40000135BFF35F8FDE6846F00046DE60DE686A
:102A500026F08046DE6066469768002F41D0DF682A
:102A600027F08057DF6006F1010CBCF1030F01D99C
:102A7000A6F1030C00EB8C039B69DE6826F0005680
:102A8000DE60DE68002E9FDB0CF1040600EB86069C
:102A9000F669002E98D10EF1010E97683A681A6017
:102AA0009A68224E16407A6832439A60BA68002AC1
:102AB000A3D016685E609F681D4E3E40576846EA88
:102AC00007469E600E6816F0100FA9D0DF68194EF9
:102AD0003E40CF693E43DE60DE6846F48026DE601D
:102AE000AEE7B8F1000F15D09A6842F000429A6044
:102AF000DA6842F08052DA60C26B331D00EB830368
:102B0000DA61866272B6036C1D440135056462B6F3
:102B1000002007E09A6822F000429A60E8E702206D
:102B200000E00220BDE8F0810080FFFF00C0FFFF51
:102B3000FFFF00C00000FCFF38B5D0F88430102B38
:102B400001D0012038BD04462325C0F8845001235C
:102B500083650268D2F80C17244B0B43C2F80C377C
:102B60000268D2F81017224B0B43C2F81037042327
:102B7000C366FFF7E1FB2268136843F002031360AA
:102B80002268136843F0010313602268D2F8003D05
:102B900043F00103C2F8003D236803F58053D3F8E6
:102BA000042142F00102C3F80421236803F5805395
:102BB000D3F8082142F00102C3F80821236803F585
:102BC0008053D3F8602142F48172C3F860212368F6
:102BD00003F58053D3F834114DF2C1020A43C3F810
:102BE0003421C4F884500020ACE700BF6000020C20
:102BF00000C0200CD0F88430232B01D00120704776
:102C0000C0F88430036803F58053D3F834111D4AAB
:102C10000A40C3F83421036803F58053D3F8042134
:102C200022F00102C3F80421036803F58053D3F8AE
:102C3000082122F00102C3F808210268136823F07A
:102C4000010313600268D2F8003D43F00103C2F8AB
:102C5000003D0268136823F002031360002308E0BC
:102C600003F1120250F82210CA6822F08042CA60B2
:102C70000133032BF4D9002383651022C0F884208C
:102C8000184670473E2FFFFF10B5044629B1D4F80F
:102C90008430232B09D0012010BDD0F8883043F0B8
:102CA0000103C0F888300120F6E74B6BE363012293
:102CB0002046FFF78FFD38B1D4F8883043F0020387
:102CC000C4F888300120E7E7BFF34F8FA36A0133D0
:102CD000A362032B01D9043BA362A26A23680632D4
:102CE00054F8222003F58053C3F820210020D3E7B5
:102CF0002DE9F84F044689B18B46D0F88430232B58
:102D000072D1D0F85C8008F1120350F82350C36EE2
:102D1000C3F1040A4FF000094F4638E0D0F888307C
:102D200043F00103C0F8883001205EE0EB6813F047
:102D3000005F02D00023236663666669EB6813F0C8
:102D4000805F08D0EE68C6F30E06636EF61AEB6875
:102D500023674FF00109B3B22A6904F1800104F13D
:102D60007C0009F0FFFB236E01332366636E33445E
:102D7000636600232B6108F10103032B01D9A8F13D
:102D8000030303F1120254F8225001379846EB680E
:102D9000002B14DB89F00103574510D27BB1EB689F
:102DA00013F0804F03D06B68A3672B686367EB68F1
:102DB00013F0005FBAD1E36F002BB7D1DBE7E36E0E
:102DC0001F44E76637B9C4F85C80B9F1000F05D13C
:102DD00001200AE02046FFF7AFFAF4E7E36FCBF8F3
:102DE00000300020E06700E00120BDE8F88FF8B572
:102DF0000646056C446C012702E0013404F003042C
:102E0000002D0CBF002307F00103EBB1013D231D92
:102E100006EB8303D8690028EFD0F36804EB440283
:102E200003EBC203DB68002B01DA0027E8E709F0B7
:102E3000C9FB231D06EB83030022DA61013404F091
:102E4000030435647464DBE70020F8BD7047704705
:102E5000704710B50446036803F58052D2F860212C
:102E600012F0400F06D003F58052D2F8342112F050
:102E7000400F5CD1236803F58052D2F8602112F034
:102E8000010F06D003F58052D2F8342112F0010F61
:102E900056D1236803F58052D2F8602112F4804F96
:102EA0002BD003F58052D2F8342112F4804F24D075
:102EB000D4F8882042F00802C4F8882003F5805234
:102EC000D2F8602112F4805F44D003F58053D3F828
:102ED000602122F46F6222F00D02D204D20CC4F8F9
:102EE0008C20D3F8342122F44042C3F83421E0236B
:102EF000C4F88430204609F0D5F92368D3F8B4200B
:102F000012F4C04F33D12368D3F8B02012F0100F61
:102F100041D12368D3F8B02012F0200F48D14FF0F0
:102F2000B043D3F8A83013F4800F4ED110BD03F591
:102F3000805348F24002C3F8602109F0A3F999E7F1
:102F400003F5805348F20102C3F86021204609F0DE
:102F5000A1F99EE703F58053D3F8602102F4CD4236
:102F6000C4F88C204FF4CD42C3F86021C2E7D4F8F6
:102F7000882042F01002C4F88820D3F8B830C4F892
:102F80009030E023C4F88430204609F08BF9002308
:102F9000C4F89030B7E7D3F8C03003F06003C4F84A
:102FA00094302046FFF752FF0023C4F89430B0E776
:102FB000D3F8C03003F00F03C4F898302046FFF771
:102FC00046FF0023C4F89830A9E74FF0B0434FF410
:102FD0008002C3F8A8202046FFF73AFFA6E770B5A5
:102FE00004461D460068D0F8003213F0010F01D0EE
:102FF000012070BDD0F8003223F0787343EA4153CA
:1030000023F4F81343EA024242F00D02C0F8002212
:10301000FFF7B8F806462268D2F8001211F0010F47
:1030200007D0FFF7AFF8821BB2F57A7FF3D9012002
:10303000DFE7D2F804329BB22B600020D9E7000012
:1030400038B504460068D0F8005215F0010F01D0E1
:10305000012038BDD0F8000220F0787040EA4151DC
:1030600021F4F81141EA024222F00C0242F005027A
:103070009BB20C49C1F80432C1F80022FFF782F874
:1030800005462368D3F8003213F0010F07D0FFF78D
:1030900079F8431BB3F57A7FF3D90120D9E70020F3
:1030A000D7E700BF00800240002900F0EE800268F0
:1030B000126802F00C02CA6202681268C2F30012BF
:1030C00081F828200268126802F060024A620268F1
:1030D000126812F4807F0CBF0122002281F82020A8
:1030E00002681268C2F34022CA770268126812F4BA
:1030F000806F0CBF012200228A7702681268C2F337
:10310000C0224A7702681268C2F300320A77026866
:10311000126802F400528A610268126802F4804266
:103120004A6102681268C2F300428A740268126837
:1031300012F4003F0CBF012200224A740268126898
:1031400012F4002F0CBF012200220A7402681268D8
:10315000C2F30052CA7302681268C2F340528A7303
:1031600002681268C2F380524A7302681268C2F39E
:10317000C0520A730268126802F0E0628A60026854
:103180001268C2F3C0620A710268126802F0E0427B
:103190000A6002685268C2F30D024A63026852680C
:1031A00012F4803F0CBF0122002281F83220026815
:1031B0005268C2F3404281F8312002685268C2F37B
:1031C000804281F8302002685268C2F3006281F8C0
:1031D000382002685268C2F34462CA630268D26847
:1031E000C2F3002281F840200268D26802F00F0288
:1031F0004A640268126FC2F3400281F854200268E8
:10320000126F12F0800F0CBF0122002281F84C20B7
:103210000268126F02F070020A650268126F120CE7
:103220008A640268D2F8902002F0010281F85620E8
:103230000268D2F89020C2F3400281F8552002685B
:10324000D2F8002D02F072028A650268D2F8302DA1
:1032500002F02302CA650268D2F8302DC2F3C00220
:1032600081F862200268D2F8302DC2F3001281F892
:1032700061200268D2F8302D12F0400F0CBF0122FD
:10328000002281F86020002070470120704751B172
:1032900008B5D0F88430102B01D0012008BDFFF70D
:1032A00097F80020FAE701207047000038B505467E
:1032B0000368D3F8004224F4706401F0FDFC114B64
:1032C0000344114A934205D244F400742B68C3F8B6
:1032D000004238BD0D4B03440D4A934202D844F4DA
:1032E0004074F3E70B4B03440B4A9342EED30B4B72
:1032F00003440B4A934202D844F48074E6E744F452
:103300008064E3E700D3CEFEC0E1E40040F1E9FDD4
:103310003F787D0100796CFC005A6202001F0AFAB6
:103320007FF0FA02002800F0998030B583B004469F
:10333000D0F884309BB34A4BD3F8F42042F0020219
:10334000C3F8F420D3F8F43003F002030193019B97
:10335000237A53BB0020FEF72FFF424B5B682368A4
:1033600003F580531A6842F001021A60FEF70AFF63
:103370000546236803F580531B6813F0010F19D02D
:10338000FEF700FF401BB0F5FA7FF2D90423C4F822
:103390008830E023C4F88430012003B030BD2323FB
:1033A000C0F8843008F0B4FFC5E74FF40000FEF722
:1033B00003FFD2E72046FFF779FF01F07DFC2A4B9F
:1033C000A3FB00239B0C2268013BC2F8DC302046A3
:1033D000FFF72EF9226802F58052D2F8003123F46B
:1033E000E01343F40023C2F80031626912F0030FC6
:1033F00006D00120C4F88800E023C4F88430CCE76C
:10340000216801F58051D1F80801184B034043EAC7
:103410004203C1F808312046FFF778F92046FFF74C
:10342000A2F9626851791379226843EA0123C2F84C
:1034300000336268D17893781B0443EA01635178C2
:1034400043EA0123117822680B43C2F804330020B9
:10345000C4F888001023C4F884309EE70120704728
:10346000004402580004005883DE1B430180FFFF24
:10347000D0F88C0070470000F0B583B000236BE0FB
:1034800085685E000324B44025EA0405CC68B44096
:103490002C438460446824EA0C0C4C68C4F3001488
:1034A0009C4044EA0C04446068E0DD08083550F8AC
:1034B000256003F007044FEA840C0F2404FA0CF48F
:1034C00026EA040E0C6904FA0CF444EA0E0440F8EF
:1034D00025406BE0092400E0002404FA0EF42C439C
:1034E0000CF1020C664D45F82C404FF0B0442568B5
:1034F000D44325EA02064F6817F4801F01D042EA40
:1035000005064FF0B0452E606D6804EA05064F6869
:1035100017F4001F01D042EA05064FF0B0456E6077
:10352000D5F8845004EA05064F6817F4003F01D02F
:1035300042EA05064FF0B045C5F88460D5F88050E2
:103540002C404E6816F4803F01D042EA05044FF04B
:10355000B042C2F8804001330A6832FA03F400F046
:103560008C804FF0010C0CFA03FC1CEA0202F2D032
:103570004C6804F00304013C012C81D94C6804F030
:103580000304032C0CD0C4685D004FF0030C0CFA4C
:1035900005FC24EA0C0C8C68AC4044EA0C04C460C2
:1035A0004C6804F00304022C3FF47FAF04684FEA38
:1035B000430E4FF0030C0CFA0EFC24EA0C0C4C6882
:1035C00004F0030404FA0EF444EA0C0404604C68AA
:1035D00014F4403FBFD02B4CD4F8F45045F0020512
:1035E000C4F8F450D4F8F44004F002040194019CAF
:1035F0004FEA930C0CF10205214C54F8255003F0CE
:1036000003044FEA840E0F2404FA0EF425EA04059D
:103610001D4CA0423FF460AF04F58064A0421ED070
:1036200004F58064A0421CD004F58064A0421AD046
:1036300004F58064A04218D004F58064A04216D03E
:1036400004F58064A04214D004F58064A04212D036
:1036500004F50064A0423FF43DAF0A243DE7012495
:103660003BE7022439E7032437E7042435E7052440
:1036700033E7062431E707242FE703B0F0BD00BF8E
:103680000004005800440258000002580AB1816149
:103690007047090481617047436901EA030221EA26
:1036A000030141EA024181617047704708B54FF05C
:1036B000B043D3F88830034200D108BD4FF0B04387
:1036C000C3F88800FFF7F1FFF7E70000F0B50268E4
:1036D000136823F040531360836833B9026813689A
:1036E00023F080034C68234313600B68022B4DD0FA
:1036F000032B55D0036803F5807203F5847E03F530
:10370000887C03F59073CC6C8D6C2C431460CC6A70
:103710005CB18C6A1C60136823F47C13CC6A4D6B1B
:103720002C430D6B2C4323431360DEF8003023F051
:103730001F034C6C2343CEF800308B6B2BB10B680E
:103740001BB9CB6B0468013B2364CB68002B73D09F
:10375000CC69002C48D08D6B65B31768484E3E404D
:103760004F693B430F693B431C434B6A1C430B6A45
:103770001C432C430D6C2C43344314608B68CCF8F1
:10378000003003688A699A640020F0BD036803F57D
:10379000C07203F5C47E03F5C87C03F5D073B2E7AD
:1037A000036803F5A07203F5A47E03F5A87C03F576
:1037B000B073A8E71668334D35404E6933430E6940
:1037C00033431C434B6A1C430B6A1C432C43146059
:1037D000C36AB3F1805FD1D14B69082BCED1136896
:1037E00043F000631360C9E78C6B84B11568264809
:1037F00028404D692B430D692B431C430B6C1C4324
:10380000044314608B68CCF800300020BDE71468D6
:1038100024F03F044D692B430D692B432343136070
:10382000C36AB3F1805FEDD14B69082BEAD113680D
:1038300043F000631360E5E7CB69E3B18C6B84B1BF
:103840001668124D35404E6A33430E6A33432343A4
:103850000C6C23432B43136003688A699A6400202D
:1038600093E7146824F47C544D6A2B430D6A2B4370
:1038700023431360F0E708234365012085E700BF79
:10388000C0C0FFF0C0C0FFFFC0FFFFF0FFC0FFF0EF
:10389000431EDBB2012B01D901207047002965D0FE
:1038A00010B400230B604B608B60CB600B6102286F
:1038B00002D00024002213E02D4B1B6813F0010FEF
:1038C00001D12C4CF6E74FF40074F3E7501C40F0A4
:1038D0008070C86036E0531C43F080730B61013286
:1038E000012A3FD89000244B1B5813F0010F06D03B
:1038F00084EA030010F0020F01D1501C086013F09D
:10390000100F06D084EA030010F0200F01D1501CE4
:10391000486013F4807F06D084EA030010F4007F2F
:1039200001D1501C886013F4803F0BD084EA03005F
:1039300010F4802F06D113F4003FC7D1501C40F47F
:103940008030C86013F0807FC9D084EA030010F093
:10395000806FC4D113F0007FBDD1531C43F480337A
:103960000B61BCE700205DF8044B704701207047F5
:1039700000B400522202040404B400522DE9F843BA
:1039800005460F4616469946DDF820802C68246AC5
:103990003C4214BF4FF0010C4FF0000CB44514D062
:1039A000B8F1FF3FF2D0FEF7EDFBA0EB0900404578
:1039B00002D8B8F1000FE9D14FF400732B656B6D9D
:1039C00043F001036B65012000E00020BDE8F883AF
:1039D0002DE9F04182B0044688461746FEF7D2FB37
:1039E0000646256D022D09D0142D24D0242D28D073
:1039F00010236365012002B0BDE8F081E368B3F1F4
:103A0000806FF1D000973346002220212046FFF737
:103A1000B5FF0028EFD1606541462046FFF756FE0E
:103A20000028E8D1D8F8383093B1D8F80030D3B9AD
:103A300004232365DFE7D8F80030023B012BD5D8FB
:103A4000E0E7D8F80030032B18BF012BD0D1D9E71D
:103A500000973346012202212046FFF78FFF23689B
:103A600002225A62C7E7012B07D0022BC3D1236D74
:103A7000142B0BD024232365BDE7236D242B02D008
:103A800014232365B7E704232365B4E704232365E0
:103A9000B1E72DE9F04182B0044688461646FEF7AC
:103AA00071FB2768B8F1000F0AD00546236D042B7F
:103AB0000AD0102363650123184602B0BDE8F081E7
:103AC000082363650123F7E73B6C0133A364A36C10
:103AD0006364C4F840803B6823F040533B60009629
:103AE0002B46012204212046FFF748FF034660B918
:103AF000226C127887F85020216C01312164A16C6E
:103B00000139A164A26C002AE9D1002BD4D100961E
:103B10002B46012202212046FFF730FF03460028F2
:103B2000CAD1216802224A622265C5E72DE9F04127
:103B300082B0044688461746FEF724FB2568AA6C27
:103B4000D5F81011B8F1000F0AD00646236D042BEA
:103B50000AD0102363650123184602B0BDE8F08146
:103B6000082363650123F7E72B6C0133A364A36C7F
:103B70006364C4F840802B6823F0405343F08053C3
:103B80002B60E368B3F1806F07D02368D3F800019E
:103B900010F4E06F2AD09A6401E023689A640097D9
:103BA0003346012206212046FFF7E8FE034660B9AE
:103BB000226C95F850101170216C01312164A16CB8
:103BC0000139A164A26C002AE9D1002BC4D100976D
:103BD0003346012202212046FFF7D0FE034600288B
:103BE000BAD1216802224A622265B5E7C3F81011F2
:103BF000D5E781650020704730B583B00446FEF7F5
:103C0000C1FA002C77D0054600236365236D13B1FC
:103C1000002003B030BD2046FDF7E6FD41F28831BB
:103C20002046FFF7E6FF20688268344B1340E268C5
:103C30002169013942EA01426169013942EA0122FE
:103C4000616B0A43E1690A43134383602268D368C6
:103C500023F4E023216A0B43D360216BA36B22681A
:103C600043EA014313612368E26B5A6121680B68E0
:103C700023F4F8536268013A43EA02230B60A36D10
:103C800000932B46002220212046FFF777FE0028D4
:103C9000BFD12168CB6823F0FF03626A013A134366
:103CA000CB602268136823F04003A1680B431360C4
:103CB0002168D1F8083123F0A043A26AE56A2A43BB
:103CC0001343C1F808312268136843F001031360FD
:103CD000A369022B06D0E368B3F1806F08D00223FA
:103CE000236596E72268936843F002039360F2E746
:103CF000012323658DE701208BE700BFF4F8E0F88E
:103D00002DE9F0438DB081460D4602689A4B9A42E8
:103D100005D04FF00008012600231F4604E04FF0B5
:103D200001080026F8E72346012B0FD85C1CE4B2FB
:103D300003EB43030DEBC3012046FFF7A9FD002869
:103D4000F1D00823C9F854300127ECE7002F40F0E8
:103D50000C81894B1B6813F0010F00F00A81864A21
:103D6000136823F0010313600121844B1B6813F0D7
:103D7000010F07D0814A136823F00103136041F05B
:103D80000201C9B206EB46030CAA02EBC30353F8C7
:103D9000283C013B7A4800EB83035A6822F4807286
:103DA0005A60036813F0010F00F02E81036823F0BE
:103DB00001030360B8F1000F40F0E480D5F800E0A3
:103DC000434608EB48020CA800EBC20252F8300C44
:103DD000864518D008EB48080CAA02EBC80858F82A
:103DE0002C2C6C6894420ED058F8282CAC68944265
:103DF00009D058F8242CEC68944204D058F8202CB0
:103E00002C69944248D1864500F0478101388000F2
:103E10005B4A0244506820F00100506003EB43020B
:103E20000CA800EBC20252F82C2C3AB1013A9200D5
:103E300053481044426822F01002426003EB4300F2
:103E40000CAA02EBC00050F8282C013A92004C4C0E
:103E50001444626822F48072626050F8242C4AB1E3
:103E6000013A02F00102920045481044426822F4EF
:103E70008032426003EB43030CAA02EBC30353F806
:103E8000203C4BB1013B03F001039B003C4A1A4428
:103E9000536823F080735360AA68013A384800EBF6
:103EA0008202536823F4407343EA462343F4807349
:103EB00053606B69013B0268C2F30742934205D924
:103EC000026822F47F0242EA034303602C4B1B6822
:103ED00013F0010F00F027812B68013B9B00284A5B
:103EE0001A44536823F0030343F0010353606B68E3
:103EF0004BB1013B9B00224A1A44536823F0300324
:103F000043F010035360EB6813F4803F00F0EB8044
:103F1000013B03F001039B00194A1A44536823F440
:103F2000E02343F4803353602B6913F4803F00F0A7
:103F3000EA80013B03F001039B00114A1A445368D5
:103F400023F4E02343F44033536011F0010F04D015
:103F5000094A136843F00103136011F0020F04D003
:103F6000064A136843F00103136038460DB0BDE8FC
:103F7000F0833946F9E600BF0050005200A000521D
:103F800000B40052434608EB48000CAA02EBC00004
:103F900050F8302C013A9200944C1444626842F07C
:103FA0000202626050F82C2C3AB1013A92008F481C
:103FB0001044426842F02002426003EB43020CA826
:103FC00000EBC20252F8242C4AB1013A02F001027D
:103FD000920086481044426842F48022426003EB1B
:103FE00043030CAA02EBC30353F8203C002B3FF41D
:103FF000E5AE013B03F001039B007C4A1A44536881
:1040000043F080635360D9E606EB46030CAA02EB4B
:10401000C30353F8303C002B3FF4D0AE013B9B0070
:10402000724A1A44536823F00103536006EB4603B7
:104030000CAA02EBC30353F82C3C3BB1013B9B00A1
:104040006A4A1A44536823F01003536006EB460390
:104050000CAA02EBC30353F8243C4BB1013B03F021
:1040600001039B00614A1A44536823F48033536070
:1040700006EB46030CAA02EBC30353F8203C002BCB
:104080003FF49CAE013B03F001039B00574A1A44E6
:10409000536823F08073536090E66C6803EB43022F
:1040A0000DF1300C0CEBC20252F82C2C94427FF430
:1040B000ADAEEC6803EB43020CEBC20252F8242CC9
:1040C00094427FF4A3AE2C6903EB43020CEBC202D3
:1040D00052F8202C94427FF499AE444A136843F07E
:1040E00001031360D8E6002B3FF41EAF013B03F041
:1040F00001039B003D4A1A44536823F0E06343F0F8
:104100008073536010E7002B3FF41FAF013B03F0B7
:1041100001039B00354A1A44536823F0E06343F0DF
:104120004073536011E72B68013B9B002F4A1A44F0
:10413000536823F0030343EA460343F0010353604B
:104140006B685BB1013B9B00284A1A44536823F01B
:10415000300343EA461343F010035360EB6813F453
:10416000803F20D0013B03F001039B001F4A1A440B
:10417000536823F4E02343EA864343F480335360D7
:104180002B6913F4803F1FD0013B03F001039B0018
:10419000164A1A44536823F4E02343EA864646F459
:1041A00040365660D1E6002BEAD0013B03F0010314
:1041B0009B000E4A1A44536823F0E06343EA866387
:1041C00043F080735360DBE7002B3FF4BEAE013B4E
:1041D00003F001039B00054A1A44536823F0E0638F
:1041E00043EA866646F040765660AEE600B400527A
:1041F000134BDB6813F0040F07D1114BDB6803F09E
:10420000070383421AD00120704710B50C4AD368C7
:1042100023F007031843D060FDF7B4FF0446084BB2
:104220005B6813F4005F07D1FDF7ACFF001BB0F52E
:104230007A7FF4D9012000E0002010BD00207047F3
:1042400000480258002800F0D78238B504460368B9
:1042500013F0010F25D0A04A136903F03803926AC6
:10426000102B15D0182B0FD06368B3F5803F3FD0CB
:10427000002B53D1984B1A6822F480321A601A68C6
:1042800022F480221A6038E002F00302022AEBD105
:10429000914B1B6813F4003F03D06368002B00F0C0
:1042A000AD82236813F0020F00F088808A4A1369F8
:1042B000926A13F038035AD0182B55D0E368002BBC
:1042C00000F0A98084490A6822F0190213430B60A8
:1042D000FDF758FF0546804B1B6813F0040F40F0B4
:1042E0009180FDF74FFF401B0228F4D903208CE298
:1042F000794A136843F48033136063682BB3FDF786
:1043000041FF0546744B1B6813F4003FC9D1FDF70C
:1043100039FF401B6428F5D9032076E2B3F5A02FBE
:1043200009D06D4B1A6822F480321A601A6822F4A0
:1043300080221A60E1E7684B1A6842F480221A6012
:104340001A6842F480321A60D7E7FDF71BFF054672
:10435000614B1B6813F4003FA3D0FDF713FF401B14
:104360006428F5D9032050E212F0030FA6D15A4B6E
:104370001B6813F0040F03D0E368002B00F04082A9
:10438000554A136823F01903E1680B431360FDF7E6
:10439000F9FE0546504B1B6813F0040F06D1FDF7DC
:1043A000F1FE401B0228F5D903202EE24A4A536849
:1043B00023F0FE43216943EA01635360236813F04D
:1043C000100F51D0444A136903F03803926A082B46
:1043D00039D0182B33D0E369002B69D03E4A1368DB
:1043E00043F080031360FDF7CDFE05463A4B1B6892
:1043F00013F4807F53D1FDF7C5FE401B0228F5D989
:10440000032002E2344A536823F0FE43216943EA61
:1044100001635360D2E7304A136823F0010313604D
:10442000FDF7B0FE05462C4B1B6813F0040FC5D0FA
:10443000FDF7A8FE401B0228F5D90320E5E102F0B4
:104440000302012AC7D1244B1B6813F4807F03D0D9
:10445000E369802B40F0D6811F4AD36823F07C5358
:10446000216A43EA0163D360236813F0080F49D03F
:104470006369002B32D0184A536F43F0010353672E
:10448000FDF780FE0546144B5B6F13F0020F39D128
:10449000FDF778FE401B0228F5D90320B5E10E4A4E
:1044A000D36823F07C53216A43EA0163D360DBE7DE
:1044B000094A136823F080031360FDF763FE054685
:1044C000054B1B6813F4807FCED0FDF75BFE401BCD
:1044D0000228F5D9032098E1004402589D4A536F01
:1044E00023F001035367FDF74DFE0546994B5B6FC3
:1044F00013F0020F06D0FDF745FE401B0228F5D948
:10450000032082E1236813F0200F29D0A3699BB117
:10451000904A136843F480531360FDF733FE054659
:104520008C4B1B6813F4005F1AD1FDF72BFE401B68
:104530000228F5D9032068E1864A136823F48053E2
:104540001360FDF71FFE0546824B1B6813F4005FE6
:1045500006D0FDF717FE401B0228F5D9032054E1D1
:10456000236813F0040F21D1636A002B00F04C8103
:10457000784A126902F03802182A00F0F380022B00
:1045800075D0744A136823F080731360FDF7FAFD49
:104590000446704B1B6813F0007F00F0D880FDF7D5
:1045A000F1FD001B0228F4D903202EE16A4A1368AA
:1045B00043F480731360FDF7E5FD0546664B1B6809
:1045C00013F4807F06D1FDF7DDFD401B6428F5D98B
:1045D00003201AE1A368012B0AD00BBB5D4B1A6FB5
:1045E00022F001021A671A6F22F004021A6704E02F
:1045F000584A136F43F001031367A36833B3FDF701
:10460000C1FD0546534B1B6F13F0020FACD1FDF7F4
:10461000B9FD401B41F288339842F3D90320F4E0FE
:10462000052B09D04B4B1A6F22F001021A671A6F43
:1046300022F004021A67E0E7464B1A6F42F00402C8
:104640001A671A6F42F001021A67D6E7FDF79AFD62
:104650000546404B1B6F13F0020F85D0FDF792FD0E
:10466000401B41F288339842F3D90320CDE0394A08
:10467000136823F080731360FDF784FD0546354B06
:104680001B6813F0007F06D0FDF77CFD401B02285D
:10469000F5D90320B9E02F4B996A304A0A40A16A44
:1046A000E06A41EA00110A439A62226B013AC2F3BE
:1046B0000802616B0139490289B20A43A16B0139D1
:1046C000090401F4FE010A43E16B0139090601F016
:1046D000FE410A431A63DA6A22F00102DA62596B78
:1046E0001F4A0A40A16C42EAC1025A63DA6A22F008
:1046F0000C02216C0A43DA62DA6A22F00202616C6F
:104700000A43DA62DA6A42F48032DA62DA6A42F43E
:104710000032DA62DA6A42F48022DA62DA6A42F05D
:104720000102DA621A6842F080721A60FDF72AFD0F
:104730000446084B1B6813F0007F06D1FDF722FDED
:10474000001B0228F5D903205FE000205DE0002077
:104750005BE000BF00440258004802580CFCFFFF19
:104760000700FFFF30498A6A086B012B4ED002F028
:104770000303A16A8B424BD1C2F30512E36A9A424A
:1047800048D1C0F30802236B013B9A4244D1C0F3E5
:104790004622636B013B9A4240D1C0F30642A36BB1
:1047A000013B9A423CD1C0F30660E36B013B984267
:1047B00038D11D4B5B6BC3F3CC03A26C9A4201D181
:1047C000002022E0184AD36A23F00103D362FDF7E8
:1047D000D9FC0546FDF7D6FCA842FBD0124A516B26
:1047E000124B0B40A16C43EAC1035363D36A43F0FD
:1047F0000103D362002008E001207047012004E09B
:10480000012002E0012000E0002038BD0120FCE78B
:104810000120FAE70120F8E70120F6E70120F4E79C
:104820000120F2E70120F0E7004402580700FFFFF3
:10483000744B1B6903F03803102B00F0DE80182B3B
:1048400010D00BB1704870476E4B1B6813F0200FEF
:1048500000F0D5806B4B1868C0F3C1006B4B23FA96
:1048600000F0704710B4674A916A01F00301946A3E
:10487000C4F30510D36A03F0010C536BC3F3CC03EC
:104880000CFB03F307EE903AF8EE677A14F47C7FA2
:1048900000F09380012965D0022900F09180E1B1F8
:1048A00007EE100AF8EE476A9FED596A86EE267AFF
:1048B000544B1B6BC3F3080306EE903AF8EE666A9E
:1048C0009FED546A67EE867A76EEA77AF7EE006A75
:1048D00077EEA67A27EE277A60E0136813F0200FB0
:1048E00023D011461268C2F3C102484BD34007EEF1
:1048F000103AF8EE476A07EE100AB8EE476A86EEFD
:10490000867A0B6BC3F3080306EE903AF8EE666AFC
:104910009FED406A67EE867A76EEA77AF7EE006A38
:1049200077EEA67A27EE277A38E007EE100AF8EE3F
:10493000476A9FED396A86EE267A324B1B6BC3F3CA
:10494000080306EE903AF8EE666A9FED326A67EE6B
:10495000867A76EEA77AF7EE006A77EEA67A27EEE9
:10496000277A1BE007EE100AF8EE476A9FED286AE7
:1049700086EE267A234B1B6BC3F3080306EE903AB0
:10498000F8EE666A9FED236A67EE867A76EEA77A7E
:10499000F7EE006A77EEA67A27EE277A194B1B6BA3
:1049A000C3F34623013307EE903AF8EE677AC7EE79
:1049B000276AFCEEE67A17EE900A5DF8044B704722
:1049C00007EE100AF8EE476A9FED146A86EE267A23
:1049D0000C4B1B6BC3F3080306EE903AF8EE666AC5
:1049E0009FED0C6A67EE867A76EEA77AF7EE006A9C
:1049F00077EEA67A27EE277AD0E709487047034872
:104A0000704700BF0044025800093D000090D003E9
:104A10000024744A000000390024744C20BCBE4BB2
:104A200040787D01002800F0328170B50D460446C3
:104A30009B4B1B6803F00F038B420BD2984A136801
:104A400023F00F030B431360136803F00F038B4233
:104A500040F01F81236813F0040F0CD02269914BA2
:104A60009B6903F070039A4205D98E498B6923F044
:104A700070031A438A61236813F0080F0CD062692F
:104A8000884BDB6903F070039A4205D98549CB69ED
:104A900023F070031A43CA61236813F0100F0CD07F
:104AA000A269804BDB6903F4E0639A4205D97D4932
:104AB000CB6923F4E0631A43CA61236813F0200F23
:104AC0000CD0E269774B1B6A03F070039A4205D958
:104AD00074490B6A23F070031A430A62236813F0C7
:104AE000020F0CD0E2686F4B9B6903F00F039A42F0
:104AF00005D96C498B6923F00F031A438A61236837
:104B000013F0010F41D0674A936923F47063A168E1
:104B10000B4393616368022B0AD0032B27D0012B30
:104B20002CD0604A126812F0040F06D10120ADE0CB
:104B3000126812F4003F00F0AE805A490A6922F070
:104B4000070213430B61FDF71DFB0646554B1B691E
:104B500003F038036268B3EBC20F16D0FDF712FB07
:104B6000801B41F288339842F0D903208EE04D4AF1
:104B7000126812F0007FE0D1012087E0494A1268F4
:104B800012F4807FD9D1012080E0236813F0020F56
:104B90000CD0E268434B9B6903F00F039A4205D2A5
:104BA00040498B6923F00F031A438A613C4B1B6811
:104BB00003F00F03AB420AD9394A136823F00F03FD
:104BC0002B431360136803F00F03AB4265D12368D6
:104BD00013F0040F0CD02269324B9B6903F0700371
:104BE0009A4205D22F498B6923F070031A438A61D8
:104BF000236813F0080F0CD062692A4BDB6903F0BD
:104C000070039A4205D22749CB6923F070031A43F7
:104C1000CA61236813F0100F0CD0A269214BDB6925
:104C200003F4E0639A4205D21E49CB6923F4E063A2
:104C30001A43CA61236813F0200F0CD0E269194BA4
:104C40001B6A03F070039A4205D216490B6A23F0DF
:104C500070031A430A62FFF7EBFD12498B69C3F335
:104C60000323114AD35C03F01F03D8408B6903F080
:104C70000F03D35C03F01F0320FA03F30B4A136006
:104C80000B4B18600B4B1868FCF738FF70BD012008
:104C900070470120FAE70120F8E70120F6E700BF9E
:104CA0000020005200440258BCC301080400002444
:104CB000000000240C00002408B5FFF7B9FD0B4AE2
:104CC0009369C3F303230A49CB5C03F01F0320FA63
:104CD00003F3926902F00F02885C00F01F0023FAD0
:104CE00000F0044A1060044A136008BD00440258F2
:104CF000BCC30108040000240000002408B5FFF72D
:104D0000DBFF054BDB69C3F30213044AD35C03F0FA
:104D10001F03D84008BD00BF00440258BCC30108AF
:104D200008B5FFF7C9FF054BDB69C3F30223044A4B
:104D3000D35C03F01F03D84008BD00BF00440258F5
:104D4000BCC301083F230360114B1A6902F007023C
:104D500042609A6902F4706282609A6902F00F02FE
:104D6000C2609A6902F070020261DA6902F07002B0
:104D70004261DA6902F4E06282611B6A03F0700347
:104D8000C361044B1B6803F00F030B60704700BF47
:104D90000044025800200052404B9B6A03F003037A
:104DA000032B79D070B505460E463C4A136823F0B4
:104DB00080631360FDF7E6F90446384B1B6813F077
:104DC000006F06D0FDF7DEF9031B022BF5D9032097
:104DD00070BD324B9A6A22F47C32296842EA013271
:104DE0009A626A68013AC2F30802A9680139490265
:104DF00089B20A43E9680139090401F4FE010A4352
:104E000029690139090601F0FE410A439A63DA6A09
:104E100022F0C00269690A43DA62DA6A22F02002EB
:104E2000A9690A43DA62DA6A22F01002DA62D96BFF
:104E30001B4A0A40E96942EAC102DA63DA6A42F0CF
:104E40001002DA62C6B91A46DB6A43F40023D36261
:104E5000124A136843F080631360FDF793F9044628
:104E60000E4B1B6813F0006F14D1FDF78BF9001B7C
:104E70000228F5D90320ABE7012E05D0074AD36AF3
:104E800043F40013D362E3E7044AD36A43F4801384
:104E9000D362DDE700209BE7012070470044025801
:104EA0000700FFFF404B9B6A03F00303032B79D0FD
:104EB00070B505460E463C4A136823F080531360D4
:104EC000FDF760F90446384B1B6813F0005F06D00D
:104ED000FDF758F9031B022BF5D9032070BD324BA7
:104EE0009A6A22F07C72296842EA01529A626A68E0
:104EF000013AC2F30802A9680139490289B20A439A
:104F0000E9680139090401F4FE010A4329690139FC
:104F1000090601F0FE410A431A64DA6A22F440628B
:104F200069690A43DA62DA6A22F40072A9690A43FB
:104F3000DA62DA6A22F48072DA62596C1B4A0A4039
:104F4000E96942EAC1025A64DA6A42F48072DA62BA
:104F5000C6B91A46DB6A43F48003D362124A136867
:104F600043F080531360FDF70DF904460E4B1B68A8
:104F700013F0005F14D1FDF705F9001B0228F5D9E5
:104F80000320ABE7012E05D0074AD36A43F08073B4
:104F9000D362E3E7044AD36A43F40003D362DDE754
:104FA00000209BE701207047004402580700FFFFE4
:104FB000F8B50446036813F0006F30D0436EB3F5C4
:104FC000001F26D00ED8EBB1B3F5801F07D1022108
:104FD0000830FFF7E1FE054645B12E4621E00126E7
:104FE00035461EE0B3F5401F09D100259F4A136DD9
:104FF00023F44013616E0B431365002611E0012674
:1050000035460EE0994AD36A43F40033D362002553
:10501000ECE702212830FFF745FF0546DCE70026D4
:105020003546236813F4807F27D0A36D042B20D846
:10503000DFE803F00311180808008C4AD36A43F430
:105040000033D362C5B9894A136D23F00703A16DFC
:105050000B43136511E0002104F10800FFF79CFEEB
:105060000546EFE7002104F12800FFF71BFF054686
:10507000E8E70126354600E02E46236813F4806FEA
:1050800022D0D4F8A430B3F5800F3FD00DD8BBB3F5
:10509000B3F5001F06D1002104F10800FFF77CFEE4
:1050A000054608E0012635460EE0B3F5000F02D0B4
:1050B000B3F5200F1ED185BB6C4A936D23F46003BA
:1050C000D4F8A4100B439365236813F4006F39D010
:1050D000D4F8A830B3F1007F5AD023D8002B51D098
:1050E000B3F1807F1BD1002104F10800FFF754FECB
:1050F00005461DE0B3F5C00FDDD001263546E3E7D8
:105100005A4AD36A43F40033D362D4E7002104F14E
:105110002800FFF7C7FE0546CDE72E46D4E7012657
:1051200035460FE0B3F1806F02D0B3F1A06F23D109
:10513000002D34D14D4A936D23F0E063D4F8A810CC
:105140000B439365236813F0007F31D0E36C202B71
:1051500042D029D833B1102B23D1444AD36A43F427
:105160000033D362002D3ED1404AD36C23F030038C
:10517000E16C0B43D3641BE0B3F1407FD8D0012630
:105180003546DFE7394AD36A43F40033D362CFE7C9
:10519000002104F12800FFF785FE0546C8E72E46EA
:1051A000D0E70126354603E0302BDBD0012635461B
:1051B000236813F4805F3BD0E36DB3F5005F2FD01D
:1051C00016D83BB3B3F5805F0FD1002104F108007E
:1051D000FFF7E2FD054611E0022104F10800FFF7A8
:1051E000DBFD0546BEE72E46E2E7012635461FE019
:1051F000B3F5405F02D0B3F5804F08D1BDB91B4A6B
:10520000136D23F4E043E16D0B43136510E00126B9
:1052100035460DE0154AD36A43F40033D362EDE717
:10522000002104F12800FFF73DFE0546E6E72E4683
:10523000236813F4005F29D0236EB3F5003F44D0F8
:1052400019D843B1B3F5803F12D1012104F1080010
:10525000FFF7A2FD0546002D3ED1044A136D23F44D
:10526000E023216E0B43136510E000BF0044025899
:10527000012635460AE0B3F5802FECD0B3F5A02F18
:10528000E9D0B3F5403FE6D001263546236813F454
:10529000804F31D0D4F8AC30B3F1005F45D020D886
:1052A00043B1B3F1805F19D1012104F10800FFF788
:1052B00073FD0546002D3FD18F4A936D23F0E043E7
:1052C000D4F8AC100B43936516E0012104F12800DB
:1052D000FFF7E8FD0546BEE72E46D7E7012635462F
:1052E0000AE0B3F1804FE5D0B3F1A04FE2D0B3F1C3
:1052F000405FDFD001263546236813F4004F09D004
:10530000E36EB3F1805F19D0B3F1005F24D0D3B165
:1053100001263546236813F0807F33D0A36C032B1E
:105320005BD8DFE803F027225327012104F128008E
:10533000FFF7B8FD0546BDE72E46DDE76E4AD36AA6
:1053400043F40033D36275B96B4A136D23F04053B5
:10535000E16E0B431365DDE7012104F10800FFF75F
:105360001BFD0546EFE72E46D4E7634AD36A43F4B4
:105370000033D362A5BB604AD36C23F00303A16C56
:105380000B43D364236813F4800F2BD1236813F0ED
:10539000010F00F0A380A36F282B00F29D80DFE8AF
:1053A00003F08B9B9B9B9B9B9B9B859B9B9B9B9BB6
:1053B0009B9B949B9B9B9B9B9B9B8B9B9B9B9B9B54
:1053C0009B9B8B9B9B9B9B9B9B9B8B00022104F13C
:1053D0000800FFF7E1FC0546CCE701263546D1E79A
:1053E0002E46CFE7454A136843F480731360FCF7F9
:1053F000C9FE0746414B1B6813F4807F05D1FCF7BB
:10540000C1FEC01B6428F5D90325002D4AD13A4BB3
:105410001B6FD4F8B020534013F4407F0CD0364BB0
:105420001A6F22F44072196F41F480311967196FB5
:1054300021F4803119671A67D4F8B030B3F5807F52
:1054400015D08DBBD4F8B03003F44072B2F5407F74
:105450001ED0294A136923F47C53136126490B6F2C
:10546000D4F8B020C2F30B0213430B678EE7FCF7AE
:1054700089FE0746204B1B6F13F0020FE1D1FCF7AA
:1054800081FEC01B41F288339842F3D90325D8E747
:105490001948026922F47C52194901EA1313134393
:1054A0000361DBE72E4671E72E466FE7012104F129
:1054B0000800FFF771FC0546E5B90F4A536D23F06C
:1054C0003803A16F0B43536508E0012104F1280064
:1054D000FFF7E8FC0546EFE701263546236813F0A1
:1054E000020F1DD0636F052B2ED8DFE803F0110BE0
:1054F000261111112E46F1E70044025800480258C7
:10550000CFFFFF00012104F10800FFF745FC05462D
:10551000EDB9A94A536D23F00703616F0B4353653F
:10552000236813F0040F23D0D4F89030052B45D80E
:10553000DFE803F0150F3D151515012104F12800D2
:10554000FFF7B0FC0546E3E701263546E8E72E46BF
:10555000E6E7012104F10800FFF71EFC054685BBC4
:10556000954A936D23F00703D4F890100B4393658D
:10557000236813F0200F34D0D4F88C30B3F1005FDF
:105580004ED023D843B1B3F1805F1CD1002104F188
:105590000800FFF701FC0546002D48D1864A536DEF
:1055A00023F0E043D4F88C100B43536519E001213C
:1055B00004F12800FFF776FC0546D0E701263546C2
:1055C000D6E72E46D4E7012635460AE0B3F1804FF0
:1055D000E2D0B3F1A04FDFD0B3F1405FDCD00126C1
:1055E0003546236813F0400F31D0D4F89830B3F526
:1055F000006F4DD020D843B1B3F5806F19D1002191
:1056000004F10800FFF7C8FB0546002D47D16A4AA0
:10561000936D23F4E053D4F898100B43936516E090
:10562000022104F12800FFF73DFC0546B4E72E46B1
:10563000D7E7012635460AE0B3F5805FE5D0B3F53C
:10564000A05FE2D0B3F5406FDFD001263546236876
:1056500013F0800F33D0D4F89C30B3F5804F00F0B6
:10566000A18021D843B1B3F5005F1AD1002104F124
:105670000800FFF791FB0546002D40F09A804E4A46
:10568000936D23F46043D4F89C100B43936516E0AC
:10569000022104F12800FFF705FC0546B5E72E4678
:1056A000D5E7012635460AE0B3F5004FE4D0B3F55F
:1056B000204FE1D0B3F5C04FDED001263546236838
:1056C00013F0080F0CD0D4F88030B3F5805F75D09C
:1056D000394A536D23F44053D4F880100B4353657B
:1056E000236813F0100F0CD0D4F89430B3F5807FFA
:1056F0006DD0314A936D23F44073D4F894100B436A
:105700009365236813F4002F0BD0D4F8A030B3F5C1
:10571000803F75D0B3F5003F68D0002B60D00126E4
:105720003546236813F4802F0CD0D4F88430B3F5B9
:10573000001F7DD0B3F5401F70D0B3F5801F68D037
:1057400001263546236813F4803F08D0236D002BD3
:1057500077D0B3F5803F00F082800126354623687C
:1057600013F0005F40F08480236813F4003F00F0E2
:105770008C80E36FB3F5807F00F0DF8040F28280A1
:10578000B3F5007F03D0B3F5407F40F0D480002D07
:1057900040F0D980084A536D23F44073E16F0B4306
:1057A000536572E0022104F12800FFF77BFB0546F8
:1057B00062E72E4683E700BF00440258022104F14D
:1057C0002800FFF76FFB002882D0012680E7022126
:1057D00004F12800FFF766FB00288AD0012688E73D
:1057E000002104F10800FFF7D7FA05467DB9724A97
:1057F000936D23F44033D4F8A0100B43936590E7E6
:10580000022104F12800FFF74DFB0546EEE72E4686
:1058100087E7694AD36A43F40033D3627DB9664AA5
:10582000536D23F44013D4F884100B43536589E778
:10583000012104F12800FFF735FB0546EEE72E466F
:1058400080E75D4AD36A43F40033D36275B95A4A9C
:10585000D36C23F48033216D0B43D3647FE70221A3
:1058600004F10800FFF798FA0546EFE72E4676E7C1
:10587000022104F12800FFF715FB00283FF474AF64
:10588000012671E7002B82D00126236813F4801FC4
:1058900006D0494A136D23F00043216F0B43136573
:1058A000236813F4001F06D0434A136D23F080735E
:1058B000A16E0B431365236813F0804F09D03E4B54
:1058C0001A6922F400421A611A69D4F8B4100A4322
:1058D0001A612368002B06DA374AD36C23F0405351
:1058E000616D0B43D364236813F4000F07D0324A71
:1058F000536D23F44003D4F888100B435365636859
:1059000013F0010F21D1636813F0020F26D16368F1
:1059100013F0040F2BD1636813F0080F30D16368C4
:1059200013F0100F35D1636813F0200F3AD106B190
:1059300001263046F8BD0126A7E71F4AD36A43F483
:105940000033D36223E72E469FE7002104F10800CD
:10595000FFF722FA0028D6D00646D4E7012104F149
:105960000800FFF719FA0028D1D00646CFE7022138
:1059700004F10800FFF710FA0028CCD00646CAE769
:10598000002104F12800FFF78DFA0028C7D0064651
:10599000C5E7012104F12800FFF784FA0028C2D0EE
:1059A0000646C0E7022104F12800FFF77BFA002831
:1059B000BDD00646BBE700BF0044025808B5FFF75C
:1059C0007BF9054B1B6AC3F30213044AD35C03F053
:1059D0001F03D84008BD00BF00440258BCC30108E3
:1059E00010B5774A916A946AC4F3053ED36AC3F34B
:1059F000001CD36BC3F3CC030CFB03F314F47C3F08
:105A000000F0D88001F0030107EE903AF8EE677AD3
:105A1000012965D0022900F0B080E1B107EE10EA5B
:105A2000B8EE477A9FED676AC6EE076A644B9B6BD8
:105A3000C3F3080307EE103AB8EE477A9FED626AA7
:105A400067EE867A77EE277AB7EE007A77EE877A76
:105A500066EEA76A60E0136813F0200F23D01146AA
:105A60001268C2F3C102594BD34007EE103AB8EEA8
:105A7000477A06EE90EAB8EE666AC7EE066A8B6B66
:105A8000C3F3080307EE103AB8EE477A9FED4E6A6B
:105A900067EE867A77EE277AB7EE007A77EE877A26
:105AA00066EEA76A38E007EE10EAB8EE477A9FED97
:105AB000486AC6EE076A424B9B6BC3F3080307EEC6
:105AC000103AB8EE477A9FED406A67EE867A77EE35
:105AD000277AB7EE007A77EE877A66EEA76A1BE040
:105AE00007EE10EAB8EE477A9FED366AC6EE076A0F
:105AF000334B9B6BC3F3080307EE103AB8EE477ABB
:105B00009FED316A67EE867A77EE277AB7EE007AF4
