:020000040800F2
:1000000000000524314C0008353800083738000856
:10001000393800083B3800083D380008000000006F
:10002000000000000000000000000000A10D010819
:100030003F38000800000000410E0108590A01087D
:10004000814C0008814C0008814C0008814C00085C
:10005000814C0008814C0008814C0008814C00084C
:1000600079E7000809E70008814C000841380008DA
:1000700051380008814C0008814C0008814C000870
:10008000814C0008814C0008814C0008814C00081C
:10009000814C0008814C0008814C0008814C00080C
:1000A000814C0008814C0008814C0008814C0008FC
:1000B00091E70008814C000861380008814C000875
:1000C000814C0008814C0008814C0008814C0008DC
:1000D0007138000881380008814C0008814C000804
:1000E00051E70008814C000800000000814C000826
:1000F000814C0008814C0008814C000891380008B0
:10010000814C0008814C0008814C0008A13800088F
:10011000814C0008814C0008814C0008814C00088B
:10012000B1380008814C0008814C0008814C00085F
:10013000814C0008814C0008814C0008814C00086B
:1001400000000000000000000000000000000000AF
:10015000814C0008814C0008814C0008814C00084B
:10016000814C0008814C0008814C0008814C00083B
:10017000814C0008814C0008814C00080000000000
:10018000814C0008814C0008814C0008814C00081B
:10019000814C0008814C0008814C0008814C00080B
:1001A000814C0008814C0008814C000800000000D0
:1001B000814C0008814C0008814C0008814C0008EB
:1001C000814C0008814C0008000000000000000085
:1001D0000000000000000000814C0008000000004A
:1001E000000000000000000000000000000000000F
:1001F0000000000000000000814C0008814C000855
:10020000814C0008814C000800000000814C00086F
:10021000814C0008814C0008814C0008814C00088A
:10022000814C000800000000814C00080000000024
:10023000814C0008814C000800000000814C00083F
:10024000814C0008814C0008814C0008814C00085A
:10025000814C0008814C0008814C0008814C00084A
:10026000814C0008814C0008814C0008814C00083A
:10027000814C0008814C0008814C000800000000FF
:10028000814C0008814C0008814C0008814C00081A
:1002900000000000814C0008814C000800000000B4
:1002A00000000000814C0008814C0008814C0008CF
:1002B000814C0008814C0008814C0008814C0008EA
:0C02C000814C0008814C0008814C0008B3
:1003000010B5054C237833B9044B13B10448AFF34F
:1003100000800123237010BDD810002400000000CD
:10032000408A010808B5034B1BB103490348AFF3EA
:10033000008008BD00000000DC100024408A010895
:1003400081F0004102E000BF83F0004330B54FEA86
:1003500041044FEA430594EA050F08BF90EA020FF3
:100360001FBF54EA000C55EA020C7FEA645C7FEA86
:10037000655C00F0E2804FEA5454D4EB5555B8BFA9
:100380006D420CDD2C4480EA020281EA030382EA1A
:10039000000083EA010180EA020281EA0303362DAC
:1003A00088BF30BD11F0004F4FEA01314FF4801C7F
:1003B0004CEA113102D0404261EB410113F0004F91
:1003C0004FEA03334CEA133302D0524263EB430348
:1003D00094EA050F00F0A780A4F10104D5F1200EE6
:1003E0000DDB02FA0EFC22FA05F2801841F1000141
:1003F00003FA0EF2801843FA05F359410EE0A5F115
:1004000020050EF1200E012A03FA0EFC28BF4CF045
:10041000020C43FA05F3C01851EBE37101F00045FB
:1004200007D54FF0000EDCF1000C7EEB00006EEB08
:100430000101B1F5801F1BD3B1F5001F0CD3490892
:100440005FEA30004FEA3C0C04F101044FEA4452E9
:1004500012F5800F80F09A80BCF1004F08BF5FEA70
:10046000500C50F1000041EB045141EA050130BD50
:100470005FEA4C0C404141EB0101013C28BFB1F562
:10048000801FE9D291F0000F04BF01460020B1FAAD
:1004900081F308BF2033A3F10B03B3F120020CDA80
:1004A0000C3208DD02F1140CC2F10C0201FA0CF05E
:1004B00021FA02F10CE002F11402D8BFC2F1200CC3
:1004C00001FA02F120FA0CFCDCBF41EA0C01904079
:1004D000E41AA2BF01EB0451294330BD6FEA0404C2
:1004E0001F3C1CDA0C340EDC04F11404C4F12002AD
:1004F00020FA04F001FA02F340EA030021FA04F3BF
:1005000045EA030130BDC4F10C04C4F1200220FA15
:1005100002F001FA04F340EA0300294630BD21FA53
:1005200004F0294630BD94F0000F83F4801306BF19
:1005300081F480110134013D4EE77FEA645C18BF0D
:100540007FEA655C29D094EA050F08BF90EA020FA4
:1005500005D054EA000C04BF1946104630BD91EA9C
:10056000030F1EBF0021002030BD5FEA545C05D19F
:100570004000494128BF41F0004130BD14F58004DE
:100580003CBF01F5801130BD01F0004545F0FE4152
:1005900041F470014FF0000030BD7FEA645C1ABF87
:1005A000194610467FEA655C1CBF0B46024650EABE
:1005B000013406BF52EA033591EA030F41F40021EA
:1005C00030BD00BF90F0000F04BF0021704730B570
:1005D0004FF4806404F132044FF000054FF0000145
:1005E00050E700BF90F0000F04BF0021704730B506
:1005F0004FF4806404F1320410F0004548BF4042DB
:100600004FF000013EE700BF42004FEAE2014FEA2F
:1006100031014FEA02701FBF12F07F4393F07F4F0A
:1006200081F06051704732F07F4208BF704793F00D
:100630007F4F04BF41F40021704730B54FF4607420
:1006400001F0004521F000411CE700BF50EA010223
:1006500008BF704730B54FF000050AE050EA0102CC
:1006600008BF704730B511F0004502D5404261EB3C
:1006700041014FF4806404F132045FEA915C3FF47D
:10068000D8AE4FF003025FEADC0C18BF03325FEA1A
:10069000DC0C18BF033202EBDC02C2F1200300FACB
:1006A00003FC20FA02F001FA03FE40EA0E0021FAF0
:1006B00002F11444BDE600BF4FF0FF3C06E000BF6E
:1006C0004FF0010C02E000BF4FF0010C4DF804CDDB
:1006D0004FEA410C7FEA6C5C4FEA430C18BF7FEA9B
:1006E0006C5C1BD001B050EA410C0CBF52EA430CC9
:1006F00091EA030F02BF90EA020F0020704710F149
:10070000000F91EA030F58BF994208BF90422CBFD7
:10071000D8176FEAE37040F0010070474FEA410CD0
:100720007FEA6C5C02D150EA013C07D14FEA430CEE
:100730007FEA6C5CD6D152EA033CD3D05DF8040B5F
:10074000704700BF8446104662468C461946634691
:1007500000E000BF01B5FFF7B7FF002848BF10F168
:10076000000F01BD4DF808EDFFF7F4FF0CBF0120AD
:1007700000205DF808FB00BF4DF808EDFFF7EAFF29
:1007800034BF012000205DF808FB00BF4DF808EDE4
:10079000FFF7E0FF94BF012000205DF808FB00BFD9
:1007A0004DF808EDFFF7CEFF94BF012000205DF863
:1007B00008FB00BF4DF808EDFFF7C4FF34BF012070
:1007C00000205DF808FB00BF4A0011D212F50012AC
:1007D00011D20DD56FF47873B3EB62520ED44FEA99
:1007E000C12343F0004343EA505323FA02F0704719
:1007F0004FF00000704750EA013002D14FF0FF3057
:1008000070474FF00000704753B94AB9002908BF3C
:1008100000281CBF4FF0FF314FF0FF3000F074B9DB
:10082000ADF1080C6DE904CE00F006F8DDF804E047
:10083000DDE9022304B070472DE9F047089D044626
:100840008E46002B4DD18A42944669D9B2FA82F283
:1008500052B101FA02F3C2F1200120FA01F10CFABF
:1008600002FC41EA030E94404FEA1C48210CBEFBF7
:10087000F8F61FFA8CF708FB16E341EA034306FB80
:1008800007F199420AD91CEB030306F1FF3080F00F
:100890001F81994240F21C81023E63445B1AA4B25C
:1008A000B3FBF8F008FB103344EA034400FB07F7FE
:1008B000A7420AD91CEB040400F1FF3380F00A813F
:1008C000A74240F207816444023840EA0640E41B34
:1008D00000261DB1D4400023C5E900433146BDE8E0
:1008E000F0878B4209D9002D00F0EF800026C5E982
:1008F000000130463146BDE8F087B3FA83F6002E9A
:100900004AD18B4202D3824200F2F980841A61EB11
:10091000030301209E46002DE0D0C5E9004EDDE72F
:1009200002B9FFDEB2FA82F2002A40F09280A1EB17
:100930000C014FEA1C471FFA8CFE0126200CB1FB6C
:10094000F7F307FB131140EA01410EFB03F0884265
:1009500008D91CEB010103F1FF3802D2884200F2F2
:10096000CB804346091AA4B2B1FBF7F007FB101184
:1009700044EA01440EFB00FEA64508D91CEB040422
:1009800000F1FF3102D2A64500F2BB800846A4EB7D
:100990000E0440EA03409CE7C6F12007B34022FA68
:1009A00007FC4CEA030C20FA07F401FA06F31C4397
:1009B000F9404FEA1C4900FA06F3B1FBF9F8200CA4
:1009C0001FFA8CFE09FB181140EA014108FB0EF0EA
:1009D000884202FA06F20BD91CEB010108F1FF3A3A
:1009E00080F08880884240F28580A8F10208614446
:1009F000091AA4B2B1FBF9F009FB101144EA014154
:100A000000FB0EFE8E4508D91CEB010100F1FF34FE
:100A10006CD28E456AD90238614440EA0840A0FB96
:100A20000294A1EB0E01A142C846A64656D353D06C
:100A30005DB1B3EB080261EB0E0101FA07F722FA90
:100A400006F3F1401F43C5E9007100263146BDE8B9
:100A5000F087C2F12003D8400CFA02FC21FA03F31C
:100A6000914001434FEA1C471FFA8CFEB3FBF7F09D
:100A700007FB10360B0C43EA064300FB0EF69E42C2
:100A800004FA02F408D91CEB030300F1FF382FD25B
:100A90009E422DD9023863449B1B89B2B3FBF7F603
:100AA00007FB163341EA034106FB0EF38B4208D9DC
:100AB0001CEB010106F1FF3816D28B4214D9023E1D
:100AC0006144C91A46EA004638E72E46284605E73B
:100AD0000646E3E61846F8E64B45A9D2B9EB02080C
:100AE00064EB0C0E0138A3E74646EAE7204694E79C
:100AF0004046D1E7D0467BE7023B614432E73046CF
:100B000009E76444023842E7704700BF844641EA7F
:100B1000000313F003036DD1403A41D351F8043B75
:100B200040F8043B51F8043B40F8043B51F8043BC7
:100B300040F8043B51F8043B40F8043B51F8043BB7
:100B400040F8043B51F8043B40F8043B51F8043BA7
:100B500040F8043B51F8043B40F8043B51F8043B97
:100B600040F8043B51F8043B40F8043B51F8043B87
:100B700040F8043B51F8043B40F8043B51F8043B77
:100B800040F8043B51F8043B40F8043B51F8043B67
:100B900040F8043B51F8043B40F8043B403ABDD2D6
:100BA000303211D351F8043B40F8043B51F8043B78
:100BB00040F8043B51F8043B40F8043B51F8043B37
:100BC00040F8043B103AEDD20C3205D351F8043B07
:100BD00040F8043B043AF9D2043208D0D2071CBFD3
:100BE00011F8013B00F8013B01D30B8803806046FC
:100BF000704700BF082A13D38B078DD010F0030372
:100C00008AD0C3F10403D21ADB071CBF11F8013BE1
:100C100000F8013B80D331F8023B20F8023B7BE730
:100C2000043AD9D3013A11F8013B00F8013BF9D25B
:100C30000B7803704B7843708B78837060467047F5
:100C400090F800F06DE9024520F007016FF0000C0C
:100C500010F0070491F820F040F049804FF00004B4
:100C60006FF00700D1E9002391F840F000F108008F
:100C700082FA4CF2A4FA8CF283FA4CF3A2FA8CF3C7
:100C80004BBBD1E9022382FA4CF200F10800A4FA2E
:100C90008CF283FA4CF3A2FA8CF3E3B9D1E9042382
:100CA00082FA4CF200F10800A4FA8CF283FA4CF3B9
:100CB000A2FA8CF37BB9D1E9062301F1200182FA73
:100CC0004CF200F10800A4FA8CF283FA4CF3A2FA79
:100CD0008CF3002BC6D0002A04BF04301A4612BA87
:100CE000B2FA82F2FDE8024500EBD2007047D1E98A
:100CF000002304F00305C4F100004FEAC50514F019
:100D0000040F91F840F00CFA05F562EA05021CBFE9
:100D100063EA050362464FF00004A9E70000000003
:100D200001F0FF01102A2BDB10F0070F08D010F89C
:100D3000013B013A8B422DD010F0070F42B3F6D1A0
:100D4000F0B441EA012141EA014122F007047FF0B9
:100D500000070023F0E80256083C85EA010586EA10
:100D6000010685FA47F5A3FA87F586FA47F6A5FA4C
:100D700087F68EB9EED1F0BC01F0FF0102F0070258
:100D800032B110F8013B013A83EA010313B1F8D103
:100D90000020704701387047002D06BF35460338E4
:100DA000073815F0010F07D1013015F4807F02BF1D
:100DB000013015F4C03F0130F0BC0138704700BF6E
:100DC00070B54FF0FF0C4CF4E06C1CEA11541DBFE1
:100DD0001CEA135594EA0C0F95EA0C0F00F0DEF8AC
:100DE0002C4481EA030621EA4C5123EA4C5350EA91
:100DF000013518BF52EA033541F4801143F48013E2
:100E000038D0A0FB02CE4FF00005E1FB02E506F072
:100E10000042E0FB03E54FF00006E1FB03569CF0C7
:100E2000000F18BF4EF0010EA4F1FF04B6F5007FCD
:100E300064F5407404D25FEA4E0E6D4146EB06063F
:100E400042EAC62141EA55514FEAC52040EA5E50C8
:100E50004FEACE2EB4F1FD0C88BFBCF5E06F1ED872
:100E6000BEF1004F08BF5FEA500E50F1000041EBA9
:100E7000045170BD06F0004646EA010140EA020056
:100E800081EA0301B4EB5C04C2BFD4EB0C0541EA78
:100E9000045170BD41F480114FF0000E013C00F38D
:100EA000AB8014F1360FDEBF002001F0004170BDB1
:100EB000C4F10004203C35DA0C341BDC04F11404CA
:100EC000C4F1200500FA05F320FA04F001FA05F256
:100ED00040EA020001F0004221F0004110EBD37023
:100EE00021FA04F642EB06015EEA430E08BF20EA4F
:100EF000D37070BDC4F10C04C4F1200500FA04F3F2
:100F000020FA05F001FA04F240EA020001F0004183
:100F100010EBD37041F100015EEA430E08BF20EAF6
:100F2000D37070BDC4F1200500FA05F24EEA020E3E
:100F300020FA04F301FA05F243EA020321FA04F06D
:100F400001F0004121FA04F220EA020000EBD37024
:100F50005EEA430E08BF20EAD37070BD94F0000F24
:100F60000FD101F00046400041EB010111F4801F58
:100F700008BF013CF7D041EA060195F0000F18BF09
:100F8000704703F00046520043EB030313F4801F45
:100F900008BF013DF7D043EA0603704794EA0C0FFF
:100FA0000CEA135518BF95EA0C0F0CD050EA410615
:100FB00018BF52EA4306D1D181EA030101F0004192
:100FC0004FF0000070BD50EA410606BF10461946BA
:100FD00052EA430619D094EA0C0F02D150EA0136C6
:100FE00013D195EA0C0F05D152EA03361CBF104607
:100FF00019460AD181EA030101F0004141F0FE41A6
:1010000041F470014FF0000070BD41F0FE4141F429
:10101000780170BD70B54FF0FF0C4CF4E06C1CEA29
:1010200011541DBF1CEA135594EA0C0F95EA0C0FDE
:1010300000F0A7F8A4EB050481EA030E52EA033599
:101040004FEA013100F088804FEA03334FF08055BA
:1010500045EA131343EA12634FEA022245EA1115E7
:1010600045EA10654FEA00260EF000419D4208BF98
:10107000964244F1FD0404F5407402D25B084FEA45
:101080003202B61A65EB03055B084FEA32024FF4F1
:1010900080104FF4002CB6EB020E75EB030E22BF4E
:1010A000B61A754640EA0C005B084FEA3202B6EB0E
:1010B000020E75EB030E22BFB61A754640EA5C00BD
:1010C0005B084FEA3202B6EB020E75EB030E22BF4D
:1010D000B61A754640EA9C005B084FEA3202B6EB4E
:1010E000020E75EB030E22BFB61A754640EADC000D
:1010F00055EA060E18D04FEA051545EA16754FEA6F
:1011000006164FEAC30343EA52734FEAC2025FEA8C
:101110001C1CC0D111F4801F0BD141EA00014FF01B
:1011200000004FF0004CB6E711F4801F04BF0143EC
:101130000020B4F1FD0C88BFBCF5E06F3FF6AFAE08
:10114000B5EB030C04BFB6EB020C5FEA500C50F198
:10115000000041EB045170BD0EF0004E4EEA11311B
:1011600014EB5C04C2BFD4EB0C0541EA045170BD22
:1011700041F480114FF0000E013C90E645EA060E66
:101180008DE60CEA135594EA0C0F08BF95EA0C0F94
:101190003FF43BAF94EA0C0F0AD150EA01347FF4DC
:1011A00034AF95EA0C0F7FF425AF104619462CE7B3
:1011B00095EA0C0F06D152EA03353FF4FDAE104616
:1011C000194622E750EA410618BF52EA43067FF467
:1011D000C5AE50EA41047FF40DAF52EA43057FF4F7
:1011E000EBAE12E74FEA410C7FEA6C5C02D150EAA9
:1011F000013C0AD14FEA430C7FEA6C5C02D152EA0F
:10120000033C02D14FF0000070474FF001007047DF
:101210004FEA410212F5001215D211D56FF478731E
:10122000B3EB625212D94FEAC12343F0004343EAC1
:10123000505311F0004F23FA02F018BF404270479C
:101240004FF00000704750EA013005D111F0004026
:1012500008BF6FF0004070474FF00000704700BFBC
:1012600000B583B01D4BD3F8D82042F00102C3F87B
:10127000D820D3F8D82002F001020092009AD3F8C7
:10128000D82042F00202C3F8D820D3F8D83003F0B7
:1012900002030193019B002205210B2003F058FD5E
:1012A0000B2003F08BFD002205210C2003F050FDE4
:1012B0000C2003F083FD002205212F2003F048FDC0
:1012C0002F2003F07BFD00220521382003F040FD94
:1012D000382003F073FD03B05DF804FB00440258AE
:1012E000F0B5B7B0002331933293339334933593F1
:1012F000364B1B680BB137B0F0BD0124334B1C607B
:10130000B822002102A811F0C7FD4FF0807200231F
:10131000CDE90223149402A806F0ACFE002851D1B6
:101320002B4BD3F8D42042F48052C3F8D420D3F806
:10133000D43003F480530193019B4FF63F03319364
:101340000227329700263396032534950C243594D2
:1013500031A9204805F0F2F81923319332973396DA
:101360003495359431A91C4805F0E8F810233193E1
:10137000329733963495359431A9184805F0DEF844
:1013800048F237133193329733963495359431A917
:10139000134805F0D3F84FF28373319332973396A5
:1013A0003495359431A90F4805F0C8F84CF2037311
:1013B0003193329733963495359431A90A4805F024
:1013C000BDF898E700F07AFCAAE700BFF810002407
:1013D0000044025800140258000802580000025845
:1013E0000018025800100258000C025800B589B0CD
:1013F00000230193029303930493059306930793A9
:101400001548164A02604360012282600822C260C9
:1014100010210161402141614FF480718161C361FC
:101420004FF4006101624362836202230193092148
:1014300002910621039104920422059206930793D8
:101440000DEB020107F026FD10B909B05DF804FBB1
:1014500000F034FCF9E700BFFC10002440410052CA
:1014600008B5FFF73DFF08BD2DE9F0419DF8187064
:10147000002A00F0868006460C4615464BB9494BBB
:10148000034493F8CE2093F8B4309A4224D2002338
:1014900032E0DFF81081B4220021404611F0FCFC5C
:1014A000552388F80030AA2388F801303E4906EB1E
:1014B00046028B185B7888F80330885C88F8040053
:1014C00008EB060191F8B420013A034408F8023011
:1014D000052381F8CE30DAE70146344811F03AFDB1
:1014E0004FE030498A1992F8CE201A4400208854DF
:1014F000013288540233DBB2AB4232D2002CF0D03E
:10150000012D1CD003F1010C2649881990F8CE203A
:101510001A4414F80CE001F802E0013214F803E078
:1015200001F802E090F8B4000138E25C14F80CC055
:10153000624411F800C05CFA82F20A54DAE71949F1
:10154000881990F8CE201A4414F803C001F802C09C
:1015500090F8B420013AE05C11F802C0604488546D
:10156000C8E7104B334493F8CE201544EDB283F80E
:10157000CE5037B90B4B334493F8B420531E9D42E1
:1015800001DABDE8F081074C2146D4F8EC00FFF702
:10159000BDFA264496F8B420D4F8EC301344C4F8CD
:1015A000EC30EEE73411002400000024708A0108BA
:1015B00070B5ACB005464B4BD3F8E820C3F8EC202F
:1015C000494E0024009401237278811D2046FFF7C4
:1015D0004BFF00940123327905F13A011846FFF7D9
:1015E00043FF00940123727E05F122010820FFF7DA
:1015F0003BFF0094012396F8222005F136010B20D1
:10160000FFF732FF00940123A42205F5D1710C20CD
:10161000FFF72AFF00942346022205F134010C2033
:10162000FFF722FF0094012396F82B2005F1080113
:101630000E20FFF719FF0094012396F8342005F1DE
:101640005A011120FFF710FF0094012396F837206C
:1016500005F1FE011220FFF707FF0094012396F821
:101660003A2005F11E011320FFF7FEFE009401232E
:1016700096F83D2005F13C011420FFF7F5FE2346C6
:1016800008E02CAA02EB430240F6B24122F8A41C67
:101690000133DBB2512BF4D9002400940123A4229E
:1016A00003A91820FFF7E0FE00942346022205F16B
:1016B00038011820FFF7D8FE48F61C13ADF810309B
:1016C000ADF80C3041F23763ADF81230ADF80E30A2
:1016D00000942346082203A91820FFF7C5FE2CB06A
:1016E00070BD00BF341100240000002408B50022A2
:1016F0004FF48051014805F02BF808BD000C02584A
:1017000008B501224FF48051014805F021F808BDC9
:10171000000C025838B5084B1B7803B138BD04469D
:101720000D46FFF7E3FF044B01221A702A462146BB
:10173000024807F0F7FEF1E730110024B824002436
:1017400008B50A460146024807F0D0FF08BD00BFB1
:101750003024002408B5054B834200D008BDFFF7B4
:10176000CFFF034B00221A70F8E700BFB824002413
:101770003011002408B5044B834200D008BD034952
:1017800003480CF034FCF9E730240024EC38002442
:10179000A83F002408B54FF47A700FF0F5F9012244
:1017A0004FF40071054804F0D3FF8021044804F091
:1017B000D5FF64200FF0E8F9F7E700BF00180258E2
:1017C000000C025808B50AF089FD0AF0B3FE0120AA
:1017D0000FF0DAF9F9E708B503F00CFA00F0D2F9E6
:1017E00000F0E2F901200FF0CFF9F9E708B500F0B9
:1017F0004FFB01F0DFF9FCE708B5044B186810F067
:10180000A9FC01200FF0C0F9F7E700BF2C1200245B
:1018100008B5154A042110200FF0C4F9134B1860C5
:10182000134A002113480FF051F9134B1860134A63
:10183000002113480FF04AF9124B1860124A002198
:1018400012480FF043F9124B1860124A0021124857
:101850000FF03CF9114B1860114A002111480FF0AC
:1018600035F9114B186008BDE48A010828120024DC
:101870008C8B0108951700083C120024448B01084A
:10188000C517000834120024688B0108D717000818
:1018900038120024208B0108ED17000830120024B4
:1018A000FC8A0108F91700082C1200242DE9F04FDA
:1018B0008FB0002409940A940B940C940D946D4BF2
:1018C000D3F8E02042F01002C3F8E020D3F8E02083
:1018D00002F010020192019AD3F8E02042F02002B7
:1018E000C3F8E020D3F8E02002F020020292029A2E
:1018F000D3F8E02042F08002C3F8E020D3F8E020E3
:1019000002F080020392039AD3F8E02042F004022E
:10191000C3F8E020D3F8E02002F004020492049A15
:10192000D3F8E02042F00102C3F8E020D3F8E02031
:1019300002F001020592059AD3F8E02042F040023D
:10194000C3F8E020D3F8E02002F040020692069AA5
:10195000D3F8E02042F00202C3F8E020D3F8E02000
:1019600002F002020792079AD3F8E02042F0080240
:10197000C3F8E020D3F8E03003F008030893089B95
:10198000224602213C4804F0E3FEDFF8F4902246B0
:101990004FF40061484604F0DBFE384E224643F225
:1019A0009801304604F0D4FEDFF8D88022464FF488
:1019B000C161404604F0CCFE082709974FF4041B90
:1019C000CDF828B001250B9509A9484604F0B6FDCD
:1019D0004FF0020ACDF824A00A950B940C9409A9A3
:1019E000254804F0ABFD4FF4006309930A950B956D
:1019F000CDF830A009A9484604F0A0FD43F29003B9
:101A000009930A950B940C9409A9304604F096FDAD
:101A10004FF4C16309930A950B940C9409A94046AD
:101A200004F08CFD04230993CDF828B00B9509A987
:101A3000304604F083FD09970A950B9403230C9319
:101A400009A9304604F07AFD4FF4405309930A94F3
:101A50000B9409A9404604F071FD2246072138463F
:101A600003F076F922460521092003F071F90FB041
:101A7000BDE8F08F0044025800080258000C0258DC
:101A8000001002580018025800B587B0114BD3F867
:101A9000E02042F01002C3F8E020D3F8E03003F079
:101AA00010030093009B082301934FF40413029347
:101AB0000123039301A9084804F040FD00220621F8
:101AC000092003F045F9092003F086F907B05DF815
:101AD00004FB00BF004402580010025800B587B054
:101AE000114BD3F8E02042F00402C3F8E020D3F811
:101AF000E03003F004030093009B4FF40053019384
:101B00004FF4041302930123039301A9074804F03F
:101B100015FD00220721282003F01AF9282003F0E0
:101B20005BF907B05DF804FB004402580008025856
:101B300000B587B0114BD3F8E02042F00802C3F89B
:101B4000E020D3F8E03003F008030093009B042367
:101B500001934FF4041302930123039301A908484E
:101B600004F0ECFC00220721082003F0F1F8082023
:101B700003F032F907B05DF804FB00BF00440258DF
:101B8000000C025810B5064CBA2020800FF0D4FA91
:101B9000044B186022885200002111F07DF910BD1D
:101BA000441200244012002410B582B04FF4427059
:101BB00002F0B0FA1C2817D8DFE800F00F1616164E
:101BC00016161616161616161616161616161618B3
:101BD00016161621161616165D00202341F6BB7246
:101BE0000121002001F0D6F902B010BD254B1A8862
:101BF0002549002001F082FA244B1870F4E74FF4D5
:101C0000027002F087FA10F0010F16D1002002F0E6
:101C100092FB1F4BA3F8000808BB1E4B5B88002BF0
:101C2000E2D11D4A1388591C1180632BDCD900F0C6
:101C30006DF9194B00221A80D6E71349CB78114A67
:101C40001288019200938B784A780978134811F032
:101C500081F901214FF4027002F08EFAD6E71C469A
:101C600002461946002001F05DFB204600F0C6FD4B
:101C700000F04CF9B8E7002001F050F9084811F0E5
:101C8000CBF9B1E754000024500000244A1A002484
:101C900048120024301F002446120024B08B010893
:101CA000DC8B010808B50268034B9A4200D008BDDE
:101CB00003F016F8FBE700BF0008004072B6FEE72D
:101CC00000B59DB04C22002109A811F0E5F82022B2
:101CD000002101A811F0E0F8022005F0EBFA002342
:101CE0000093214B9A6922F440429A619B6903F464
:101CF00040430093009B1C4B9B6913F4005FFAD098
:101D0000012209924FF480330A9302231293139312
:101D100005211491602115911692042217921893AF
:101D20000823199300231A931B9309A805F0ECFAD2
:101D3000A8B93F23019303210291002303930823B1
:101D400004934023059306934FF48062079208930F
:101D500001A805F0C9FE20B91DB05DF804FBFFF72E
:101D6000ADFFFFF7ABFF00BF0048025800B5AFB0B2
:101D7000B8220021684611F08FF84FF480520023FA
:101D8000CDE9002305230A9332230B930A230C93F6
:101D90000D9302230E934FF400630F934FF40053FF
:101DA0001793684606F066F910B92FB05DF804FB8A
:101DB000FFF784FF08B502F065FFFFF781FFFFF72B
:101DC000D5FFFFF773FDFFF74BFA00F031FF01F08D
:101DD00017FB01F079FEFFF709FB01F041FB01F071
:101DE00023FE01F063FB01F007FF01F071F80CF036
:101DF00009FC01224FF40051084804F0A9FC01221B
:101E00000821074804F0A4FC064811F005F90EF07B
:101E10002FFEFFF7FDFC0EF03DFEFEE7000C025822
:101E200000180258F08B01084FF0000C944510D2B6
:101E300010B411F80C304340DBB2064C54F8233098
:101E400083EA10200CF1010C9445F2D35DF8044BA9
:101E5000704770474C1A002400200EE052080133EE
:101E6000072B06D812F0010FF8D0074981EA520279
:101E7000F5E7064B43F820200130FF2802D8024640
:101E80000023EDE7012070472083B8ED4C1A0024B1
:101E900010B5FFF7E1FF4FF04043174A1360174AB0
:101EA0001360002301E00133DBB2192B14D803EBDC
:101EB0004302134911444A780632D2B211481844F9
:101EC00080F8B42089780029EDD00E49B1F8F000EF
:101ED0000244A1F8F020E6E70A4CB4F8F0000FF055
:101EE0002BF9C4F8E800B4F8F020002110F0D4FF7A
:101EF000054B02221A8010BD281F00242C1F00242D
:101F00000000002434110024A020002470B5124DDC
:101F10002C6866232380022666805823A380B02283
:101F20000E49A01DFEF7F2FD6523A4F8B630A4F813
:101F3000B8605C23A4F8BA30B822094904F1BC00A7
:101F4000FEF7E4FD074B1A88520092B22968002080
:101F500001F054F970BD00BF40120024A0200024FD
:101F60006C1E00244412002408B5044BB3F8F01092
:101F7000D3F8E800FFF7CEFB08BD00BF3411002402
:101F800070B582B0234B4FF040421A60034670B1E7
:101F9000214A127982420AD349B11F4A02EB400218
:101FA000D2888A4203D301224FF0404C13E01A48F2
:101FB00000EB43020091D2880179184810F0CAFF63
:101FC00002B070BD02F11004134800EB84004068B9
:101FD00084440132D2B290B29842F3D34C1EB4265C
:101FE00006FB04F404346444012500952B46A62224
:101FF000A11C1820FFF738FA00950023082204F1ED
:10200000AC011820FFF730FA31460548FFF782FB94
:10201000D6E700BF281F0024301F0024FC8B0108D6
:1020200034110024B0F800C06146012301E00133FF
:10203000DBB24F2B08D830F81320624500D9944604
:102040008A42F4D21146F2E70D4B634441F2221268
:1020500093420FDD9AB2A1F6B24041F222139842A8
:102060000BDD83B207498A70120ACA700B701B0A13
:102070004B70704741F22312EDE741F22313F1E771
:102080001794FFFF4C1E002400B54FF04042134B45
:102090001A600123944608E003F1100E104A02EB87
:1020A0008E02526894440133DBB20D4A12799A428F
:1020B000F2D80138B42303FB00F00430844451B15A
:1020C0000CF1A80C9CF800309CF8010000EB0320F8
:1020D00080B25DF804FB0CF1AA0CF3E72C1F00247E
:1020E000301F002400B54FF040420F4B1A6001230F
:1020F000944608E003F1100E0C4A02EB8E0252687F
:1021000094440133DBB2094A12799A42F2D8013879
:10211000B42303FB00F0043084448CF8A610090AB1
:102120008CF8A7105DF804FB2C1F0024301F00243E
:102130002DE9F0472DED028B04460F46B2F1000A5F
:1021400007DCBAF1000F1DDBDFED3B8A0134A4B2DE
:1021500037E00021FFF798FF08EE100AB8EE488A32
:1021600001213846FFF790FF07EE900AF8EE677AF4
:1021700077EEC87A3B1B07EE103AB8EEC77AC7EE87
:10218000878AE3E70121FFF77FFF08EE100AB8EE28
:10219000488A00213846FFF777FF07EE900AF8EEED
:1021A000677A78EE677A3B1B07EE103AB8EEC77A8B
:1021B000C7EE878ACAE729462046FFF793FF013416
:1021C000A4B2BC4233D807EE90AAF8EEE77A67EEE5
:1021D000A87A38EE278A5046FEF704FA0022174BF9
:1021E000FEF7EEFD8046894618EE100AFEF70CFA5F
:1021F00042464B46FEF7AAF8FEF7E6FA85B2012101
:102200002046FFF741FF064600212046FFF73CFF2E
:10221000854294BF00230123B54238BF43F0010338
:10222000002BC8D02A462146054810F093FEBDEC8D
:10223000028BBDE8F08700BF000000000000E03F17
:10224000288C0108000000002DE9F04F2DED048BD3
:1022500087B002AF78600D46B0EE409A91461E46B8
:1022600093000733DB086A46A2EBC3039D460DF1DA
:1022700008080C464BE0002E05DC002E0CDB00238A
:10228000C8F8003041E000212046FFF7FDFE08EECF
:10229000900AF8EE688AF2E701212046FFF7F4FE83
:1022A00008EE900AF8EE688AE9E700212046FFF779
:1022B000EBFE07EE900AF8EE677A77EEE87A631B9A
:1022C00007EE103AB8EEC77AC7EE876A08EB8403C8
:1022D000C3ED006AA24608EB840393ED008A18EE72
:1022E000100AFEF791F942A3D3E90023FEF744FA5E
:1022F00058BB79EE487A17EE900AFEF785F93EA3AF
:10230000D3E90023FEF756FA20BB0134A4B24C45B2
:102310005DD8AC42AFD0002EC7DC002EDADA012146
:102320002046FFF7B1FE07EE900AF8EE677A78EEE6
:10233000E77A631B07EE103AB8EEC77AC7EE876AF2
:1023400008EB8403C3ED006AC4E77A6814800123B4
:1023500013723FE00135ADB232E008EB8A0B9BED22
:10236000007A07EE906AF8EEE77A67EE877A78EE01
:10237000A78A3046FEF736F900221B4BFEF720FDF8
:10238000C7E9020118EE900AFEF73EF9D7E90223E9
:10239000FDF7DCFFFEF718FA1FFA80F949462846D8
:1023A000FFF7A0FEDBF80000FEF72EF902460B4611
:1023B000CDF8049000950D4810F0CCFD0135ADB27C
:1023C000AC42CAD27A6814800223137202E003235B
:1023D0007A68137278681437BD46BDEC048BBDE88B
:1023E000F08F00BFAFF300800000E03F388C0108A1
:1023F0008DEDB5A0F7C6B0BE8DEDB5A0F7C6B03E69
:102400002DE9F0472DED028B00AF06460D469146B3
:10241000984693000733DB086A46A2EBC3039D4648
:10242000EA460C465BE0B8F1000F09DCB8F1000F9A
:1024300018DB002373606A1C3280CAF800304CE05D
:1024400000212046FFF720FE08EE900AF8EE688A89
:1024500018EE900AFEF7D8F802460B463C4810F0FA
:1024600079FDE6E701212046FFF70EFE08EE900A0F
:10247000F8EE688A18EE900AFEF7C6F802460B4698
:10248000334810F067FDD4E701212046FFF7FCFD3B
:1024900007EE900AF8EE677A77EEE87A631B07EEAC
:1024A000103AF8EEC76A87EEA67A0AEB830383ED4B
:1024B000007AA4EB050C0AEB8C0C9CED008AD6ED9F
:1024C000017A78EE677A17EE900AFEF79DF81EA360
:1024D000D3E90023FEF76EF908BB0134A4B24C45E2
:1024E0002BD8AC429FD0B8F1000FCDDCB8F1000F73
:1024F000DFDA00212046FFF7C7FD07EE900AF8EE6D
:10250000677A78EEE77A631B07EE103AF8EEC76A4F
:1025100087EEA67A0AEB830383ED007AC9E786ED9E
:10252000018A348018EE100AFEF76EF802460B4658
:102530002146084810F00EFDCFE73046BD46BDEC01
:10254000028BBDE8F08700BF8DEDB5A0F7C6B03EA9
:10255000548C0108648C010870B586B005460C46A1
:10256000244B1A7903EB4203DE88ADF800004FF0EC
:10257000010C11E0204810F0EDFC2346BDF80C20C2
:102580009DED040ABDF800106846FFF75DFE9DF85A
:1025900008C0BCF1010F12D0BCF1020FEAD0BCF1AF
:1025A000030F0FD0BCF1010FF6D1144810F0D2FC8C
:1025B00023463246294603A8FFF722FFDAE7BDF893
:1025C0000060E9E70E4810F0C5FCBDF80C5022464B
:1025D0002946BDF80000FFF7ABFD0498FEF714F89C
:1025E00002460B462946074810F0B4FC284606B0C0
:1025F00070BD00BF301F0024808C0108788C01085A
:10260000888C0108908C01082DE9F04F85B00746B1
:102610004FF0000BCDF808B0CDF80CB04A4B1A794A
:1026200003EB4203B3F806A00121FFF72DFD80461E
:1026300059463846FFF728FD8146009043463A4602
:102640005146424810F086FC3C4644E0029BBB42A7
:1026500006D349463846FFF745FD0137BFB2F5E7D7
:10266000CDF800901E462A462146394810F072FCEB
:1026700001213046FFF770FF04460121FFF704FDFA
:10268000344BD8802146344810F064FC58E0414671
:102690003846FFF727FD0137BFB2BB45F7D2CDF86B
:1026A00000805B46324621462C4810F053FC4FF028
:1026B000FF315846FFF750FF04460021FFF7E4FCC6
:1026C000244BD8802146244810F044FC38E054457F
:1026D0002BD00134A4B2544531D801212046FFF754
:1026E000D3FC054600212046FFF7CEFC0646A9454F
:1026F000ACD38045D1D8A84501D2A346A846B14560
:10270000E5D90294B146E2E7124BD9882846FFF793
:10271000E9FC0135ADB2554509D80E4BDB88002BDD
:10272000F2D10C4BA3F80680EEE73D46F3E7094BE8
:10273000D9880B4810F00EFCCDF80CA0C9E7039C1B
:10274000204605B0BDE8F08F301F0024A48C01089E
:10275000C48C01084C1E0024088D0108188D010846
:102760005C8D010870B5A8B04FF040441F4B1C6051
:102770001F4B187903EB4003DE881E4B00221A60C2
:102780005A60012308E003F11001194A02EB8102AB
:10279000526814440133DBB29842F4D80434012562
:1027A00017E0A022211D6846FEF7B0F96846FFF742
:1027B00039FC104BDA7884F8A8209A7884F8A9209C
:1027C0005A7884F8AA201B7884F8AB30B4340135E9
:1027D000ADB2B542E5D90120FFF716FF8642FBD125
:1027E000054810F019FC28B070BD00BF2C1F002454
:1027F000301F00244C1E0024948D0108F8B5B0F859
:10280000005835B304464278037803EB02239BB2A9
:10281000A7490B80C078A27802EB00224A80607939
:10282000227902EB002292B28A80E679A07900EB4D
:10283000062080B20881022B0CD0012B00F05881B9
:102840009B4A00231360536093609A4A136053605D
:102850009360F8BD637A217A01EB032189B2944E2B
:10286000F180E77AA37A03EB07239BB27381012BF4
:1028700017D0A5F11406B6B2B24216D18E4E3688E4
:10288000B3421AD98C4E3380994223D313B3022812
:1028900028D18A490E68012B2CD017464FF0000C26
:1028A00083E0854E00273780E3E7854BF12199804F
:1028B0002946844810F04EFBCBE7814AF5219180F0
:1028C00032461946804810F045FB7B4B1A88784BFE
:1028D0005A81BEE77A4AF22090801A467B4810F06F
:1028E00039FBB6E7764BF3229A800146784810F020
:1028F00031FBAEE72946774810F02CFB6C4B9A88E9
:10290000043292B21746002313E0A3F1A5007249E6
:1029100081FB001CC117C1EB6C114FF0B00C0CFB1C
:10292000110109BB7170B1700237BFB203360133B8
:102930009BB293421AD203F10C01B646615C0EF8C9
:10294000011B581F644981FB001CC117C1EB6C11AE
:102950004FF0B00C0CFB11010029D6D17170B17091
:102960000237BFB20336E2E77646E0E75B4E4FF050
:10297000FF30306004F10C01FFF756FA306038E0A8
:10298000ACF1A101544880FB0130CB17C3EB6013BD
:10299000B02000FB13131BBB7370B3700237BFB2C0
:1029A00003360CF1010C1FFA8CFC62451AD90CF1AC
:1029B0001003B646E35C0EF8013B0CF1FF314648CC
:1029C00080FB0130CB17C3EB6013B02000FB131367
:1029D000002BD5D17370B3700237BFB20336E0E776
:1029E0007646DEE73D4E04F110013068FFF71CFA31
:1029F0003060324A13683B4413602D4B5A89DB88A0
:102A00009A4206D02A4B5A892D4B5A8000229A802E
:102A100016E7294B00221A806B1E9BB29A1EA25CFD
:102A2000D91E615C01EB022189B2224A1181E05C6E
:102A3000013BE35C03EB00239BB253812748026810
:102A4000D243026003EB01418A4225D1A17B244A93
:102A50001171607B237B03EB00239BB202EB4100EF
:102A6000C380B42000FB03F3043301F1100002EB38
:102A7000800253601D2916D8194B197903EB4100C8
:102A800001F1100203EB8202C3885268154810F06E
:102A900061FAFFF767FEB5E7094BF420988012480A
:102AA00010F058FAD5E6114810F0B6FAE4E700BF86
:102AB000601E0024541E0024241F0024281F00240C
:102AC000A0200024B08D0108E48D0108148E0108B7
:102AD0004C8E0108708E0108E9A28B2E580000244C
:102AE000301F0024F48E0108988E0108C88E01085A
:102AF0002946274810F02EFA264B9A88A5F10A039A
:102B00009A422BD1234B198902292FD1224E4FF003
:102B1000FF303060A11DFFF787F93060C24332609B
:102B20006B1E9BB2991E615CD81E255C05EB0125CE
:102B3000ADB21A490D81E05C013BE35C03EB00237D
:102B40009BB24B8103EB0545AA4216D0144BF421EE
:102B500099802946134810F0FDF97AE6104BF121CF
:102B600099802946104810F0F5F972E60C4BF322D3
:102B70009A800E4810F0EEF96BE62046FEF718FD3D
:102B8000FFF7F2F929460A4810F0E4F958E600BFC9
:102B9000288F0108601E002458000024541E0024C1
:102BA000A0200024448F0108B08D01084C8E01083C
:102BB0006C8F010870B51B4B1B88022B03D064205F
:102BC0000DF0E2FF70BD174B5B88022BF7D1164862
:102BD00010F022FA4FF04046144B1E6001240DE025
:102BE00004F110030F4D05EB83056A6800213046A0
:102BF00010F052F96B681E440134E4B2094B1B79A2
:102C0000A342EDD2074C002525711E2632462946E7
:102C1000A01D10F041F93246294604F1440010F09D
:102C20003BF9CCE7301F0024788F0108281F0024CF
:102C300000B587B00023009301930293039304939C
:102C400005931948194A02600A2242608360C360F2
:102C500013220261052242618361C3610362012282
:102C600042624FF0804282624FF08052C262036340
:102C7000082242638363C36304F020F870B9012320
:102C800000934FF00113039341F2883269460648DE
:102C900004F098F828B907B05DF804FBFFF70EF8C8
:102CA000EDE7FFF70BF8F6E7502100240050005243
:102CB00030B5B9B004460021339134913591369145
:102CC0003791B82204A810F0E7F822682F4B9A42F7
:102CD00001D039B030BD4FF000720023CDE904239C
:102CE00005230693402207920893099304230A932D
:102CF00080230B932023179304A805F0BBF9002829
:102D000041D1234BD3F8D42042F40012C3F8D4208D
:102D1000D3F8D42002F400120192019AD3F8D420FF
:102D200042F48042C3F8D420D3F8D42002F4804285
:102D30000292029AD3F8E02042F02002C3F8E02089
:102D4000D3F8E03003F020030393039B4FF4707338
:102D50003393022434940023359336940A23379313
:102D60000C4D33A9284603F0E9FB4FF480633393FD
:102D700034940123359336940923379333A9284695
:102D800003F0DCFBA5E7FEF799FFBAE7005000521D
:102D9000004402580014025810B596B00446502260
:102DA000002102A810F078F86B2304930123059307
:102DB0004FF4807309934FF480530A9308944FF0B3
:102DC00040731093042311930823139341F2883224
:102DD0000DEB03010F4803F05DFE48B941F2883264
:102DE00001A90C4803F004FF20B1FEF767FF01E0E2
:102DF000FEF764FF9DF807009DF806301B0443EAC8
:102E000000639DF8050043EA00239DF80400184381
:102E100016B010BD5021002430B597B005460C46C1
:102E20005022002102A810F037F88DF80440230A40
:102E30008DF80530230C8DF80630240E8DF80740F0
:102E400062230493012305934FF4807309934FF495
:102E500080530A9308954FF0407310930423119305
:102E600041F2883202A90A4803F014FE48B941F23F
:102E7000883201A9064803F06EFE38B1FEF71EFF46
:102E800004E0044810F0C8F8FEF718FF17B030BD92
:102E9000502100248C8F010800B585B018B101289D
:102EA00011D0002000E010200091019002920393C5
:102EB0004FF6FF726946054806F014F800B101208C
:102EC00005B05DF804FB0820EEE700BFFC1000240D
:102ED00008B50023012211461846FFF7DDFF012047
:102EE00001F010FF0023012202211846FFF7D4FF52
:102EF0000023082203211846FFF7CEFF4FF4087382
:102F0000012204210020FFF7C7FF40F2963102485A
:102F100006F009F808BD00BFFC100024082802D9FB
:102F20004FF0FF30704770B5054684000134E4006F
:102F300004F580761021304601F01EF9304601F08C
:102F4000E9F80028FAD11F2104F5007001F014F906
:102F50000123AB40DB431BB20A490A881A400A80AE
:102F6000094A11880B4013800023084A22F81530C3
:102F7000074A535504F5407001F0CCF80028F9D108
:102F8000012070BDAC210024AE210024B821002412
:102F9000B0210024082800F297802DE9F04182B08A
:102FA00005460F4690461E46012966D04BB2002BBF
:102FB00000F08D808B1EDBB2022B00F28B8016F0AE
:102FC000040F40F08A801EB1012F63D0022F67D01A
:102FD0002846FFF7A3FFAC000134E40026F00F0100
:102FE00049B23943C9B2204601F0C6F8B8F1000F22
:102FF0000AD13D4AB2F8008008F101039BB2138068
:103000004FF6F07293425AD04FEA182104F58060CF
:1030100001F0B2F85FFA88F104F5A06001F0ACF8B5
:1030200004F580770121384601F0A6F8384601F012
:1030300071F80028FAD10122AA40D24312B22B49DA
:103040000B8813401BB20B8006F00106AE401E43F6
:103050000E80274B19880A401A800023254A22F83F
:103060001530254A535504F5407001F053F80028F7
:10307000F9D068B202B0BDE8F08104220DEB020184
:103080004FF4706001F0ACF8019B002B97D16FF00A
:103090000200EFE716F0210F9AD16FF00500E9E783
:1030A00016F0200F02D016F0800F19D016F0100F76
:1030B0008ED016F0800F8BD16FF00500DAE70A4B47
:1030C0004FF440421A809FE74FF0FF3070476FF097
:1030D0000400CFE76FF00400CCE76FF00500C9E70C
:1030E0006FF00500C6E700BF5C000024AC2100249F
:1030F000AE210024B8210024B0210024082868D87B
:103100002DE9F04107460E46904684000134E40064
:10311000204600F0FFFF00F00F0001285CD104F50D
:103120004075284600F0F6FF132858D1337872789E
:1031300002EB0322B37803EB0222F37803EB0223C2
:10314000013B13F1030F4DD8B8F1000F4DD004220D
:10315000314604F5406001F081F84FEA182104F58A
:10316000805001F009F85FFA88F104F5885001F009
:1031700003F804F580760421304600F0FDFF304668
:1031800000F0C8FF0028FAD11B4B188840FA07F757
:1031900017F0010F2CD1284600F0BCFF172816D0DD
:1031A00004F50076304600F0B5FF10F0080F07D1A7
:1031B000284600F0AFFF0028EDD16FF0030018E0C3
:1031C0000821304600F0D8FF6FF00C0011E001201C
:1031D0000FE04FF0FF3070476FF0040009E06FF030
:1031E000020006E06FF00B0003E06FF00A0000E061
:1031F0000020BDE8F08100BFAC210024082800F2C7
:1032000081802DE9F8430546894614468700013739
:10321000FF00384600F07EFF00F00F00012874D157
:10322000002C75D007F54078404600F073FF172852
:1032300018BF1C286FD1394B1B882B4113F0010F8D
:1032400019D007F50076304600F064FF10F0100F3B
:1032500005D110F0080F19D10020BDE8F883102126
:10326000304600F089FF012303FA05F22B490B8851
:1032700023EA02030B8007F5F85000F04BFF86B2FB
:10328000B602B6B2B4420FD826460DE02846FFF784
:1032900045FE6FF00C00E0E72846FFF73FFE6FF0B9
:1032A0000600DAE7B44214D2284601F015F80446C5
:1032B000404600F02FFF172818BF1C28ECD1184BF0
:1032C0001B882B4113F0010FECD0B442EAD200204E
:1032D000C3E732464946284601F05CF807F5807797
:1032E0002021384600F048FF384600F013FF002840
:1032F000FAD1012303FA05F5084B1A8815431D80FE
:103300003046AAE74FF0FF3070476FF00400A4E7A3
:103310006FF00D00A1E76FF006009EE7AE210024DC
:10332000AC210024082860D82DE9F84305468846DA
:10333000144686000136F600304600F0EBFE00F041
:103340000F00012854D1002C55D006F5F05000F0A4
:10335000E1FE87B2BF02BFB2BC420ED827460CE0E6
:103360002846FFF7DBFD6FF006003CE02846FFF73C
:10337000D5FD6FF0060036E00CBB284600F0DBFF01
:10338000044606F5407000F0C5FE17280DD01C2835
:10339000ECD1A4B9284600F09FFF814606F5F8500D
:1033A00000F0B8FEB9EB802FDAD0144B1B882B410C
:1033B00013F0010FE0D0002CDED1002013E0BC425E
:1033C00000D33C4622464146284601F012F806F555
:1033D00080764021304600F0CFFE304600F09AFE65
:1033E0000028FAD12046BDE8F8834FF0FF3070473F
:1033F0006FF00400F7E76FF00D00F4E7AC21002454
:1034000008B51548154B03604FF480034360002353
:1034100083600722C2604FF0007202614FF0807239
:1034200042614FF080628261C361036243628362E2
:10343000C3624FF0804242638363C36303644364A7
:103440008364C36403654365836505F019FE00B9B1
:1034500008BDFEF733FCFBE7A82300240030014041
:1034600008B51048104B03600023436083600722B7
:10347000C260036143618361036243628362C3622A
:1034800043638363C363036443648364C364036506
:103490004365836505F0F4FD00B908BDFEF70EFC39
:1034A000FBE700BF302400240038004008B5134873
:1034B000134B03604FF480034360002383600722B3
:1034C000C260036143614FF080628261C361036245
:1034D00043628362C3624FF0804242638363C3638B
:1034E000036443648364C36403654365836505F0D3
:1034F000C7FD00B908BDFEF7E1FBFBE7B8240024D7
:10350000003C0040F0B58DB0002307930893099369
:103510000A930B930368844A934209D00446834A72
:10352000934229D0824A934200F08C800DB0F0BDC6
:10353000804BD3F8F02042F48052C3F8F020D3F847
:10354000F02002F480520192019AD3F8E02042F078
:103550000102C3F8E020D3F8E03003F00103029346
:10356000029BE02307930223089305230B9307A9EB
:10357000714802F0E3FFD9E76E4BD3F8E82042F43C
:103580008042C3F8E820D3F8E82002F48042039296
:10359000039AD3F8E02042F00202C3F8E020D3F807
:1035A000E03003F002030493049B4FF4704307934D
:1035B0000223089305230B9307A9604802F0BEFF7E
:1035C0005F48604B03602723436000238360C36030
:1035D0004FF480620261436183614FF48072C26183
:1035E0004FF480320262436201F01CFE20BB544B58
:1035F000E3679C635448554B036028234360402392
:1036000083600023C3604FF4806202614361836181
:10361000C3614FF480320262436201F003FE70B96D
:10362000494BA3679C6300220521242001F090FBF5
:10363000242001F0C3FB79E7FEF740FBD7E7FEF754
:103640003DFBEDE73B4BD3F8E82042F40042C3F8E2
:10365000E820D3F8E82002F400420592059AD3F856
:10366000E02042F00402C3F8E020D3F8E03003F099
:1036700004030693069B4FF4A05307930225089575
:103680000123099306270B97314E07A9304602F014
:1036900055FF4FF4006307930895002509950A9597
:1036A0000B9707A9304602F049FF2A482A4B0360CE
:1036B0003D2343608560C5604FF4806303614561CD
:1036C0008561C5614FF480330362456201F0AAFD54
:1036D00020BB204BE3679C632048214B03603E23C3
:1036E0004360402383600023C3604FF48062026123
:1036F00043618361C3614FF480320262436201F02F
:1037000091FD70B9154BA3679C63002205213320FE
:1037100001F01EFB332001F051FB07E7FEF7CEFA64
:10372000D7E7FEF7CBFAEDE7003001400038004064
:10373000003C0040004402580000025800040258B7
:10374000C82100242800024040220024100002402A
:1037500000080258B8220024B80002403023002498
:103760001004024000B583B00A4BD3F8F42042F0B5
:103770000202C3F8F420D3F8F43003F002030193FB
:10378000019B00220F216FF0010001F0E1FA03B06C
:103790005DF804FB004402580F2801D9012070474E
:1037A00010B58AB00446002201461E2001F0D0FA6E
:1037B0001E2001F003FB1A4B1C601A4BD3F8E820C3
:1037C00042F00402C3F8E820D3F8E83003F0040321
:1037D0000093009B01A902A804F016FB079BBBB94C
:1037E00004F0EEFA03461048A0FB03239B0C013BB8
:1037F0000E480F4A026040F2E732C2604360002385
:103800000361836006F0B8FB30B101200AB010BD3F
:1038100004F0D6FA4300E6E7044806F0FBF9F5E7C2
:10382000AC0000240044025883DE1B4340250024E2
:1038300000080040FEE7FEE7FEE7FEE7FEE7704710
:1038400008B5024802F0DCFA08BD00BF402200249F
:1038500008B5024802F0D4FA08BD00BFC821002410
:1038600008B5024806F02AFA08BD00BF402500242A
:1038700008B5024806F07CF808BD00BF30240024DB
:1038800008B5024806F0FAFC08BD00BFE835002480
:1038900008B5024802F0B4FA08BD00BFB8220024FF
:1038A00008B5024806F064F808BD00BFB82400243B
:1038B00008B5024802F0A4FA08BD00BF3023002476
:1038C0000120704708B50EF0FDFF162303604FF08E
:1038D000FF3008BD08B54FF0FF31FFF7F3FFFEE7FB
:1038E00070B50C461646002506E0AFF30080214671
:1038F00001F8010B01350C46B542F6DB304670BDD0
:1039000070B50C461646002504E014F8010B00F0D3
:1039100063F90135B542F8DB304670BD4FF0FF303A
:1039200070474FF400534B600020704701207047F0
:103930000020704710B503460C4A0D490D48006839
:1039400040B10C4800680344521A934206D8094A11
:10395000136010BD0748084C0460F2E70EF0B2FF98
:103960000C2303604FF0FF30F3E700BF0000052495
:1039700000F000008C250024D00F0324224AD2F846
:10398000883043F47003C2F88830204B1B6803F082
:103990000F03062B06D81D4A136823F00F0343F0CC
:1039A000070313601A4B1A6842F001021A600022E2
:1039B0001A611968174A0A401A60144B1B6813F001
:1039C000080F06D0114A136823F00F0343F00703D2
:1039D00013600F4B00229A61DA611A620E499962F4
:1039E0000E49D9620E4919635A639963DA631964FF
:1039F0005A64196821F4802119601A66094B43F250
:103A0000D2021A60704700BF00ED00E000200052B3
:103A1000004402587FEDF6EA000202020000FF01B6
:103A2000800201010040005200B589B000230493D8
:103A300005930693079301930293039315484FF060
:103A400080420260EF224260836040F2E732C2604F
:103A500003618023836106F08FFA90B94FF480539D
:103A6000049304A90B4806F0C5FA68B90023019332
:103A7000039301A9074806F059FB40B909B05DF866
:103A800004FBFEF71BF9E9E7FEF718F9EEE7FEF78E
:103A900015F9F3E7902500240368B3F1804F00D0B7
:103AA000704782B0074BD3F8E82042F00102C3F818
:103AB000E820D3F8E83003F001030193019B02B042
:103AC000704700BF0044025808B51748174B036001
:103AD0004FF4E133436000238360C36003610C2231
:103AE00042618361C36103624362836207F023FD25
:103AF00070B900210C4807F05DFE60B900210A484A
:103B000007F07DFE50B9084807F035FE48B908BDFA
:103B1000FEF7D4F8EDE7FEF7D1F8EFE7FEF7CEF8C1
:103B2000F1E7FEF7CBF8F2E7E8350024001001409A
:103B300010B5B6B0044600213191329133913491E1
:103B40003591B82202A80FF0A7F922681F4B9A42BC
:103B500001D036B010BD01220023CDE9022302A816
:103B600004F088FA78BB1A4BD3F8F02042F0100228
:103B7000C3F8F020D3F8F02002F010020092009A6F
:103B8000D3F8E02042F00102C3F8E020D3F8E0309F
:103B900003F001030193019B4FF4C06331930223AF
:103BA00032930024339434940723359331A9094880
:103BB00002F0C4FC22460F21252001F0C9F825207F
:103BC00001F0FCF8C5E7FEF779F8CCE700100140FA
:103BD000004402580000025800B583B001904FF62F
:103BE000FF73012201A9034807F0D8FB019803B035
:103BF0005DF804FBE835002408B5012202490348BA
:103C000007F06AFD08BD00BFE4350024E835002454
:103C100008B59A4B00221A805A80994B1B88042BB6
:103C200050D0974B1B88032B6CD0954B1B88082BCF
:103C300000F08380934B1B78532B18BF732B34D128
:103C4000904B5B78542B18BF742B2ED18D4B9B78E7
:103C5000412B18BF612B28D18A4BDB78542B18BF1E
:103C6000742B22D1874B1B79452B18BF652B1CD198
:103C7000824B04221A80834B5B79202B00F0B880A2
:103C8000202B00F0D880202B00F00C81202B00F09E
:103C90002581202B00F04C81202B00F07381202BFC
:103CA00000F0A181202B00F0C88100231A4673493F
:103CB000754800680DF02AFD714B1B880D2B00F232
:103CC000DF8108BD6F4B1B78482B18BF682BA8D12C
:103CD0006C4B5B78452B18BF652BA2D1694B9B7849
:103CE0004C2B18BF6C2B9CD1664BDB78502B18BF2C
:103CF000702B96D1614B01221A805A8063480FF0D5
:103D00008BF98EE75F4B1B78432B18BF632B8CD14D
:103D10005C4B5B784C2B18BF6C2B86D1594B9B7836
:103D2000532B18BF732B80D1544B02221A800122CF
:103D30005A8057480FF070F977E7524B1B78532B96
:103D400018BF732B7FF476AF4E4B5B78452B18BFB3
:103D5000652B7FF46FAF4B4B9B784E2B18BF6E2BB0
:103D60007FF468AF474BDB78442B18BF642B7FF49C
:103D700061AF424B03221A80424B1B79202B1ED08D
:103D8000202B7FF457AF3F4B5B79432B18BF632B3E
:103D90007FF450AF3B4B9B79412B18BF612B7FF4D5
:103DA00049AF384BDB79542B18BF742B7FF442AFEB
:103DB000324B02225A8037480FF02EF93AE7314A47
:103DC00052794E2A18BF6E2ADAD12E4A9279452AA4
:103DD00018BF652AD4D12B4AD279542A18BF742A25
:103DE000CED1264B01225A802B480FF015F921E73E
:103DF000244A9279492A18BF692A7FF441AF214A9F
:103E0000D2794E2A18BF6E2A7FF43AAF1D4A127A31
:103E1000492A18BF692A7FF433AF1A4A527A542AC2
:103E200018BF742A7FF42CAF144B01225A801B4810
:103E30000FF0F2F839E7134A9279492A18BF692A34
:103E40007FF421AF0F4AD279442A18BF642A7FF445
:103E50001AAF0C4A127A4C2A18BF6C2A7FF413AF9F
:103E6000084A527A452A18BF652A7FF40CAF034BE3
:103E700002225A800A480FF0CFF816E7F410002407
:103E8000E0350024E02D002428120024B88F01081A
:103E9000C88F0108E88F0108E08F0108F08F010842
:103EA000009001087B4A9279502A18BF702A7FF44B
:103EB000EDAE784AD279522A18BF722A7FF4E6AE64
:103EC000744A127A452A18BF652A7FF4DFAE724B16
:103ED00003225A8071480FF09FF8E6E66D4A927906
:103EE000522A18BF722A7FF4D4AE6A4AD279452A80
:103EF00018BF652A7FF4CDAE664A127A412A18BFF0
:103F0000612A7FF4C6AE634A527A442A18BF642AF3
:103F10007FF4BFAE5F4A927A592A18BF792A7FF49C
:103F2000B8AE5D4B04225A805D480FF075F8BCE6D0
:103F3000584A9279532A18BF732A7FF4ADAE554A76
:103F4000D279452A18BF652A7FF4A6AE514A127A63
:103F5000522A18BF722A7FF49FAE4E4A527A562ACE
:103F600018BF762A7FF498AE4A4A927A4F2A18BF31
:103F70006F2A7FF491AE484B05225A8049480FF0D2
:103F80004BF892E6434A92794D2A18BF6D2A7FF486
:103F900086AE404AD279412A18BF612A7FF47FAEAB
:103FA0003C4A127A4E2A18BF6E2A7FF478AE394AFC
:103FB000527A552A18BF752A7FF471AE354A927A23
:103FC000412A18BF612A7FF46AAE324AD27A4C2A5B
:103FD00018BF6C2A7FF463AE2F4B06225A803248FA
:103FE0000FF01AF861E62B4A9279462A18BF662A22
:103FF0007FF458AE274AD279412A18BF612A7FF44C
:1040000051AE244A127A552A18BF752A7FF44AAE57
:10401000204A527A4C2A18BF6C2A7FF443AE1D4ABC
:10402000927A542A18BF742A7FF43CAE1A4B0722A6
:104030005A801E480EF0F0FF37E6164B9B79442B52
:1040400018BF642B7FF431AE124BDB794F2B18BFB6
:104050006F2B7FF42AAE0F4B1B7A572B18BF772B91
:104060007FF423AE0B4B5B7A4E2B18BF6E2B7FF485
:104070001CAE094B08225A800D480EF0CDFF14E605
:104080000C48B0F800280C4B1A800249FCF73EFDA2
:1040900017E600BFE02D0024F41000241090010862
:1040A00020900108309001084090010850900108CC
:1040B00060900108DC250024E035002408B5026882
:1040C0000F4B9A4200D008BD0E4B1A780D2A0BD028
:1040D0000D490B880D48C25401330B800122094958
:1040E0000B4807F0F9FAEEE7FFF792FD4FF4006294
:1040F000002106480EF0D0FE034B00221A80EDE7A7
:1041000000100140E4350024E0350024E02D0024B7
:10411000E835002430B583B00446164DEB68984767
:104120006B6998476B6A6BB1AB6A5BB1220C8DF817
:104130000420220A8DF805208DF80640032101A8ED
:1041400098470BE00B4D2B6AC4F3074098472B6A46
:10415000C4F3072098472B6AE0B29847054DEB69F6
:1041600098470446AB6998472B699847204603B0A7
:1041700030BD00BF6800002470B582B004460E4612
:10418000164DEB6898476B69984744F00404AB6A96
:10419000A3B1220C8DF80420220A8DF805208DF899
:1041A00006408DF8076004210DEB010098470B4C89
:1041B000A36998472369984702B070BD2B6AC4F37E
:1041C000074098472B6AC4F3072098472B6AE0B250
:1041D00098472B6A30469847E9E700BF68000024FB
:1041E000F0B583B004460E4615461B4FFB68984752
:1041F0007B6998477B6A93B1BB6A83B1220C8DF8C7
:104200000420220A8DF805208DF80640032101A81C
:104210009847114B5B6A29463046984715E00E4F88
:104220003B6AC4F3074098473B6AC4F307209847AA
:104230003B6AE0B29847002405E0074BDB699847EA
:1042400030550134A4B2AC42F7D3034CA36998476C
:104250002369984703B0F0BD68000024F0B583B02F
:1042600004460E4615461B4FFB6898477B699847E6
:1042700044F00404BB6AB3B1220C8DF80420220A76
:104280008DF805208DF80640032101A89847114BB1
:104290009B6A2946304698470E4CA3699847236984
:1042A000984703B0F0BD3B6AC4F3074098473B6AA8
:1042B000C4F3072098473B6AE0B29847002405E022
:1042C000044B1B6A305D98470134A4B2AC42F7D36B
:1042D000E2E700BF680000242DE9F0410746002511
:1042E00001E0A54224D04FEA870808F101084FEA0F
:1042F000C80808F500563046FFF70CFF84B22402C8
:10430000A4B208F504584046FFF704FF14FA80F4FD
:10431000A4B2002CE5D03046FFF7FCFE85B22D029A
:10432000ADB24046FFF7F6FE15FA80F5ADB2D8E71C
:104330002846BDE8F0812DE9F0410746002501E05F
:10434000A54224D04FEA870808F101084FEAC808BF
:1043500008F518563046FFF7DDFE84B22402A4B2F9
:1043600008F51C584046FFF7D5FE14FA80F4A4B2B5
:10437000002CE5D03046FFF7CDFE85B22D02ADB260
:104380004046FFF7C7FE15FA80F5ADB2D8E72846DC
:10439000BDE8F08102B970472DE9F8430F46904619
:1043A0008400651CED0005F510594846FFF7B2FE84
:1043B00086B23602B6B205F514552846FFF7AAFEB6
:1043C00016FA80F6B6B2A01CC0004246394600EB91
:1043D0000620FFF743FF08EB06018CB2C1F307216B
:1043E0004846FFF7C9FEE1B22846FFF7C5FEBDE823
:1043F000F88302B970472DE9F8430F4690468400D0
:10440000651CED0005F520594846FFF783FE86B28E
:104410003602B6B205F524552846FFF77BFE16FA9C
:1044200080F6B6B2E01CC0004246394600EB0620DA
:10443000FFF7D6FE08EB06018CB2C1F30721484610
:10444000FFF79AFEE1B22846FFF796FEBDE8F88333
:104450007047704770477047007870470170704729
:10446000002070477047000000B587B08DF80F003E
:104470006423009301230DF117020DF10F0103488E
:1044800004F0C6FE07B05DF804FB00BFA8230024BB
:1044900000B585B04FF6FF73ADF80C306423009380
:1044A00001230DF10D0203A9034804F0B1FE9DF8AC
:1044B0000D0005B05DF804FBA8230024002918BFF7
:1044C000002805D1064B074A5A61074A9A6170478E
:1044D00010B4034B586199615DF8044B704700BFFD
:1044E000680000245544000857440008094B1B8805
:1044F00013F4007FFAD0002918BF002805D1054B1E
:10450000054ADA61054A1A627047024BD86119629E
:10451000704700BF6800002461440008654400083B
:1045200000B587B01F4B93E803000190ADF8081069
:10453000062201A94FF41060FFF752FE042205A9DC
:104540004FF48070FFF74CFE042204A94FF4A060E2
:10455000FFF746FE042203A94FF47060FFF740FE08
:1045600080210020FFF708FE0020FFF7D3FD062280
:1045700001A94FF41060FFF771FE042205A94FF462
:104580008070FFF76BFE042204A94FF4A060FFF7D0
:1045900065FE042203A94FF47060FFF75FFE07B0C9
:1045A0005DF804FB588A010870B505460E46FFF712
:1045B000B7FFCDB100221346072B07DCE95C0A44A4
:1045C00052B2102A2FDC01335BB2F5E7002409E078
:1045D000A0000130C000295D00F5F850FFF7CCFDC8
:1045E000013464B2072CF3DD5EB100221346072BC1
:1045F00009DCF15C0A4452B2102A17DC01335BB2C9
:10460000F5E700200EE0002409E0A0000130C00022
:10461000315D00F5F050FFF7AFFD013464B2072CB7
:10462000F3DD002070BD4FF0FF30FBE74FF0FF30AF
:10463000F8E738B5050A00F0F0014FF4A850FFF78D
:104640009BFD002401E00134E4B2072C0DD845FAAB
:1046500004F313F0010FF6D0A0000130C0001F21B9
:1046600000F50070FFF788FDEDE738BD10B54FF499
:10467000A850FFF74FFD00F0F0044FF4B850FFF7DB
:1046800049FD80B2000280B2204480B210BD10B556
:10469000040AC1B24FF4B050FFF76EFD21464FF44B
:1046A000C050FFF769FD10BD10B54FF4B050FFF7D3
:1046B00031FD04464FF4C050FFF72CFD83B21B02BE
:1046C0009BB213FA84F080B210BD08B54FF4385095
:1046D000FFF720FD10F0010F01D1002008BD0120DF
:1046E000FCE708B54FF43850FFF714FD00F0380030
:1046F000302801D0002008BD0120FCE708B54FF4A8
:104700003850FFF707FD00F07F014FF43850FFF7F6
:1047100033FD4FF43850FFF7FDFC60F07F01C9B264
:104720004FF43850FFF728FD08BD08B50378012B7A
:104730000CD000214378012B0AD0C378012B10D074
:104740008378012B06D141F0100103E04021F1E70D
:1047500041F038014FF43850FFF70EFDFFF7CEFF60
:1047600008BD8378012B02D041F00801F2E741F047
:104770001801EFE710B504464FF43850FFF7CAFCB4
:10478000C0F38013237000F03803202B04D0382BA3
:1047900002D00022627001E001226270A3F11002D7
:1047A000D2B2102A05D8012101FA02F20B491140B8
:1047B00011B90022A27001E00122A270083BDBB215
:1047C000182B05D8012202FA03F3054A1A4012B940
:1047D0000023E37001E00123E37010BD010101003B
:1047E0000100010110B504464FF43850FFF792FC68
:1047F00010F0400F24D000F0C701012C12D041F07E
:1048000038014FF43850FFF7B7FCFFF777FF4FF44C
:104810003850FFF77FFC012C07D010F0380F0CD078
:10482000002010BD41F03001EBE710F0300F01D057
:104830000020F6E74FF0FF30F3E74FF0FF30F0E7EE
:104840004FF0FF30EDE7000030B583B00C46002399
:10485000009301930F2809D8DFE800F00B0F1D1813
:1048600022272C3949595D627B676B734FF0FF300B
:1048700070E0FFF755FE00206CE011B100910834A4
:10488000019401990098FFF78FFE63E00888FFF715
:10489000D0FE00205EE0FFF7E9FE2080002059E016
:1048A0000888FFF7F4FE002054E0FFF7FDFE2080AB
:1048B00000204FE00988090A4FF49850FFF75CFC8C
:1048C00021784FF4A050FFF757FC002042E04FF44E
:1048D0009850FFF71FFC85B22D02ADB24FF4A050E7
:1048E000FFF718FC15FA80F52580002032E01D4BFB
:1048F0009A780A70DA784A701A798A705A79CA7086
:104900009A790A71DB794B710020887122E0FFF7F8
:10491000F5FE00201EE00846FFF707FF002019E023
:104920000846FFF727FF002014E00878FFF75AFF3A
:1049300010E0FFF7D6FEC0B2FF280DD02070002097
:1049400008E0FFF7C2FEC0B2FF2808D020700020A8
:1049500000E0002003B030BD4FF0FF30FAE74FF029
:10496000FF30F7E76800002410B504460622014630
:104970004FF41060FFF772FC042204F10E014FF4B3
:104980008070FFF76BFC042204F10A014FF4A06071
:10499000FFF764FC0422A11D4FF47060FFF75EFC7A
:1049A000A27C064B1A70E27C5A70227D9A70627D5E
:1049B000DA70A27D024B1A7010BD00BF8036002451
:1049C0007C36002410B50446062201464FF41060E0
:1049D000FFF706FC042204F10E014FF48070FFF78C
:1049E000FFFB042204F10A014FF4A060FFF7F8FB7B
:1049F0000422A11D4FF47060FFF7F2FB064B1A78FA
:104A0000A2745A78E2749A782275DB786375034B46
:104A10001B78A37510BD00BF803600247C360024AF
:104A200030F03A030CD110B504460020FFF772FBBA
:104A300044EA0001C9B20020FFF79EFB002010BD30
:104A40004FF0FF30704708B50020FFF763FB08BD4B
:104A500010B5044601784FF4D850FFF78DFB6188FC
:104A6000090A4FF4C850FFF787FBA1784FF4D050E4
:104A7000FFF782FB10BD38B505464FF4D850FFF75D
:104A800049FB28704FF4C850FFF744FB84B224025E
:104A9000A4B24FF4D050FFF73DFB14FA80F46C80C1
:104AA00038BD10B50C46052821D8DFE800F0030812
:104AB0000D11161B0846FFF757FF002010BD0846D2
:104AC000FFF780FF0020F9E70878FFF7A9FFF5E777
:104AD000FFF7B9FF20700020F0E70846FFF7B8FFA6
:104AE0000020EBE70846FFF7C6FF0020E6E74FF09F
:104AF000FF30E3E700B587B00DF1040C0D4B0FCB91
:104B00008CE80F0061460120FFF79EFEB0F1FF3FE9
:104B10000ED00DF117010F20FFF796FEB0F1FF3F09
:104B200007D09DF81730002BF3D007B05DF804FBD9
:104B3000FEE7FEE7608A010800B58BB00D49002052
:104B4000FFF7AFFF02A90120FFF7ABFF08A908207C
:104B5000FFF77AFE9DF8113000939DF810309DF814
:104B60000F209DF80E1004480EF0F4F90BB05DF81C
:104B700004FB00BF940000247090010808B50122D6
:104B80004FF48061014801F0E3FD08BD00180258B0
:104B900008B5FFF7F3FF08BD08B500224FF48061A8
:104BA000014801F0D5FD08BD0018025808B5FFF70F
:104BB000F3FF08BD08B501220821024801F0C8FD35
:104BC00008BD00BF000C025808B5002208210248A9
:104BD00001F0BEFD08BD00BF000C025808B5FFF78C
:104BE000F3FF642000F08EF8FFF7E4FF642000F08C
:104BF00089F808BD08B509480EF00EFAFFF7EEFF78
:104C000007490848FFF75AFC07490848FFF76EFCB8
:104C1000FFF770FFFFF790FF08BD00BF8890010805
:104C2000914B0008AD4B000869440008914400080E
:104C3000DFF834D0FEF7A2FE0C480D490D4A0023E0
:104C400002E0D458C4500433C4188C42F9D30A4A41
:104C50000A4C002301E013600432A242FBD30DF0A2
:104C600037FEFDF7A7F87047000005240000002478
:104C7000D8100024C8A00108D8100024D00F0324A5
:104C8000FEE7000010B5032000F050F802F032FEFD
:104C90000F498B69C3F303230E4AD35C03F01F0350
:104CA000D8408B6903F00F03D35C03F01F0320FA95
:104CB00003F3094A1360094B18600F20FEF76CFDDF
:104CC00010B10124204610BD0446FEF74BFDF9E764
:104CD00000440258A88F01086400002460000024EA
:104CE000034B1B78034A11680B441360704700BFE5
:104CF000AB00002484360024014B1868704700BFC5
:104D00008436002438B50446FFF7F6FF0546B4F1B3
:104D1000FF3F02D0044B1B781C44FFF7EDFF401B04
:104D2000A042FAD338BD00BFAB0000240649CB68CF
:104D300023F4E0631B041B0C000200F4E060034357
:104D4000024A1A43CA60704700ED00E00000FA050D
:104D500000B5174BDB68C3F30223C3F1070CBCF1AA
:104D6000040F28BF4FF0040C03F1040EBEF1060F30
:104D700014D9033B4FF0FF3E0EFA0CFC21EA0C0164
:104D800099400EFA03F322EA03031943002807DBD4
:104D90000901C9B2074B19545DF804FB0023E9E788
:104DA00000F00F000901C9B2034B1954F4E700BF2A
:104DB00000ED00E000E400E014ED00E0002807DB77
:104DC00000F01F02400901239340024A42F82030BC
:104DD000704700BF00E100E000280CDB00F01F027C
:104DE0004009012393402030034A42F82030BFF3AA
:104DF0004F8FBFF36F8F704700E100E0F0B4876D15
:104E00000468664E664DAC4218BFB44242D01835B5
:104E1000AC423FD01835AC423CD01835AC4239D00A
:104E20001835AC4236D01835AC4233D01835AC42C8
:104E300030D005F55675AC422CD01835AC4229D08F
:104E40001835AC4226D01835AC4223D01835AC42C8
:104E500020D01835AC421DD01835AC421AD01835C8
:104E6000AC4217D04F4DAC4214D01435AC4211D0E7
:104E70001435AC420ED01435AC420BD01435AC42D4
:104E800008D01435AC4205D01435AC4202D01435EC
:104E9000AC4207D1446E856E6560C46E14B1046F78
:104EA000456F656004683D4E3D4DAC4218BFB4424D
:104EB00052D01835AC424FD01835AC424CD01835D2
:104EC000AC4249D01835AC4246D01835AC4243D03C
:104ED0001835AC4240D005F55675AC423CD018357B
:104EE000AC4239D01835AC4236D01835AC4233D04C
:104EF0001835AC4230D01835AC422DD01835AC4204
:104F00002AD01835AC4227D0264E274DAC4218BFC8
:104F1000B44211D0254DAC420ED01435AC420BD06A
:104F20001435AC4208D01435AC4205D01435AC422F
:104F300002D01435AC4224D1C46D04F01F05012405
:104F4000AC407C60046863608368402B20D00368B9
:104F500099600368DA6014E0C46D04F01F0C3F240C
:104F600004FA0CF4BC6005682C6824F480242C60DE
:104F7000046863608368402B05D003689960036808
:104F8000DA60F0BC704703689A600368D960F8E79C
:104F900003689A600368D960F3E700BF100002401D
:104FA00028000240085402581C5402583054025839
:104FB00003682749274A934218BF8B422FD01832E3
:104FC00093422CD01832934229D01832934226D0E3
:104FD0001832934223D01832934220D01832934291
:104FE0001DD002F55672934219D01832934216D052
:104FF0001832934213D01832934210D01832934291
:105000000DD0183293420AD01832934207D018328A
:10501000934204D023F0FF038365806D704710B482
:10502000D9B210390C4AA2FB0142C2F302120B4C56
:10503000A25CC2655F2907D9094A1A400432826519
:10504000806D5DF8044B7047054A1A408265F7E7AA
:105050001000024028000240ABAAAAAA98900108BA
:1050600000FCFFFF83699BB9836A012B0AD0022BE6
:1050700002D00BB100207047C36A13F0807F2AD1A1
:1050800000207047C36AB3F1C07F26D0002070476C
:10509000B3F5005F0AD0836A022B26D9032B26D1F1
:1050A000C36A13F0807F24D100207047836A032BEA
:1050B00003D8DFE803F01404140A00207047C36A21
:1050C00013F0807F0DD100207047C36AB3F1C07F19
:1050D00009D000207047012070470120704701204F
:1050E0007047012070470120704701207047002061
:1050F000704701207047000003682249224A93420A
:1051000018BF8B4228D01432934225D014329342D8
:1051100022D0143293421FD0143293421CD0143246
:10512000934219D01432934216D0DAB2103A17498A
:10513000A1FB0212120916491944A8291FD9154BBF
:1051400013449B000366144B436602F01F020123C5
:1051500003FA02F282667047DBB2083B0F4AA2FBF9
:1051600003230F4A02EB1312920002660D4A4266B5
:10517000C3F30413012202FA03F383667047083273
:10518000DDE700BF085402581C540258ABAAAAAA73
:10519000F0FBFDBF0082001080080240CDCCCCCCDB
:1051A000009600168058025801794A1E072A2CD80A
:1051B00030B40368154D164CA34218BFAB4218D04B
:1051C0001434A34215D01434A34212D01434A34291
:1051D0000FD01434A3420CD01434A34209D0143499
:1051E000A34206D00B4B0B449B00C3660A4B0367DC
:1051F00005E00A4B0B449B00C366094B0367012380
:1052000003FA02F2426730BC7047704708540258F4
:105210001C5402583F820010400902403F9600167D
:105220004059025870B50446FFF766FD002C00F0A7
:10523000B381054623685349534A934218BF8B42B2
:105240000CBF0122002250D030318B424DD018319A
:105250008B424AD018318B4247D018318B4244D010
:1052600018318B4241D018318B423ED001F5567136
:105270008B423AD018318B4237D018318B4234D020
:1052800018318B4231D018318B422ED018318B42DD
:105290002BD018318B4228D018318B4225D03B4976
:1052A0003B4A934218BF8B4200F02E81394A934209
:1052B00000F02A811432934200F026811432934286
:1052C00000F022811432934200F01E811432934286
:1052D00000F01A811432934200F016814023636576
:1052E000032384F8353001204AE0022184F8351088
:1052F000002184F834107ABB274A93422CD018320C
:10530000934229D01832934226D01832934223D0A8
:105310001832934220D0183293421DD002F55672B3
:10532000934219D01832934216D01832934213D0B8
:105330001832934210D0183293420DD01832934253
:105340000AD01832934207D01832934204D01A6818
:1053500022F001021A6003E01A6822F001021A60CA
:1053600023681A6812F0010F18D0FFF7C5FC431B21
:10537000052BF5D920236365032384F835300120FC
:1053800070BD00BF100002402800024008540258BF
:105390001C54025830540258400002401A687F489A
:1053A0001040A168E2680A4321690A4361690A431F
:1053B000A1690A43E1690A43216A0A430243616A17
:1053C000042900F096806168A1F12905A1F13F0050
:1053D000032888BF052D0AD9A1F14700012806D965
:1053E000A1F14F00032802D97439032901D842F4EE
:1053F00080121A602668756925F00705636A1D43E7
:10540000042B08D1A36A1D43E36A23B12046FFF7AA
:1054100029FE002872D175612046FFF7C9FDE36DB2
:1054200003F01F023F239340836023685C495D4A79
:10543000934218BF8B4242D0183293423FD0183269
:1054400093423CD01832934239D01832934236D02E
:105450001832934233D01832934230D002F556724C
:1054600093422CD01832934229D01832934226D03E
:105470001832934223D01832934220D018329342EC
:105480001DD0183293421AD01832934217D0464A90
:10549000934214D01432934211D0143293420ED05E
:1054A000143293420BD01432934208D014329342F8
:1054B00005D01432934202D01432934213D12046C5
:1054C000FFF71AFEA368802B59D0236E22791A6049
:1054D000636EA26E5A606368013B072B52D90023AA
:1054E000E3662367636700206065012384F8353035
:1054F00046E7E16A206B01430A4364E740236365A2
:10550000012084F835003BE7022284F83520002290
:1055100084F834201A6825491140A268402A2CD00A
:10552000802A27D00022E06842EAD002206942EABD
:10553000D002606942EAD002A06942EAD002E06982
:1055400042EAD002206A42EA10120A431A60226834
:10555000174B1344174AA2FB03231B099B00E36567
:105560002046FFF725FDE26D02F01F0101228A406F
:1055700042605AE74FF48042D5E71022D3E7002378
:105580006360A2E72046FFF70FFEE36E00221A6079
:10559000236F626F5A60A6E70120F1E63F8010FE9C
:1055A0001000024028000240085402580F00FEFF7D
:1055B000F8ABFDA7CDCCCCCC002800F03E8170B577
:1055C000044690F83400012800F03981012084F865
:1055D000340094F83500C0B2012807D04FF40063BE
:1055E0006365002384F83430012070BD022084F804
:1055F0003500002060652068924E934DA84218BF88
:10560000B0422FD01835A8422CD01835A84229D046
:105610001835A84226D01835A84223D01835A842FC
:1056200020D01835A8421DD005F55675A84219D0CE
:105630001835A84216D01835A84213D01835A842FC
:1056400010D01835A8420DD01835A8420AD0183508
:10565000A84207D01835A84204D0056825F00105F6
:10566000056003E0056825F0010505602046FFF7A9
:10567000C5FB23687349744A934218BF8B4238D0E4
:105680001832934235D01832934232D018329342B6
:105690002FD0183293422CD01832934229D018328E
:1056A000934226D002F55672934222D0183293428A
:1056B0001FD0183293421CD01832934219D018329E
:1056C000934216D01832934213D01832934210D01E
:1056D000183293420DD01A6822F00E0242F00A02EC
:1056E0001A60236C93B12268136843F004031360BB
:1056F0000CE01A6822F01E0242F016021A60236CB7
:1057000023B12268136843F00803136023684D49EE
:105710004D4A934218BF8B4242D0183293423FD039
:10572000183293423CD01832934239D01832934207
:1057300036D01832934233D01832934230D002F52B
:10574000567293422CD01832934229D01832934289
:1057500026D01832934223D01832934220D01832E8
:1057600093421DD0183293421AD01832934217D068
:10577000364A934214D01432934211D014329342D9
:105780000ED0143293420BD01432934208D014320C
:10579000934205D01432934202D0143293420ED178
:1057A000236E1A6812F4803F03D01A6842F48072A4
:1057B0001A60E36E1BB11A6842F480721A602368A3
:1057C0002049214A934218BF8B4230D0183293426D
:1057D0002DD0183293422AD01832934227D0183253
:1057E000934224D01832934221D0183293421ED0D3
:1057F00002F5567293421AD01832934217D01832DB
:10580000934214D01832934211D0183293420ED0E2
:10581000183293420BD01832934208D01832934278
:1058200005D01A6842F001021A600020DDE61A680D
:1058300042F001021A600020D7E6012070470220E2
:10584000D3E600BF1000024028000240085402586E
:1058500070B50446FFF750FA002C00F09181054620
:1058600094F83530DBB2022B06D080236365002329
:1058700084F83430012070BD23688C498C4A9342EF
:1058800018BF8B4230D0183293422DD01832934239
:105890002AD01832934227D01832934224D018329B
:1058A000934221D0183293421ED002F55672934291
:1058B0001AD01832934217D01832934214D01832AB
:1058C000934211D0183293420ED0183293420BD02B
:1058D0001832934208D01832934205D01A6822F049
:1058E0000E021A60266809E01A6822F01E021A6089
:1058F0002268536923F080035361266823686B494B
:105900006B4A934218BF8B4242D0183293423FD029
:10591000183293423CD01832934239D01832934215
:1059200036D01832934233D01832934230D002F539
:10593000567293422CD01832934229D01832934297
:1059400026D01832934223D01832934220D01832F6
:1059500093421DD0183293421AD01832934217D076
:10596000544A934214D01432934211D014329342C9
:105970000ED0143293420BD01432934208D014321A
:10598000934205D01432934202D01432934204D190
:10599000226E136823F48073136023684349444ADA
:1059A000934218BF8B422FD0183293422CD018321A
:1059B000934229D01832934226D01832934223D0F2
:1059C0001832934220D0183293421DD002F55672FD
:1059D000934219D01832934216D01832934213D002
:1059E0001832934210D0183293420DD0183293429D
:1059F0000AD01832934207D01832934204D01A6862
:105A000022F001021A6003E01A6822F001021A6013
:105A1000336813F0010F0ED0FFF76EF9431B052B0F
:105A2000F6D920236365032384F83530002384F8F6
:105A3000343001201FE723681C491D4A934218BFD8
:105A40008B4239D01832934236D01832934233D039
:105A50001832934230D0183293422DD018329342EC
:105A60002AD01832934227D002F55672934223D09F
:105A70001832934220D0183293421DD018329342EC
:105A80001AD01832934217D01832934214D01832D9
:105A9000934211D0183293420ED0A16DE36D03F002
:105AA0001F02012393404B600DE000BF1000024035
:105AB0002800024008540258A16DE36D03F01F0254
:105AC0003F2393408B6023682E492F4A934218BF8F
:105AD0008B4242D0183293423FD0183293423CD08E
:105AE0001832934239D01832934236D0183293424A
:105AF00033D01832934230D002F5567293422CD0F4
:105B00001832934229D01832934226D01832934249
