:020000040800F2
:1000000000000524691E0008711B0008731B00080E
:10001000751B0008771B0008791B00080000000012
:10002000000000000000000000000000C1AF000858
:100030007B1B00080000000061B00008A9AC0008AC
:10004000B91E0008B91E0008B91E0008B91E000834
:10005000B91E0008B91E0008B91E0008B91E000824
:100060008989000839890008B91E0008B91E0008EE
:10007000B91E0008B91E0008B91E0008B91E000804
:10008000B91E0008B91E0008B91E0008B91E0008F4
:10009000B91E0008B91E0008B91E0008B91E0008E4
:1000A000B91E00087D1B0008B91E0008B91E000813
:1000B000A1890008B91E0008B91E0008B91E000871
:1000C000B91E0008B91E0008B91E0008B91E0008B4
:1000D000B91E0008B91E0008B91E0008B91E0008A4
:1000E00061890008B91E000800000000B91E000860
:1000F000B91E0008B91E0008B91E0008B91E000884
:10010000B91E0008B91E0008B91E0008B91E000873
:10011000B91E0008B91E0008B91E0008B91E000863
:10012000B91E0008B91E0008B91E0008B91E000853
:10013000B91E00088D1B0008B91E0008B91E000872
:1001400000000000000000000000000000000000AF
:10015000B91E0008B91E0008B91E0008B91E000823
:10016000B91E0008B91E0008B91E0008B91E000813
:10017000B91E0008B91E0008B91E000800000000E2
:10018000B91E0008B91E0008B91E0008B91E0008F3
:10019000B91E0008B91E0008B91E0008B91E0008E3
:1001A000B91E0008B91E0008B91E000800000000B2
:1001B000B91E0008B91E0008B91E0008B91E0008C3
:1001C000B91E0008B91E0008000000000000000071
:1001D0000000000000000000B91E00080000000040
:1001E000000000000000000000000000000000000F
:1001F0000000000000000000B91E0008B91E000841
:10020000B91E0008B91E000800000000B91E000851
:10021000B91E0008B91E0008B91E0008B91E000862
:10022000B91E000800000000B91E00080000000010
:10023000B91E0008B91E000800000000B91E000821
:10024000B91E0008B91E0008B91E0008B91E000832
:10025000B91E0008B91E0008B91E0008B91E000822
:10026000B91E0008B91E0008B91E0008B91E000812
:10027000B91E0008B91E0008B91E000800000000E1
:10028000B91E0008B91E0008B91E0008B91E0008F2
:1002900000000000B91E0008B91E000800000000A0
:1002A00000000000B91E0008B91E0008B91E0008B1
:1002B000B91E0008B91E0008B91E0008B91E0008C2
:0C02C000B91E0008B91E0008B91E000895
:1003000010B5054C237833B9044B13B10448AFF34F
:1003100000800123237010BD38100024000000006D
:10032000182E010808B5034B1BB103490348AFF36E
:10033000008008BD000000003C100024182E0108B9
:1003400053B94AB9002908BF00281CBF4FF0FF313C
:100350004FF0FF3000F074B9ADF1080C6DE904CE38
:1003600000F006F8DDF804E0DDE9022304B0704790
:100370002DE9F047089D04468E46002B4DD18A4258
:10038000944669D9B2FA82F252B101FA02F3C2F18B
:10039000200120FA01F10CFA02FC41EA030E94401C
:1003A0004FEA1C48210CBEFBF8F61FFA8CF708FB3D
:1003B00016E341EA034306FB07F199420AD91CEB15
:1003C000030306F1FF3080F01F81994240F21C8147
:1003D000023E63445B1AA4B2B3FBF8F008FB10338F
:1003E00044EA034400FB07F7A7420AD91CEB0404C4
:1003F00000F1FF3380F00A81A74240F20781644494
:10040000023840EA0640E41B00261DB1D440002318
:10041000C5E900433146BDE8F0878B4209D9002D7C
:1004200000F0EF800026C5E9000130463146BDE806
:10043000F087B3FA83F6002E4AD18B4202D3824270
:1004400000F2F980841A61EB030301209E46002D1F
:10045000E0D0C5E9004EDDE702B9FFDEB2FA82F274
:10046000002A40F09280A1EB0C014FEA1C471FFAD2
:100470008CFE0126200CB1FBF7F307FB131140EAB9
:1004800001410EFB03F0884208D91CEB010103F186
:10049000FF3802D2884200F2CB804346091AA4B248
:1004A000B1FBF7F007FB101144EA01440EFB00FE1C
:1004B000A64508D91CEB040400F1FF3102D2A64581
:1004C00000F2BB800846A4EB0E0440EA03409CE720
:1004D000C6F12007B34022FA07FC4CEA030C20FACD
:1004E00007F401FA06F31C43F9404FEA1C4900FAED
:1004F00006F3B1FBF9F8200C1FFA8CFE09FB18116A
:1005000040EA014108FB0EF0884202FA06F20BD9DC
:100510001CEB010108F1FF3A80F08880884240F22C
:100520008580A8F102086144091AA4B2B1FBF9F070
:1005300009FB101144EA014100FB0EFE8E4508D96B
:100540001CEB010100F1FF346CD28E456AD90238F0
:10055000614440EA0840A0FB0294A1EB0E01A142D5
:10056000C846A64656D353D05DB1B3EB080261EB43
:100570000E0101FA07F722FA06F3F1401F43C5E91D
:10058000007100263146BDE8F087C2F12003D84053
:100590000CFA02FC21FA03F3914001434FEA1C4795
:1005A0001FFA8CFEB3FBF7F007FB10360B0C43EA87
:1005B000064300FB0EF69E4204FA02F408D91CEB37
:1005C000030300F1FF382FD29E422DD90238634435
:1005D0009B1B89B2B3FBF7F607FB163341EA0341D5
:1005E00006FB0EF38B4208D91CEB010106F1FF3824
:1005F00016D28B4214D9023E6144C91A46EA00461B
:1006000038E72E46284605E70646E3E61846F8E6AC
:100610004B45A9D2B9EB020864EB0C0E0138A3E7F5
:100620004646EAE7204694E74046D1E7D0467BE7D6
:10063000023B614432E7304609E76444023842E74E
:10064000704700BF844641EA000313F003036DD1F5
:10065000403A41D351F8043B40F8043B51F8043B85
:1006600040F8043B51F8043B40F8043B51F8043B8C
:1006700040F8043B51F8043B40F8043B51F8043B7C
:1006800040F8043B51F8043B40F8043B51F8043B6C
:1006900040F8043B51F8043B40F8043B51F8043B5C
:1006A00040F8043B51F8043B40F8043B51F8043B4C
:1006B00040F8043B51F8043B40F8043B51F8043B3C
:1006C00040F8043B51F8043B40F8043B51F8043B2C
:1006D00040F8043B403ABDD2303211D351F8043BCC
:1006E00040F8043B51F8043B40F8043B51F8043B0C
:1006F00040F8043B51F8043B40F8043B103AEDD27B
:100700000C3205D351F8043B40F8043B043AF9D2CB
:10071000043208D0D2071CBF11F8013B00F8013B9E
:1007200001D30B8803806046704700BF082A13D3AB
:100730008B078DD010F003038AD0C3F10403D21AC3
:10074000DB071CBF11F8013B00F8013B80D331F8F7
:10075000023B20F8023B7BE7043AD9D3013A11F877
:10076000013B00F8013BF9D20B7803704B784370E2
:100770008B78837060467047000000000000000026
:1007800090F800F06DE9024520F007016FF0000CD1
:1007900010F0070491F820F040F049804FF0000479
:1007A0006FF00700D1E9002391F840F000F1080054
:1007B00082FA4CF2A4FA8CF283FA4CF3A2FA8CF38C
:1007C0004BBBD1E9022382FA4CF200F10800A4FAF3
:1007D0008CF283FA4CF3A2FA8CF3E3B9D1E9042347
:1007E00082FA4CF200F10800A4FA8CF283FA4CF37E
:1007F000A2FA8CF37BB9D1E9062301F1200182FA38
:100800004CF200F10800A4FA8CF283FA4CF3A2FA3D
:100810008CF3002BC6D0002A04BF04301A4612BA4B
:10082000B2FA82F2FDE8024500EBD2007047D1E94E
:10083000002304F00305C4F100004FEAC50514F0DD
:10084000040F91F840F00CFA05F562EA05021CBFAE
:1008500063EA050362464FF00004A9E700000000C8
:1008600001F0FF01102A2BDB10F0070F08D010F861
:10087000013B013A8B422DD010F0070F42B3F6D165
:10088000F0B441EA012141EA014122F007047FF07E
:1008900000070023F0E80256083C85EA010586EAD5
:1008A000010685FA47F5A3FA87F586FA47F6A5FA11
:1008B00087F68EB9EED1F0BC01F0FF0102F007021D
:1008C00032B110F8013B013A83EA010313B1F8D1C8
:1008D0000020704701387047002D06BF35460338A9
:1008E000073815F0010F07D1013015F4807F02BFE2
:1008F000013015F4C03F0130F0BC0138704700BF33
:1009000081F0004102E000BF83F0004330B54FEAC0
:1009100041044FEA430594EA050F08BF90EA020F2D
:100920001FBF54EA000C55EA020C7FEA645C7FEAC0
:10093000655C00F0E2804FEA5454D4EB5555B8BFE3
:100940006D420CDD2C4480EA020281EA030382EA54
:10095000000083EA010180EA020281EA0303362DE6
:1009600088BF30BD11F0004F4FEA01314FF4801CB9
:100970004CEA113102D0404261EB410113F0004FCB
:100980004FEA03334CEA133302D0524263EB430382
:1009900094EA050F00F0A780A4F10104D5F1200E20
:1009A0000DDB02FA0EFC22FA05F2801841F100017B
:1009B00003FA0EF2801843FA05F359410EE0A5F14F
:1009C00020050EF1200E012A03FA0EFC28BF4CF080
:1009D000020C43FA05F3C01851EBE37101F0004536
:1009E00007D54FF0000EDCF1000C7EEB00006EEB43
:1009F0000101B1F5801F1BD3B1F5001F0CD34908CD
:100A00005FEA30004FEA3C0C04F101044FEA445223
:100A100012F5800F80F09A80BCF1004F08BF5FEAAA
:100A2000500C50F1000041EB045141EA050130BD8A
:100A30005FEA4C0C404141EB0101013C28BFB1F59C
:100A4000801FE9D291F0000F04BF01460020B1FAE7
:100A500081F308BF2033A3F10B03B3F120020CDABA
:100A60000C3208DD02F1140CC2F10C0201FA0CF098
:100A700021FA02F10CE002F11402D8BFC2F1200CFD
:100A800001FA02F120FA0CFCDCBF41EA0C019040B3
:100A9000E41AA2BF01EB0451294330BD6FEA0404FC
:100AA0001F3C1CDA0C340EDC04F11404C4F12002E7
:100AB00020FA04F001FA02F340EA030021FA04F3F9
:100AC00045EA030130BDC4F10C04C4F1200220FA50
:100AD00002F001FA04F340EA0300294630BD21FA8E
:100AE00004F0294630BD94F0000F83F4801306BF54
:100AF00081F480110134013D4EE77FEA645C18BF48
:100B00007FEA655C29D094EA050F08BF90EA020FDE
:100B100005D054EA000C04BF1946104630BD91EAD6
:100B2000030F1EBF0021002030BD5FEA545C05D1D9
:100B30004000494128BF41F0004130BD14F5800418
:100B40003CBF01F5801130BD01F0004545F0FE418C
:100B500041F470014FF0000030BD7FEA645C1ABFC1
:100B6000194610467FEA655C1CBF0B46024650EAF8
:100B7000013406BF52EA033591EA030F41F4002124
:100B800030BD00BF90F0000F04BF0021704730B5AA
:100B90004FF4806404F132044FF000054FF000017F
:100BA00050E700BF90F0000F04BF0021704730B540
:100BB0004FF4806404F1320410F0004548BF404215
:100BC0004FF000013EE700BF42004FEAE2014FEA6A
:100BD00031014FEA02701FBF12F07F4393F07F4F45
:100BE00081F06051704732F07F4208BF704793F048
:100BF0007F4F04BF41F40021704730B54FF460745B
:100C000001F0004521F000411CE700BF50EA01025D
:100C100008BF704730B54FF000050AE050EA010206
:100C200008BF704730B511F0004502D5404261EB76
:100C300041014FF4806404F132045FEA915C3FF4B7
:100C4000D8AE4FF003025FEADC0C18BF03325FEA54
:100C5000DC0C18BF033202EBDC02C2F1200300FA05
:100C600003FC20FA02F001FA03FE40EA0E0021FA2A
:100C700002F11444BDE600BF70B54FF0FF0C4CF418
:100C8000E06C1CEA11541DBF1CEA135594EA0C0FCA
:100C900095EA0C0F00F0DEF82C4481EA030621EA05
:100CA0004C5123EA4C5350EA013518BF52EA033540
:100CB00041F4801143F4801338D0A0FB02CE4FF0F2
:100CC0000005E1FB02E506F00042E0FB03E54FF022
:100CD0000006E1FB03569CF0000F18BF4EF0010E1A
:100CE000A4F1FF04B6F5007F64F5407404D25FEA16
:100CF0004E0E6D4146EB060642EAC62141EA5551C9
:100D00004FEAC52040EA5E504FEACE2EB4F1FD0C0A
:100D100088BFBCF5E06F1ED8BEF1004F08BF5FEA88
:100D2000500E50F1000041EB045170BD06F000463A
:100D300046EA010140EA020081EA0301B4EB5C04E7
:100D4000C2BFD4EB0C0541EA045170BD41F48011DF
:100D50004FF0000E013C00F3AB8014F1360FDEBF04
:100D6000002001F0004170BDC4F10004203C35DAE0
:100D70000C341BDC04F11404C4F1200500FA05F363
:100D800020FA04F001FA05F240EA020001F0004204
:100D900021F0004110EBD37021FA04F642EB06017A
:100DA0005EEA430E08BF20EAD37070BDC4F10C04A4
:100DB000C4F1200500FA04F320FA05F001FA04F268
:100DC00040EA020001F0004110EBD37041F1000154
:100DD0005EEA430E08BF20EAD37070BDC4F120055F
:100DE00000FA05F24EEA020E20FA04F301FA05F2C7
:100DF00043EA020321FA04F001F0004121FA04F26F
:100E000020EA020000EBD3705EEA430E08BF20EA3E
:100E1000D37070BD94F0000F0FD101F00046400078
:100E200041EB010111F4801F08BF013CF7D041EAFA
:100E3000060195F0000F18BF704703F000465200FE
:100E400043EB030313F4801F08BF013DF7D043EACF
:100E50000603704794EA0C0F0CEA135518BF95EA85
:100E60000C0F0CD050EA410618BF52EA4306D1D10C
:100E700081EA030101F000414FF0000070BD50EA2B
:100E8000410606BF1046194652EA430619D094EAB5
:100E90000C0F02D150EA013613D195EA0C0F05D19F
:100EA00052EA03361CBF104619460AD181EA0301F3
:100EB00001F0004141F0FE4141F470014FF00000AB
:100EC00070BD41F0FE4141F4780170BD70B54FF046
:100ED000FF0C4CF4E06C1CEA11541DBF1CEA1355C6
:100EE00094EA0C0F95EA0C0F00F0A7F8A4EB0504A8
:100EF00081EA030E52EA03354FEA013100F088809F
:100F00004FEA03334FF0805545EA131343EA126367
:100F10004FEA022245EA111545EA10654FEA00261C
:100F20000EF000419D4208BF964244F1FD0404F5D5
:100F3000407402D25B084FEA3202B61A65EB030531
:100F40005B084FEA32024FF480104FF4002CB6EBEE
:100F5000020E75EB030E22BFB61A754640EA0C006E
:100F60005B084FEA3202B6EB020E75EB030E22BFAE
:100F7000B61A754640EA5C005B084FEA3202B6EBEF
:100F8000020E75EB030E22BFB61A754640EA9C00AE
:100F90005B084FEA3202B6EB020E75EB030E22BF7E
:100FA000B61A754640EADC0055EA060E18D04FEA3C
:100FB000051545EA16754FEA06164FEAC30343EADC
:100FC00052734FEAC2025FEA1C1CC0D111F4801FA9
:100FD0000BD141EA00014FF000004FF0004CB6E7A2
:100FE00011F4801F04BF01430020B4F1FD0C88BF41
:100FF000BCF5E06F3FF6AFAEB5EB030C04BFB6EB4C
:10100000020C5FEA500C50F1000041EB045170BD3E
:101010000EF0004E4EEA113114EB5C04C2BFD4EB6B
:101020000C0541EA045170BD41F480114FF0000EEF
:10103000013C90E645EA060E8DE60CEA135594EA6B
:101040000C0F08BF95EA0C0F3FF43BAF94EA0C0F6E
:101050000AD150EA01347FF434AF95EA0C0F7FF4E3
:1010600025AF104619462CE795EA0C0F06D152EA37
:1010700003353FF4FDAE1046194622E750EA41061B
:1010800018BF52EA43067FF4C5AE50EA41047FF42C
:101090000DAF52EA43057FF4EBAE12E74FF0FF3C91
:1010A00006E000BF4FF0010C02E000BF4FF0010C62
:1010B0004DF804CD4FEA410C7FEA6C5C4FEA430CDB
:1010C00018BF7FEA6C5C1BD001B050EA410C0CBF2A
:1010D00052EA430C91EA030F02BF90EA020F00208C
:1010E000704710F1000F91EA030F58BF994208BFF3
:1010F00090422CBFD8176FEAE37040F001007047B0
:101100004FEA410C7FEA6C5C02D150EA013C07D106
:101110004FEA430C7FEA6C5CD6D152EA033CD3D051
:101120005DF8040B704700BF8446104662468C464B
:101130001946634600E000BF01B5FFF7B7FF00287E
:1011400048BF10F1000F01BD4DF808EDFFF7F4FFA7
:101150000CBF012000205DF808FB00BF4DF808ED32
:10116000FFF7EAFF34BF012000205DF808FB00BF55
:101170004DF808EDFFF7E0FF94BF012000205DF877
:1011800008FB00BF4DF808EDFFF7CEFF94BF01202C
:1011900000205DF808FB00BF4DF808EDFFF7C4FF25
:1011A00034BF012000205DF808FB00BF4FEA410C6E
:1011B0007FEA6C5C02D150EA013C0AD14FEA430C51
:1011C0007FEA6C5C02D152EA033C02D14FF000008E
:1011D00070474FF0010070474FEA410212F50012CC
:1011E00015D211D56FF47873B3EB625212D94FEA6E
:1011F000C12343F0004343EA505311F0004F23FA58
:1012000002F018BF404270474FF00000704750EAAC
:10121000013005D111F0004008BF6FF00040704769
:101220004FF00000704700BF08B5642009F0D4FDFE
:10123000FBE708B505F0D0FA05F0E8FB012009F05E
:10124000CBFDF9E708B5074A0021074809F066FD1C
:10125000064B1860064A0021064809F05FFD064B60
:10126000186008BD702E01082912000858100024CB
:101270004C2E010833120008541000242DE9F047C9
:101280008EB0002409940A940B940C940D946D4B29
:10129000D3F8E02042F01002C3F8E020D3F8E020B9
:1012A00002F010020192019AD3F8E02042F0040209
:1012B000C3F8E020D3F8E02002F004020292029A80
:1012C000D3F8E02042F02002C3F8E020D3F8E02079
:1012D00002F020020392039AD3F8E02042F0800249
:1012E000C3F8E020D3F8E02002F080020492049AD0
:1012F000D3F8E02042F00102C3F8E020D3F8E02068
:1013000002F001020592059AD3F8E02042F00202B1
:10131000C3F8E020D3F8E02002F002020692069A19
:10132000D3F8E02042F00802C3F8E020D3F8E02030
:1013300002F008020792079AD3F8E02042F0400238
:10134000C3F8E020D3F8E03003F040030893089B93
:101350003D4E22464FF40161304601F08FF8DFF830
:10136000F8A022464FF48041504601F087F8374FED
:1013700022464FF4C061384601F080F84FF008096A
:10138000CDF824904FF40418CDF8288001250B9552
:1013900009A9304600F068FF102309930A950B94C1
:1013A0000C9409A9304600F05FFF4FF400530993F5
:1013B000CDF828800B9509A9254800F055FF4FF47A
:1013C000006309930A950B9502230C9309A93046F3
:1013D00000F04AFF4FF4804309930A950B940C9454
:1013E00009A9504600F040FF04230993CDF8288056
:1013F0000B9509A9174800F037FF4FF4C063099314
:101400000A950B940C9409A9384600F02DFF4FF46F
:10141000405309930A940B9409A9384600F024FF1D
:1014200022460721484600F0AFFD2246062109204A
:1014300000F0AAFD22460721282000F0A5FD0EB0ED
:10144000BDE8F08700440258001002580018025806
:1014500000080258000C02580004025800B587B07A
:10146000114BD3F8E02042F01002C3F8E020D3F88B
:10147000E03003F010030093009B082301934FF426
:10148000041302930123039301A9084800F0ECFE22
:1014900000220621092000F077FD092000F0B8FDA8
:1014A00007B05DF804FB00BF00440258001002586A
:1014B00000B587B0114BD3F8E02042F00402C3F826
:1014C000E020D3F8E03003F004030093009B4FF4D6
:1014D000005301934FF4041302930123039301A9D2
:1014E000074800F0C1FE00220721282000F04CFD33
:1014F000282000F08DFD07B05DF804FB0044025881
:101500000008025800B587B0114BD3F8E02042F034
:101510000802C3F8E020D3F8E03003F0080300939A
:10152000009B042301934FF40413029301230393BC
:1015300001A9084800F098FE00220721082000F0C9
:1015400023FD082000F064FD07B05DF804FB00BF38
:1015500000440258000C025830B585B000240094B5
:1015600001940294039400F065FD01258DF800506C
:101570008DF801404FF0405301930E238DF8083051
:101580008DF809408DF80A5003238DF80B308DF843
:101590000C508DF80D408DF80E408DF80F406846C8
:1015A00000F066FD8DF8015007238DF808308DF8A6
:1015B0000A408DF80D508DF80F50684600F058FD28
:1015C000042000F045FD05B030BD000008B50268FC
:1015D000034B9A4200D008BD00F09EFCFBE700BF21
:1015E0000000014072B6FEE700B59DB04C2200211C
:1015F00009A80BF0A9FD2022002101A80BF0A4FDF1
:10160000022001F0EDFC00230093214B9A6922F4A3
:1016100040429A619B6903F440430093009B1C4B3A
:101620009B6913F4005FFAD0012209924FF48033D2
:101630000A930223129313930521149160211591AB
:1016400016920422179218930823199300231A93D1
:101650001B9309A801F0EEFCA8B93F2301930321D5
:1016600002910023039308230493402305930693D8
:101670004FF480620792089301A802F0CBF820B9DA
:101680001DB05DF804FBFFF7ADFFFFF7ABFF00BF38
:101690000048025808B5FFF75FFF2F4B5B6913F452
:1016A000003F13D1BFF34F8FBFF36F8F2A4B002240
:1016B000C3F85022BFF34F8FBFF36F8F5A6942F4C4
:1016C00000325A61BFF34F8FBFF36F8F224B5B69BC
:1016D00013F4803F27D1204B0022C3F88420BFF3AE
:1016E0004F8FD3F88040C4F34E3000E01846C4F367
:1016F000C90243F6E07303EA401343EA82731649D2
:10170000C1F860321346013A002BF2D1431E002883
:10171000ECD1BFF34F8F4B6943F480334B61BFF380
:101720004F8FBFF36F8F00F0C9FBFFF75DFFFFF72F
:10173000A5FD00F019FB00F0BDFA00F011F8074814
:1017400000F042F907F076F809F0BAFAFFF77AFDEF
:1017500009F0C8FAFEE700BF00ED00E058110024D0
:1017600000B587B000230093019302930393049381
:1017700005931948194A02600A2242608360C360D7
:1017800013220261052242618361C3610362012267
:1017900042624FF0804282624FF08052C262036325
:1017A000082242638363C36301F01EF970B9012309
:1017B00000934FF00113039341F2883269460648C3
:1017C00001F096F928B907B05DF804FBFFF70AFFAE
:1017D000EDE7FFF707FFF6E75C100024005000522A
:1017E000F0B5B9B00446002133913491359136916A
:1017F0003791B82204A80BF0A7FC22682F4B9A421D
:1018000001D039B0F0BD4FF000720023CDE90423C0
:1018100005230693402207920893099304230A9311
:1018200080230B932023179304A802F0B9FA002811
:1018300041D1234BD3F8D42042F40012C3F8D42072
:10184000D3F8D42002F400120192019AD3F8D420E4
:1018500042F48042C3F8D420D3F8D42002F480426A
:101860000292029AD3F8E02042F02002C3F8E0206E
:10187000D3F8E03003F020030393039B4FF470731D
:1018800033930227349700263596032536950A238D
:1018900037930C4C33A9204600F0E6FC4FF48063EC
:1018A00033933497359636950923379333A92046D9
:1018B00000F0DAFCA5E7FFF795FEBAE7005000520A
:1018C000004402580014025810B596B00446502245
:1018D000002102A80BF038FC6B230493012305932D
:1018E0004FF4807309934FF480530A9308944FF098
:1018F00040731093042311930823139341F2883209
:101900000DEB03010F4800F05BFF48B941F288324C
:1019100001A90C4801F002F820B1FFF763FE01E0D5
:10192000FFF760FE9DF807009DF806301B0443EAB0
:1019300000639DF8050043EA00239DF80400184366
:1019400016B010BD5C10002430B597B005460C46AB
:101950005022002102A80BF0F7FB8DF80440230A67
:101960008DF80530230C8DF80630240E8DF80740D5
:1019700062230493012305934FF4807309934FF47A
:1019800080530A9308954FF04073109304231193EA
:1019900041F2883202A90A4800F012FF48B941F228
:1019A000883201A9064800F06CFF38B1FFF71AFE33
:1019B00004E004480BF088FCFFF714FE17B030BDBC
:1019C0005C100024942E010808B5054B1860054BE7
:1019D000186800230222194680680BF08FFC08BDAE
:1019E000B81000248C060024022804D9034B0922D5
:1019F0001A60002070470120704700BFC0610024BA
:101A0000013801280BD810B514464FF0FF3392B2BD
:101A10000748006804F02AF838B9204610BD054B85
:101A200009221A604FF0FF3070470520F6E700BF2B
:101A3000B8100024C0610024022801D8002070479B
:101A4000024B09221A604FF0FF307047C06100243A
:101A5000024B09221A604FF0FF307047C06100242A
:101A600008B548B94FF0FF3301220748006804F079
:101A700065F838B9012008BD044B09221A604FF0FF
:101A8000FF30F8E70520F6E7B8100024C061002415
:101A9000022804D9044B09221A60002070474FF431
:101AA00000534B60F9E700BFC061002400B583B06C
:101AB0000A4BD3F8F42042F00202C3F8F420D3F822
:101AC000F43003F002030193019B00220F216FF019
:101AD000010000F059FA03B05DF804FB004402581D
:101AE0000F2801D90120704710B58AB004460022A2
:101AF0000146192000F048FA192000F07BFA174B34
:101B00001C60174BD3F8F02042F00102C3F8F0201C
:101B1000D3F8F03003F001030093009B01A902A861
:101B200002F008F801F0F4FF43000E48A0FB032385
:101B30009B0C013B0C480D4A026040F2E732C26048
:101B4000436000230361836003F01EFA10B101209B
:101B50000AB010BD044803F065F8F9E70C00002452
:101B60000044025883DE1B43BC10002400000140E7
:101B7000FEE7FEE7FEE7FEE7FEE7704708B502482E
:101B800003F0A4F808BD00BFBC10002408B502484B
:101B900000F0A1FA08BD00BFC01700240120704763
:101BA000024B16221A604FF0FF307047C0610024CC
:101BB00008B54FF0FF31FFF7F3FFFEE710B403461F
:101BC0000C4A0D490D48006850B10C4800680344A8
:101BD000521A934208D8094A13605DF8044B7047C3
:101BE0000648074C0460F0E7064B0C221A604FF0E1
:101BF000FF30F2E700000524002000000811002457
:101C000008620024C0610024224AD2F8883043F4DC
:101C10007003C2F88830204B1B6803F00F03062BBB
:101C200006D81D4A136823F00F0343F0070313601F
:101C30001A4B1A6842F001021A6000221A611968F0
:101C4000174A0A401A60144B1B6813F0080F06D09D
:101C5000114A136823F00F0343F0070313600F4B7F
:101C600000229A61DA611A620E4999620E49D962BC
:101C70000E4919635A639963DA6319645A641968DF
:101C800021F4802119601A66094B43F2D2021A60CE
:101C9000704700BF00ED00E00020005200440258F1
:101CA0007FEDF6EA000202020000FF01800201015E
:101CB0000040005200B589B00023049305930693B9
:101CC000079301930293039315484FF080420260FB
:101CD000EF224260836040F2E732C26003618023FA
:101CE000836103F051F990B94FF48053049304A930
:101CF0000B4803F087F968B900230193039301A906
:101D0000074803F01BFA40B909B05DF804FBFFF780
:101D100069FCE9E7FFF766FCEEE7FFF763FCF3E732
:101D20000C1100240368B3F1804F00D0704700B558
:101D300083B00C4BD3F8E82042F00102C3F8E8204E
:101D4000D3F8E83003F001030193019B002207213F
:101D50001C2000F019F91C2000F04CF903B05DF8CC
:101D600004FB00BF0044025808B51748174B036036
:101D70004FF4E133436000238360C36003610C22AE
:101D800042618361036243628362436603F0C6FF7C
:101D900070B900210C4804F03AF860B900210A48F3
:101DA00004F05AF850B9084804F012F848B908BDD0
:101DB000FFF718FCEDE7FFF715FCEFE7FFF712FC64
:101DC000F1E7FFF70FFCF2E758110024000C005870
:101DD00010B5B6B00446002131913291339134915F
:101DE0003591B82202A80BF0AFF922681B4B9A423A
:101DF00001D036B010BD04220023CDE9022302A891
:101E000001F0CEFF38BB164BD3F8F42042F00802A5
:101E1000C3F8F420D3F8F42002F008020092009AEC
:101E2000D3F8E02042F00102C3F8E020D3F8E0301C
:101E300003F001030193019B4FF4C063319302232C
:101E400032930023339303233493359331A9054808
:101E500000F00AFACDE7FFF7C5FBD4E7000C005805
:101E60000044025800000258DFF834D0FFF7CCFEDF
:101E70000C480D490D4A002302E0D458C4500433E5
:101E8000C4188C42F9D30A4A0A4C002301E01360BB
:101E90000432A242FBD30AF0F7FDFFF7FBFB7047C9
:101EA000000005240000002438100024903E0108A2
:101EB0003810002408620024FEE7000010B503205B
:101EC00000F050F801F0ACFB0F498B69C3F303231A
:101ED0000E4AD35C03F01F03D8408B6903F00F0355
:101EE000D35C03F01F0320FA03F3094A1360094B84
:101EF00018600F20FFF7F4FD10B10124204610BD3B
:101F00000446FFF7D3FDF9E700440258B02E01085C
:101F10000400002400000024034B1B78034A1168CE
:101F20000B441360704700BF08000024EC1100242C
:101F3000014B1868704700BFEC11002438B5044607
:101F4000FFF7F6FF0546B4F1FF3F02D0044B1B78C4
:101F50001C44FFF7EDFF401BA042FAD338BD00BF81
:101F6000080000240649CB6823F4E0631B041B0C23
:101F7000000200F4E0600343024A1A43CA6070475B
:101F800000ED00E00000FA0500B5174BDB68C3F375
:101F90000223C3F1070CBCF1040F28BF4FF0040C5F
:101FA00003F1040EBEF1060F14D9033B4FF0FF3EC0
:101FB0000EFA0CFC21EA0C0199400EFA03F322EA16
:101FC00003031943002807DB0901C9B2074B195461
:101FD0005DF804FB0023E9E700F00F000901C9B236
:101FE000034B1954F4E700BF00ED00E000E400E00B
:101FF00014ED00E0002807DB00F01F024009012378
:102000009340024A42F82030704700BF00E100E0F0
:1020100000280CDB00F01F02400901239340203010
:10202000034A42F82030BFF34F8FBFF36F8F7047E2
:1020300000E100E0BFF35F8F044B5A6A22F4803264
:102040005A620022C3F89420704700BF00ED00E000
:1020500040F00100054BC3F894005A6A42F4803204
:102060005A62BFF34F8FBFF36F8F704700ED00E0F0
:102070004278164BC3F898200378FBB14368134AA3
:10208000C2F89C30017BC37A1B0643EA0173817A54
:1020900043EAC143417B43EA8143817B43EA4143B5
:1020A000C17B43EA0143417A43EA0123017A43EACF
:1020B000410301780B43C2F8A0307047034B002264
:1020C000C3F89C20C3F8A020704700BF00ED00E0DB
:1020D00070477047704710B50446036803F5805297
:1020E000D2F8602112F0400F06D003F58052D2F8EA
:1020F000342112F0400F5CD1236803F58052D2F8EE
:10210000602112F0010F06D003F58052D2F834217D
:1021100012F0010F56D1236803F58052D2F86021E6
:1021200012F4804F2BD003F58052D2F8342112F4F0
:10213000804F24D0D4F8882042F00802C4F88820C8
:1021400003F58052D2F8602112F4805F44D003F589
:102150008053D3F8602122F46F6222F00D02D20482
:10216000D20CC4F88C20D3F8342122F44042C3F8B6
:102170003421E023C4F88430204608F087FD23682A
:10218000D3F8B42012F4C04F33D12368D3F8B02071
:1021900012F0100F41D12368D3F8B02012F0200FB5
:1021A00048D14FF0B043D3F8A83013F4800F4ED18C
:1021B00010BD03F5805348F24002C3F8602108F0D7
:1021C00055FD99E703F5805348F20102C3F86021F9
:1021D000204608F053FD9EE703F58053D3F86021B5
:1021E00002F4CD42C4F88C204FF4CD42C3F86021F4
:1021F000C2E7D4F8882042F01002C4F88820D3F84F
:10220000B830C4F89030E023C4F88430204608F099
:102210003DFD0023C4F89030B7E7D3F8C03003F099
:102220006003C4F894302046FFF752FF0023C4F83F
:102230009430B0E7D3F8C03003F00F03C4F89830FF
:102240002046FFF746FF0023C4F89830A9E74FF077
:10225000B0434FF48002C3F8A8202046FFF73AFFAE
:10226000A6E7D0F88C007047F0B583B000236BE090
:1022700085685E000324B44025EA0405CC68B440B8
:102280002C438460446824EA0C0C4C68C4F30014AA
:102290009C4044EA0C04446068E0DD08083550F8CE
:1022A000256003F007044FEA840C0F2404FA0CF4B1
:1022B00026EA040E0C6904FA0CF444EA0E0440F811
:1022C00025406BE0092400E0002404FA0EF42C43BE
:1022D0000CF1020C664D45F82C404FF0B0442568D7
:1022E000D44325EA02064F6817F4801F01D042EA62
:1022F00005064FF0B0452E606D6804EA05064F688C
:1023000017F4001F01D042EA05064FF0B0456E6099
:10231000D5F8845004EA05064F6817F4003F01D051
:1023200042EA05064FF0B045C5F88460D5F8805004
:102330002C404E6816F4803F01D042EA05044FF06D
:10234000B042C2F8804001330A6832FA03F400F068
:102350008C804FF0010C0CFA03FC1CEA0202F2D054
:102360004C6804F00304013C012C81D94C6804F052
:102370000304032C0CD0C4685D004FF0030C0CFA6E
:1023800005FC24EA0C0C8C68AC4044EA0C04C460E4
:102390004C6804F00304022C3FF47FAF04684FEA5A
:1023A000430E4FF0030C0CFA0EFC24EA0C0C4C68A4
:1023B00004F0030404FA0EF444EA0C0404604C68CC
:1023C00014F4403FBFD02B4CD4F8F45045F0020534
:1023D000C4F8F450D4F8F44004F002040194019CD1
:1023E0004FEA930C0CF10205214C54F8255003F0F0
:1023F00003044FEA840E0F2404FA0EF425EA0405C0
:102400001D4CA0423FF460AF04F58064A0421ED092
:1024100004F58064A0421CD004F58064A0421AD068
:1024200004F58064A04218D004F58064A04216D060
:1024300004F58064A04214D004F58064A04212D058
:1024400004F50064A0423FF43DAF0A243DE70124B7
:102450003BE7022439E7032437E7042435E7052462
:1024600033E7062431E707242FE703B0F0BD00BFB0
:102470000004005800440258000002580AB181616B
:102480007047090481617047436901EA030221EA48
:10249000030141EA024181617047704708B54FF07E
:1024A000B043D3F88830034200D108BD4FF0B043A9
:1024B000C3F88800FFF7F1FFF7E70000F0B5026806
:1024C000136823F040531360836833B902681368BC
:1024D00023F080034C68234313600B68022B4DD01C
:1024E000032B55D0036803F5807203F5847E03F552
:1024F000887C03F59073CC6C8D6C2C431460CC6A93
:102500005CB18C6A1C60136823F47C13CC6A4D6B3D
:102510002C430D6B2C4323431360DEF8003023F073
:102520001F034C6C2343CEF800308B6B2BB10B6830
:102530001BB9CB6B0468013B2364CB68002B73D0C1
:10254000CC69002C48D08D6B65B31768484E3E406F
:102550004F693B430F693B431C434B6A1C430B6A67
:102560001C432C430D6C2C43344314608B68CCF813
:10257000003003688A699A640020F0BD036803F59F
:10258000C07203F5C47E03F5C87C03F5D073B2E7CF
:10259000036803F5A07203F5A47E03F5A87C03F598
:1025A000B073A8E71668334D35404E6933430E6962
:1025B00033431C434B6A1C430B6A1C432C4314607B
:1025C000C36AB3F1805FD1D14B69082BCED11368B8
:1025D00043F000631360C9E78C6B84B1156826482B
:1025E00028404D692B430D692B431C430B6C1C4346
:1025F000044314608B68CCF800300020BDE71468F9
:1026000024F03F044D692B430D692B432343136092
:10261000C36AB3F1805FEDD14B69082BEAD113682F
:1026200043F000631360E5E7CB69E3B18C6B84B1E1
:102630001668124D35404E6A33430E6A33432343C6
:102640000C6C23432B43136003688A699A6400204F
:1026500093E7146824F47C544D6A2B430D6A2B4392
:1026600023431360F0E708234365012085E700BF9B
:10267000C0C0FFF0C0C0FFFFC0FFFFF0FFC0FFF011
:10268000431EDBB2012B01D901207047002965D020
:1026900010B400230B604B608B60CB600B61022891
:1026A00002D00024002213E02D4B1B6813F0010F11
:1026B00001D12C4CF6E74FF40074F3E7501C40F0C6
:1026C0008070C86036E0531C43F080730B610132A8
:1026D000012A3FD89000244B1B5813F0010F06D05D
:1026E00084EA030010F0020F01D1501C086013F0BF
:1026F000100F06D084EA030010F0200F01D1501C07
:10270000486013F4807F06D084EA030010F4007F51
:1027100001D1501C886013F4803F0BD084EA030081
:1027200010F4802F06D113F4003FC7D1501C40F4A1
:102730008030C86013F0807FC9D084EA030010F0B5
:10274000806FC4D113F0007FBDD1531C43F480339C
:102750000B61BCE700205DF8044B70470120704717
:1027600000B400522202040404B400522DE9F843DC
:1027700005460F4616469946DDF820802C68246AE7
:102780003C4214BF4FF0010C4FF0000CB44514D084
:10279000B8F1FF3FF2D0FFF7CBFBA0EB09004045BB
:1027A00002D8B8F1000FE9D14FF400732B656B6DBF
:1027B00043F001036B65012000E00020BDE8F883D1
:1027C0002DE9F04182B0044688461746FFF7B0FB7A
:1027D0000646256D022D09D0142D24D0242D28D095
:1027E00010236365012002B0BDE8F081E368B3F116
:1027F000806FF1D000973346002220212046FFF75A
:10280000B5FF0028EFD1606541462046FFF756FE30
:102810000028E8D1D8F8383093B1D8F80030D3B9CF
:1028200004232365DFE7D8F80030023B012BD5D81D
:10283000E0E7D8F80030032B18BF012BD0D1D9E73F
:1028400000973346012202212046FFF78FFF2368BD
:1028500002225A62C7E7012B07D0022BC3D1236D96
:10286000142B0BD024232365BDE7236D242B02D02A
:1028700014232365B7E704232365B4E70423236502
:10288000B1E72DE9F04182B0044688461646FFF7CD
:102890004FFB2768B8F1000F0AD00546236D042BC3
:1028A0000AD0102363650123184602B0BDE8F08109
:1028B000082363650123F7E73B6C0133A364A36C32
:1028C0006364C4F840803B6823F040533B6000964B
:1028D0002B46012204212046FFF748FF034660B93A
:1028E000226C127887F85020216C01312164A16C90
:1028F0000139A164A26C002AE9D1002BD4D1009641
:102900002B46012202212046FFF730FF0346002814
:10291000CAD1216802224A622265C5E72DE9F04149
:1029200082B0044688461746FFF702FB2568AA6C6A
:10293000D5F81011B8F1000F0AD00646236D042B0C
:102940000AD0102363650123184602B0BDE8F08168
:10295000082363650123F7E72B6C0133A364A36CA1
:102960006364C4F840802B6823F0405343F08053E5
:102970002B60E368B3F1806F07D02368D3F80001C0
:1029800010F4E06F2AD09A6401E023689A640097FB
:102990003346012206212046FFF7E8FE034660B9D0
:1029A000226C95F850101170216C01312164A16CDA
:1029B0000139A164A26C002AE9D1002BC4D100978F
:1029C0003346012202212046FFF7D0FE03460028AD
:1029D000BAD1216802224A622265B5E7C3F8101114
:1029E000D5E781650020704730B583B00446FFF716
:1029F0009FFA002C77D0054600236365236D13B141
:102A0000002003B030BD2046FEF7EAFE41F28831D7
:102A10002046FFF7E6FF20688268344B1340E268E7
:102A20002169013942EA01426169013942EA012220
:102A3000616B0A43E1690A43134383602268D368E8
:102A400023F4E023216A0B43D360216BA36B22683C
:102A500043EA014313612368E26B5A6121680B6802
:102A600023F4F8536268013A43EA02230B60A36D32
:102A700000932B46002220212046FFF777FE0028F6
:102A8000BFD12168CB6823F0FF03626A013A134388
:102A9000CB602268136823F04003A1680B431360E6
:102AA0002168D1F8083123F0A043A26AE56A2A43DD
:102AB0001343C1F808312268136843F0010313601F
:102AC000A369022B06D0E368B3F1806F08D002231C
:102AD000236596E72268936843F002039360F2E768
:102AE000012323658DE701208BE700BFF4F8E0F8B0
:102AF0002DE9F0438DB081460D4602689A4B9A420B
:102B000005D04FF00008012600231F4604E04FF0D7
:102B100001080026F8E72346012B0FD85C1CE4B21D
:102B200003EB43030DEBC3012046FFF7A9FD00288B
:102B3000F1D00823C9F854300127ECE7002F40F00A
:102B40000C81894B1B6813F0010F00F00A81864A43
:102B5000136823F0010313600121844B1B6813F0F9
:102B6000010F07D0814A136823F00103136041F07D
:102B70000201C9B206EB46030CAA02EBC30353F8E9
:102B8000283C013B7A4800EB83035A6822F48072A8
:102B90005A60036813F0010F00F02E81036823F0E0
:102BA00001030360B8F1000F40F0E480D5F800E0C5
:102BB000434608EB48020CA800EBC20252F8300C66
:102BC000864518D008EB48080CAA02EBC80858F84C
:102BD0002C2C6C6894420ED058F8282CAC68944287
:102BE00009D058F8242CEC68944204D058F8202CD2
:102BF0002C69944248D1864500F047810138800015
:102C00005B4A0244506820F00100506003EB43022D
:102C10000CA800EBC20252F82C2C3AB1013A9200F7
:102C200053481044426822F01002426003EB430014
:102C30000CAA02EBC00050F8282C013A92004C4C30
:102C40001444626822F48072626050F8242C4AB105
:102C5000013A02F00102920045481044426822F411
:102C60008032426003EB43030CAA02EBC30353F828
:102C7000203C4BB1013B03F001039B003C4A1A444A
:102C8000536823F080735360AA68013A384800EB18
:102C90008202536823F4407343EA462343F480736B
:102CA00053606B69013B0268C2F30742934205D946
:102CB000026822F47F0242EA034303602C4B1B6844
:102CC00013F0010F00F027812B68013B9B00284A7D
:102CD0001A44536823F0030343F0010353606B6805
:102CE0004BB1013B9B00224A1A44536823F0300346
:102CF00043F010035360EB6813F4803F00F0EB8067
:102D0000013B03F001039B00194A1A44536823F462
:102D1000E02343F4803353602B6913F4803F00F0C9
:102D2000EA80013B03F001039B00114A1A445368F7
:102D300023F4E02343F44033536011F0010F04D037
:102D4000094A136843F00103136011F0020F04D025
:102D5000064A136843F00103136038460DB0BDE81E
:102D6000F0833946F9E600BF0050005200A000523F
:102D700000B40052434608EB48000CAA02EBC00026
:102D800050F8302C013A9200944C1444626842F09E
:102D90000202626050F82C2C3AB1013A92008F483E
:102DA0001044426842F02002426003EB43020CA848
:102DB00000EBC20252F8242C4AB1013A02F001029F
:102DC000920086481044426842F48022426003EB3D
:102DD00043030CAA02EBC30353F8203C002B3FF43F
:102DE000E5AE013B03F001039B007C4A1A445368A3
:102DF00043F080635360D9E606EB46030CAA02EB6E
:102E0000C30353F8303C002B3FF4D0AE013B9B0092
:102E1000724A1A44536823F00103536006EB4603D9
:102E20000CAA02EBC30353F82C3C3BB1013B9B00C3
:102E30006A4A1A44536823F01003536006EB4603B2
:102E40000CAA02EBC30353F8243C4BB1013B03F043
:102E500001039B00614A1A44536823F48033536092
:102E600006EB46030CAA02EBC30353F8203C002BED
:102E70003FF49CAE013B03F001039B00574A1A4408
:102E8000536823F08073536090E66C6803EB430251
:102E90000DF1300C0CEBC20252F82C2C94427FF452
:102EA000ADAEEC6803EB43020CEBC20252F8242CEB
:102EB00094427FF4A3AE2C6903EB43020CEBC202F5
:102EC00052F8202C94427FF499AE444A136843F0A0
:102ED00001031360D8E6002B3FF41EAF013B03F063
:102EE00001039B003D4A1A44536823F0E06343F01A
:102EF0008073536010E7002B3FF41FAF013B03F0DA
:102F000001039B00354A1A44536823F0E06343F001
:102F10004073536011E72B68013B9B002F4A1A4412
:102F2000536823F0030343EA460343F0010353606D
:102F30006B685BB1013B9B00284A1A44536823F03D
:102F4000300343EA461343F010035360EB6813F475
:102F5000803F20D0013B03F001039B001F4A1A442D
:102F6000536823F4E02343EA864343F480335360F9
:102F70002B6913F4803F1FD0013B03F001039B003A
:102F8000164A1A44536823F4E02343EA864646F47B
:102F900040365660D1E6002BEAD0013B03F0010336
:102FA0009B000E4A1A44536823F0E06343EA8663A9
:102FB00043F080735360DBE7002B3FF4BEAE013B70
:102FC00003F001039B00054A1A44536823F0E063B1
:102FD00043EA866646F040765660AEE600B400529C
:102FE000134BDB6813F0040F07D1114BDB6803F0C0
:102FF000070383421AD00120704710B50C4AD368EA
:1030000023F007031843D060FEF792FF0446084BF5
:103010005B6813F4005F07D1FEF78AFF001BB0F571
:103020007A7FF4D9012000E0002010BD0020704715
:1030300000480258002800F0D78238B504460368DB
:1030400013F0010F25D0A04A136903F03803926AE8
:10305000102B15D0182B0FD06368B3F5803F3FD0ED
:10306000002B53D1984B1A6822F480321A601A68E8
:1030700022F480221A6038E002F00302022AEBD127
:10308000914B1B6813F4003F03D06368002B00F0E2
:10309000AD82236813F0020F00F088808A4A13691A
:1030A000926A13F038035AD0182B55D0E368002BDE
:1030B00000F0A98084490A6822F0190213430B60CA
:1030C000FEF736FF0546804B1B6813F0040F40F0F7
:1030D0009180FEF72DFF401B0228F4D903208CE2DB
:1030E000794A136843F48033136063682BB3FEF7A7
:1030F0001FFF0546744B1B6813F4003FC9D1FEF750
:1031000017FF401B6428F5D9032076E2B3F5A02F02
:1031100009D06D4B1A6822F480321A601A6822F4C2
:1031200080221A60E1E7684B1A6842F480221A6034
:103130001A6842F480321A60D7E7FEF7F9FE0546B6
:10314000614B1B6813F4003FA3D0FEF7F1FE401B58
:103150006428F5D9032050E212F0030FA6D15A4B90
:103160001B6813F0040F03D0E368002B00F04082CB
:10317000554A136823F01903E1680B431360FEF707
:10318000D7FE0546504B1B6813F0040F06D1FEF71F
:10319000CFFE401B0228F5D903202EE24A4A53688D
:1031A00023F0FE43216943EA01635360236813F06F
:1031B000100F51D0444A136903F03803926A082B68
:1031C00039D0182B33D0E369002B69D03E4A1368FD
:1031D00043F080031360FEF7ABFE05463A4B1B68D5
:1031E00013F4807F53D1FEF7A3FE401B0228F5D9CC
:1031F000032002E2344A536823F0FE43216943EA84
:1032000001635360D2E7304A136823F0010313606F
:10321000FEF78EFE05462C4B1B6813F0040FC5D03D
:10322000FEF786FE401B0228F5D90320E5E102F0F7
:103230000302012AC7D1244B1B6813F4807F03D0FB
:10324000E369802B40F0D6811F4AD36823F07C537A
:10325000216A43EA0163D360236813F0080F49D061
:103260006369002B32D0184A536F43F00103536750
:10327000FEF75EFE0546144B5B6F13F0020F39D16B
:10328000FEF756FE401B0228F5D90320B5E10E4A91
:10329000D36823F07C53216A43EA0163D360DBE700
:1032A000094A136823F080031360FEF741FE0546C8
:1032B000054B1B6813F4807FCED0FEF739FE401B10
:1032C0000228F5D9032098E1004402589D4A536F23
:1032D00023F001035367FEF72BFE0546994B5B6F06
:1032E00013F0020F06D0FEF723FE401B0228F5D98B
:1032F000032082E1236813F0200F29D0A3699BB13A
:10330000904A136843F480531360FEF711FE05469C
:103310008C4B1B6813F4005F1AD1FEF709FE401BAB
:103320000228F5D9032068E1864A136823F4805304
:103330001360FEF7FDFD0546824B1B6813F4005F2A
:1033400006D0FEF7F5FD401B0228F5D9032054E115
:10335000236813F0040F21D1636A002B00F04C8125
:10336000784A126902F03802182A00F0F380022B22
:1033700075D0744A136823F080731360FEF7D8FD8C
:103380000446704B1B6813F0007F00F0D880FEF7F6
:10339000CFFD001B0228F4D903202EE16A4A1368EE
:1033A00043F480731360FEF7C3FD0546664B1B684C
:1033B00013F4807F06D1FEF7BBFD401B6428F5D9CE
:1033C00003201AE1A368012B0AD00BBB5D4B1A6FD7
:1033D00022F001021A671A6F22F004021A6704E051
:1033E000584A136F43F001031367A36833B3FEF722
:1033F0009FFD0546534B1B6F13F0020FACD1FEF738
:1034000097FD401B41F288339842F3D90320F4E042
:10341000052B09D04B4B1A6F22F001021A671A6F65
:1034200022F004021A67E0E7464B1A6F42F00402EA
:103430001A671A6F42F001021A67D6E7FEF778FDA5
:103440000546404B1B6F13F0020F85D0FEF770FD51
:10345000401B41F288339842F3D90320CDE0394A2A
:10346000136823F080731360FEF762FD0546354B49
:103470001B6813F0007F06D0FEF75AFD401B0228A0
:10348000F5D90320B9E02F4B996A304A0A40A16A66
:10349000E06A41EA00110A439A62226B013AC2F3E0
:1034A0000802616B0139490289B20A43A16B0139F3
:1034B000090401F4FE010A43E16B0139090601F038
:1034C000FE410A431A63DA6A22F00102DA62596B9A
:1034D0001F4A0A40A16C42EAC1025A63DA6A22F02A
:1034E0000C02216C0A43DA62DA6A22F00202616C91
:1034F0000A43DA62DA6A42F48032DA62DA6A42F461
:103500000032DA62DA6A42F48022DA62DA6A42F07F
:103510000102DA621A6842F080721A60FEF708FD52
:103520000446084B1B6813F0007F06D1FEF700FD30
:10353000001B0228F5D903205FE000205DE0002099
:103540005BE000BF00440258004802580CFCFFFF3B
:103550000700FFFF30498A6A086B012B4ED002F04A
:103560000303A16A8B424BD1C2F30512E36A9A426C
:1035700048D1C0F30802236B013B9A4244D1C0F307
:103580004622636B013B9A4240D1C0F30642A36BD3
:10359000013B9A423CD1C0F30660E36B013B984289
:1035A00038D11D4B5B6BC3F3CC03A26C9A4201D1A3
:1035B000002022E0184AD36A23F00103D362FEF709
:1035C000B7FC0546FEF7B4FCA842FBD0124A516B8B
:1035D000124B0B40A16C43EAC1035363D36A43F01F
:1035E0000103D362002008E001207047012004E0BD
:1035F000012002E0012000E0002038BD0120FCE7AE
:103600000120FAE70120F8E70120F6E70120F4E7BE
:103610000120F2E70120F0E7004402580700FFFF15
:10362000744B1B6903F03803102B00F0DE80182B5D
:1036300010D00BB1704870476E4B1B6813F0200F11
:1036400000F0D5806B4B1868C0F3C1006B4B23FAB8
:1036500000F0704710B4674A916A01F00301946A60
:10366000C4F30510D36A03F0010C536BC3F3CC030E
:103670000CFB03F307EE903AF8EE677A14F47C7FC4
:1036800000F09380012965D0022900F09180E1B11A
:1036900007EE100AF8EE476A9FED596A86EE267A21
:1036A000544B1B6BC3F3080306EE903AF8EE666AC0
:1036B0009FED546A67EE867A76EEA77AF7EE006A97
:1036C00077EEA67A27EE277A60E0136813F0200FD2
:1036D00023D011461268C2F3C102484BD34007EE13
:1036E000103AF8EE476A07EE100AB8EE476A86EE1F
:1036F000867A0B6BC3F3080306EE903AF8EE666A1F
:103700009FED406A67EE867A76EEA77AF7EE006A5A
:1037100077EEA67A27EE277A38E007EE100AF8EE61
:10372000476A9FED396A86EE267A324B1B6BC3F3EC
:10373000080306EE903AF8EE666A9FED326A67EE8D
:10374000867A76EEA77AF7EE006A77EEA67A27EE0B
:10375000277A1BE007EE100AF8EE476A9FED286A09
:1037600086EE267A234B1B6BC3F3080306EE903AD2
:10377000F8EE666A9FED236A67EE867A76EEA77AA0
:10378000F7EE006A77EEA67A27EE277A194B1B6BC5
:10379000C3F34623013307EE903AF8EE677AC7EE9B
:1037A000276AFCEEE67A17EE900A5DF8044B704744
:1037B00007EE100AF8EE476A9FED146A86EE267A45
:1037C0000C4B1B6BC3F3080306EE903AF8EE666AE7
:1037D0009FED0C6A67EE867A76EEA77AF7EE006ABE
:1037E00077EEA67A27EE277AD0E709487047034894
:1037F000704700BF0044025800093D000090D0030C
:103800000024744A000000390024744C20BCBE4BD4
:1038100040787D01002800F0328170B50D460446E5
:103820009B4B1B6803F00F038B420BD2984A136823
:1038300023F00F030B431360136803F00F038B4255
:1038400040F01F81236813F0040F0CD02269914BC4
:103850009B6903F070039A4205D98E498B6923F066
:1038600070031A438A61236813F0080F0CD0626951
:10387000884BDB6903F070039A4205D98549CB690F
:1038800023F070031A43CA61236813F0100F0CD0A1
:10389000A269804BDB6903F4E0639A4205D97D4954
:1038A000CB6923F4E0631A43CA61236813F0200F45
:1038B0000CD0E269774B1B6A03F070039A4205D97A
:1038C00074490B6A23F070031A430A62236813F0E9
:1038D000020F0CD0E2686F4B9B6903F00F039A4212
:1038E00005D96C498B6923F00F031A438A61236859
:1038F00013F0010F41D0674A936923F47063A16804
:103900000B4393616368022B0AD0032B27D0012B52
:103910002CD0604A126812F0040F06D10120ADE0ED
:10392000126812F4003F00F0AE805A490A6922F092
:10393000070213430B61FEF7FBFA0646554B1B6962
:1039400003F038036268B3EBC20F16D0FEF7F0FA4B
:10395000801B41F288339842F0D903208EE04D4A13
:10396000126812F0007FE0D1012087E0494A126816
:1039700012F4807FD9D1012080E0236813F0020F78
:103980000CD0E268434B9B6903F00F039A4205D2C7
:1039900040498B6923F00F031A438A613C4B1B6833
:1039A00003F00F03AB420AD9394A136823F00F031F
:1039B0002B431360136803F00F03AB4265D12368F8
:1039C00013F0040F0CD02269324B9B6903F0700393
:1039D0009A4205D22F498B6923F070031A438A61FA
:1039E000236813F0080F0CD062692A4BDB6903F0DF
:1039F00070039A4205D22749CB6923F070031A431A
:103A0000CA61236813F0100F0CD0A269214BDB6947
:103A100003F4E0639A4205D21E49CB6923F4E063C4
:103A20001A43CA61236813F0200F0CD0E269194BC6
:103A30001B6A03F070039A4205D216490B6A23F001
:103A400070031A430A62FFF7EBFD12498B69C3F357
:103A50000323114AD35C03F01F03D8408B6903F0A2
:103A60000F03D35C03F01F0320FA03F30B4A136028
:103A70000B4B18600B4B1868FEF732F870BD012035
:103A800070470120FAE70120F8E70120F6E700BFC0
:103A90000020005200440258B02E01080400002407
:103AA000000000240C00002408B5FFF7B9FD0B4A04
:103AB0009369C3F303230A49CB5C03F01F0320FA85
:103AC00003F3926902F00F02885C00F01F0023FAF2
:103AD00000F0044A1060044A136008BD0044025814
:103AE000B02E0108040000240000002408B5FFF7F0
:103AF000DBFF054BDB69C3F30213044AD35C03F01D
:103B00001F03D84008BD00BF00440258B02E010872
:103B100008B5FFF7C9FF054BDB69C3F30223044A6D
:103B2000D35C03F01F03D84008BD00BF0044025817
:103B3000B02E01083F230360114B1A6902F00702FF
:103B400042609A6902F4706282609A6902F00F0220
:103B5000C2609A6902F070020261DA6902F07002D2
:103B60004261DA6902F4E06282611B6A03F0700369
:103B7000C361044B1B6803F00F030B60704700BF69
:103B80000044025800200052404B9B6A03F003039C
:103B9000032B79D070B505460E463C4A136823F0D6
:103BA00080631360FEF7C4F90446384B1B6813F0BA
:103BB000006F06D0FEF7BCF9031B022BF5D90320DA
:103BC00070BD324B9A6A22F47C32296842EA013293
:103BD0009A626A68013AC2F30802A9680139490287
:103BE00089B20A43E9680139090401F4FE010A4374
:103BF00029690139090601F0FE410A439A63DA6A2C
:103C000022F0C00269690A43DA62DA6A22F020020D
:103C1000A9690A43DA62DA6A22F01002DA62D96B21
:103C20001B4A0A40E96942EAC102DA63DA6A42F0F1
:103C30001002DA62C6B91A46DB6A43F40023D36283
:103C4000124A136843F080631360FEF771F904466B
:103C50000E4B1B6813F0006F14D1FEF769F9001BBF
:103C60000228F5D90320ABE7012E05D0074AD36A15
:103C700043F40013D362E3E7044AD36A43F48013A6
:103C8000D362DDE700209BE7012070470044025823
:103C90000700FFFF404B9B6A03F00303032B79D01F
:103CA00070B505460E463C4A136823F080531360F6
:103CB000FEF73EF90446384B1B6813F0005F06D050
:103CC000FEF736F9031B022BF5D9032070BD324BEA
:103CD0009A6A22F07C72296842EA01529A626A6802
:103CE000013AC2F30802A9680139490289B20A43BC
:103CF000E9680139090401F4FE010A43296901391F
:103D0000090601F0FE410A431A64DA6A22F44062AD
:103D100069690A43DA62DA6A22F40072A9690A431D
:103D2000DA62DA6A22F48072DA62596C1B4A0A405B
:103D3000E96942EAC1025A64DA6A42F48072DA62DC
:103D4000C6B91A46DB6A43F48003D362124A136889
:103D500043F080531360FEF7EBF804460E4B1B68EC
:103D600013F0005F14D1FEF7E3F8001B0228F5D929
:103D70000320ABE7012E05D0074AD36A43F08073D6
:103D8000D362E3E7044AD36A43F40003D362DDE776
:103D900000209BE701207047004402580700FFFF06
:103DA000F8B50446036813F0006F30D0436EB3F5E6
:103DB000001F26D00ED8EBB1B3F5801F07D102212A
:103DC0000830FFF7E1FE054645B12E4621E0012609
:103DD00035461EE0B3F5401F09D100259F4A136DFB
:103DE00023F44013616E0B431365002611E0012696
:103DF00035460EE0994AD36A43F40033D362002576
:103E0000ECE702212830FFF745FF0546DCE70026F6
:103E10003546236813F4807F27D0A36D042B20D868
:103E2000DFE803F00311180808008C4AD36A43F452
:103E30000033D362C5B9894A136D23F00703A16D1E
:103E40000B43136511E0002104F10800FFF79CFE0D
:103E50000546EFE7002104F12800FFF71BFF0546A8
:103E6000E8E70126354600E02E46236813F4806F0C
:103E700022D0D4F8A430B3F5800F3FD00DD8BBB317
:103E8000B3F5001F06D1002104F10800FFF77CFE06
:103E9000054608E0012635460EE0B3F5000F02D0D6
:103EA000B3F5200F1ED185BB6C4A936D23F46003DC
:103EB000D4F8A4100B439365236813F4006F39D032
:103EC000D4F8A830B3F1007F5AD023D8002B51D0BA
:103ED000B3F1807F1BD1002104F10800FFF754FEED
:103EE00005461DE0B3F5C00FDDD001263546E3E7FA
:103EF0005A4AD36A43F40033D362D4E7002104F171
:103F00002800FFF7C7FE0546CDE72E46D4E7012679
:103F100035460FE0B3F1806F02D0B3F1A06F23D12B
:103F2000002D34D14D4A936D23F0E063D4F8A810EE
:103F30000B439365236813F0007F31D0E36C202B93
:103F400042D029D833B1102B23D1444AD36A43F449
:103F50000033D362002D3ED1404AD36C23F03003AE
:103F6000E16C0B43D3641BE0B3F1407FD8D0012652
:103F70003546DFE7394AD36A43F40033D362CFE7EB
:103F8000002104F12800FFF785FE0546C8E72E460C
:103F9000D0E70126354603E0302BDBD0012635463D
:103FA000236813F4805F3BD0E36DB3F5005F2FD03F
:103FB00016D83BB3B3F5805F0FD1002104F10800A0
:103FC000FFF7E2FD054611E0022104F10800FFF7CA
:103FD000DBFD0546BEE72E46E2E7012635461FE03B
:103FE000B3F5405F02D0B3F5804F08D1BDB91B4A8D
:103FF000136D23F4E043E16D0B43136510E00126DC
:1040000035460DE0154AD36A43F40033D362EDE739
:10401000002104F12800FFF73DFE0546E6E72E46A5
:10402000236813F4005F29D0236EB3F5003F44D01A
:1040300019D843B1B3F5803F12D1012104F1080032
:10404000FFF7A2FD0546002D3ED1044A136D23F46F
:10405000E023216E0B43136510E000BF00440258BB
:10406000012635460AE0B3F5802FECD0B3F5A02F3A
:10407000E9D0B3F5403FE6D001263546236813F476
:10408000804F31D0D4F8AC30B3F1005F45D020D8A8
:1040900043B1B3F1805F19D1012104F10800FFF7AA
:1040A00073FD0546002D3FD18F4A936D23F0E04309
:1040B000D4F8AC100B43936516E0012104F12800FD
:1040C000FFF7E8FD0546BEE72E46D7E70126354651
:1040D0000AE0B3F1804FE5D0B3F1A04FE2D0B3F1E5
:1040E000405FDFD001263546236813F4004F09D026
:1040F000E36EB3F1805F19D0B3F1005F24D0D3B188
:1041000001263546236813F0807F33D0A36C032B40
:104110005BD8DFE803F027225327012104F12800B0
:10412000FFF7B8FD0546BDE72E46DDE76E4AD36AC8
:1041300043F40033D36275B96B4A136D23F04053D7
:10414000E16E0B431365DDE7012104F10800FFF781
:104150001BFD0546EFE72E46D4E7634AD36A43F4D6
:104160000033D362A5BB604AD36C23F00303A16C78
:104170000B43D364236813F4800F2BD1236813F00F
:10418000010F00F0A380A36F282B00F29D80DFE8D1
:1041900003F08B9B9B9B9B9B9B9B859B9B9B9B9BD8
:1041A0009B9B949B9B9B9B9B9B9B8B9B9B9B9B9B76
:1041B0009B9B8B9B9B9B9B9B9B9B8B00022104F15E
:1041C0000800FFF7E1FC0546CCE701263546D1E7BC
:1041D0002E46CFE7454A136843F480731360FDF71A
:1041E000A7FE0746414B1B6813F4807F05D1FDF7FE
:1041F0009FFEC01B6428F5D90325002D4AD13A4BF8
:104200001B6FD4F8B020534013F4407F0CD0364BD2
:104210001A6F22F44072196F41F480311967196FD7
:1042200021F4803119671A67D4F8B030B3F5807F74
:1042300015D08DBBD4F8B03003F44072B2F5407F96
:104240001ED0294A136923F47C53136126490B6F4E
:10425000D4F8B020C2F30B0213430B678EE7FDF7CF
:1042600067FE0746204B1B6F13F0020FE1D1FDF7ED
:104270005FFEC01B41F288339842F3D90325D8E78B
:104280001948026922F47C52194901EA13131343B5
:104290000361DBE72E4671E72E466FE7012104F14B
:1042A0000800FFF771FC0546E5B90F4A536D23F08E
:1042B0003803A16F0B43536508E0012104F1280086
:1042C000FFF7E8FC0546EFE701263546236813F0C3
:1042D000020F1DD0636F052B2ED8DFE803F0110B02
:1042E000261111112E46F1E70044025800480258E9
:1042F000CFFFFF00012104F10800FFF745FC054650
:10430000EDB9A94A536D23F00703616F0B43536561
:10431000236813F0040F23D0D4F89030052B45D830
:10432000DFE803F0150F3D151515012104F12800F4
:10433000FFF7B0FC0546E3E701263546E8E72E46E1
:10434000E6E7012104F10800FFF71EFC054685BBE6
:10435000954A936D23F00703D4F890100B439365AF
:10436000236813F0200F34D0D4F88C30B3F1005F01
:104370004ED023D843B1B3F1805F1CD1002104F1AA
:104380000800FFF701FC0546002D48D1864A536D11
:1043900023F0E043D4F88C100B43536519E001215E
:1043A00004F12800FFF776FC0546D0E701263546E4
:1043B000D6E72E46D4E7012635460AE0B3F1804F12
:1043C000E2D0B3F1A04FDFD0B3F1405FDCD00126E3
:1043D0003546236813F0400F31D0D4F89830B3F548
:1043E000006F4DD020D843B1B3F5806F19D10021B3
:1043F00004F10800FFF7C8FB0546002D47D16A4AC3
:10440000936D23F4E053D4F898100B43936516E0B2
:10441000022104F12800FFF73DFC0546B4E72E46D3
:10442000D7E7012635460AE0B3F5805FE5D0B3F55E
:10443000A05FE2D0B3F5406FDFD001263546236898
:1044400013F0800F33D0D4F89C30B3F5804F00F0D8
:10445000A18021D843B1B3F5005F1AD1002104F146
:104460000800FFF791FB0546002D40F09A804E4A68
:10447000936D23F46043D4F89C100B43936516E0CE
:10448000022104F12800FFF705FC0546B5E72E469A
:10449000D5E7012635460AE0B3F5004FE4D0B3F581
:1044A000204FE1D0B3F5C04FDED00126354623685A
:1044B00013F0080F0CD0D4F88030B3F5805F75D0BE
:1044C000394A536D23F44053D4F880100B4353659D
:1044D000236813F0100F0CD0D4F89430B3F5807F1C
:1044E0006DD0314A936D23F44073D4F894100B438C
:1044F0009365236813F4002F0BD0D4F8A030B3F5E4
:10450000803F75D0B3F5003F68D0002B60D0012606
:104510003546236813F4802F0CD0D4F88430B3F5DB
:10452000001F7DD0B3F5401F70D0B3F5801F68D059
:1045300001263546236813F4803F08D0236D002BF5
:1045400077D0B3F5803F00F082800126354623689E
:1045500013F0005F40F08480236813F4003F00F004
:104560008C80E36FB3F5807F00F0DF8040F28280C3
:10457000B3F5007F03D0B3F5407F40F0D480002D29
:1045800040F0D980084A536D23F44073E16F0B4328
:10459000536572E0022104F12800FFF77BFB05461A
:1045A00062E72E4683E700BF00440258022104F16F
:1045B0002800FFF76FFB002882D0012680E7022148
:1045C00004F12800FFF766FB00288AD0012688E75F
:1045D000002104F10800FFF7D7FA05467DB9724AB9
:1045E000936D23F44033D4F8A0100B43936590E708
:1045F000022104F12800FFF74DFB0546EEE72E46A9
:1046000087E7694AD36A43F40033D3627DB9664AC7
:10461000536D23F44013D4F884100B43536589E79A
:10462000012104F12800FFF735FB0546EEE72E4691
:1046300080E75D4AD36A43F40033D36275B95A4ABE
:10464000D36C23F48033216D0B43D3647FE70221C5
:1046500004F10800FFF798FA0546EFE72E4676E7E3
:10466000022104F12800FFF715FB00283FF474AF86
:10467000012671E7002B82D00126236813F4801FE6
:1046800006D0494A136D23F00043216F0B43136595
:10469000236813F4001F06D0434A136D23F0807380
:1046A000A16E0B431365236813F0804F09D03E4B76
:1046B0001A6922F400421A611A69D4F8B4100A4344
:1046C0001A612368002B06DA374AD36C23F0405373
:1046D000616D0B43D364236813F4000F07D0324A93
:1046E000536D23F44003D4F888100B43536563687B
:1046F00013F0010F21D1636813F0020F26D1636814
:1047000013F0040F2BD1636813F0080F30D16368E6
:1047100013F0100F35D1636813F0200F3AD106B1B2
:1047200001263046F8BD0126A7E71F4AD36A43F4A5
:104730000033D36223E72E469FE7002104F10800EF
:10474000FFF722FA0028D6D00646D4E7012104F16B
:104750000800FFF719FA0028D1D00646CFE702215A
:1047600004F10800FFF710FA0028CCD00646CAE78B
:10477000002104F12800FFF78DFA0028C7D0064673
:10478000C5E7012104F12800FFF784FA0028C2D010
:104790000646C0E7022104F12800FFF77BFA002853
:1047A000BDD00646BBE700BF0044025808B5FFF77E
:1047B0007BF9054B1B6AC3F30213044AD35C03F075
:1047C0001F03D84008BD00BF00440258B02E0108A6
:1047D00010B5774A916A946AC4F3053ED36AC3F36D
:1047E000001CD36BC3F3CC030CFB03F314F47C3F2A
:1047F00000F0D88001F0030107EE903AF8EE677AF6
:10480000012965D0022900F0B080E1B107EE10EA7D
:10481000B8EE477A9FED676AC6EE076A644B9B6BFA
:10482000C3F3080307EE103AB8EE477A9FED626AC9
:1048300067EE867A77EE277AB7EE007A77EE877A98
:1048400066EEA76A60E0136813F0200F23D01146CC
:104850001268C2F3C102594BD34007EE103AB8EECA
:10486000477A06EE90EAB8EE666AC7EE066A8B6B88
:10487000C3F3080307EE103AB8EE477A9FED4E6A8D
:1048800067EE867A77EE277AB7EE007A77EE877A48
:1048900066EEA76A38E007EE10EAB8EE477A9FEDB9
:1048A000486AC6EE076A424B9B6BC3F3080307EEE8
:1048B000103AB8EE477A9FED406A67EE867A77EE57
:1048C000277AB7EE007A77EE877A66EEA76A1BE062
:1048D00007EE10EAB8EE477A9FED366AC6EE076A31
:1048E000334B9B6BC3F3080307EE103AB8EE477ADD
:1048F0009FED316A67EE867A77EE277AB7EE007A17
:1049000077EE877A66EEA76A294A936BC3F346234C
:1049100007EE103AB8EE477AB7EE006A37EE067A3D
:10492000C6EE877AFCEEE77AC0ED007A936BC3F3AC
:10493000064307EE103AB8EE477A37EE067AC6EE2F
:10494000877AFCEEE77AC0ED017A936BC3F30663D6
:1049500007EE903AF8EE677A77EE867A86EEA77AD7
:10496000BCEEC77A80ED027A10BD07EE10EAB8EE11
:10497000477A9FED146AC6EE076A0D4B9B6BC3F333
:10498000080307EE103AB8EE477A9FED0B6A67EE20
:10499000867A77EE277AB7EE007A77EE877A66EE38
:1049A000A76AB1E70023036043608360DCE700BFD0
:1049B000004402580024744A000000390090D003DB
:1049C0000024744C20BCBE4B10B5774A916A946A9F
:1049D000C4F3055ED36AC3F3002C536CC3F3CC035A
:1049E0000CFB03F314F07C7F00F0D88001F003018E
:1049F00007EE903AF8EE677A012965D0022900F0B7
:104A0000B080E1B107EE10EAB8EE477A9FED676A31
:104A1000C6EE076A644B1B6CC3F3080307EE103A3B
:104A2000B8EE477A9FED626A67EE867A77EE277A6C
:104A3000B7EE007A77EE877A66EEA76A60E01368D1
:104A400013F0200F23D011461268C2F3C102594B54
:104A5000D34007EE103AB8EE477A06EE90EAB8EE89
:104A6000666AC7EE066A0B6CC3F3080307EE103ADA
:104A7000B8EE477A9FED4E6A67EE867A77EE277A30
:104A8000B7EE007A77EE877A66EEA76A38E007EE2F
:104A900010EAB8EE477A9FED486AC6EE076A424BC5
:104AA0001B6CC3F3080307EE103AB8EE477A9FED8C
:104AB000406A67EE867A77EE277AB7EE007A77EE6D
:104AC000877A66EEA76A1BE007EE10EAB8EE477A2F
:104AD0009FED366AC6EE076A334B1B6CC3F30803BF
:104AE00007EE103AB8EE477A9FED316A67EE867AA4
:104AF00077EE277AB7EE007A77EE877A66EEA76AC6
:104B0000294A136CC3F3462307EE103AB8EE477AEE
:104B1000B7EE006A37EE067AC6EE877AFCEEE77AE1
:104B2000C0ED007A136CC3F3064307EE103AB8EEFB
:104B3000477A37EE067AC6EE877AFCEEE77AC0ED62
:104B4000017A136CC3F3066307EE903AF8EE677AC6
:104B500077EE867A86EEA77ABCEEC77A80ED027A87
:104B600010BD07EE10EAB8EE477A9FED146AC6EE64
:104B7000076A0D4B1B6CC3F3080307EE103AB8EE3F
:104B8000477A9FED0B6A67EE867A77EE277AB7EE63
:104B9000007A77EE877A66EEA76AB1E700230360B2
:104BA00043608360DCE700BF004402580024744A7D
:104BB000000000390090D0030024744C20BCBE4B90
:104BC00010B4036A046A24F001040462846924F0C6
:104BD000F00C4CEA021223F00A030B4382610362D9
:104BE0005DF8044B704710B4046A24F010040462AA
:104BF0008469036A24F4704C4CEA023223F0A00367
:104C000043EA0113826103625DF8044B70470000C0
:104C10008268034B13400B4343F0070383607047E4
:104C20008FFFCFFF90F83D30DBB2012B42D1022342
:104C300080F83D300268D36843F00103D360036815
:104C40001E4AB3F1804F18BF934225D0A2F57C4293
:104C5000934221D002F5806293421DD002F580621A
:104C6000934219D002F57842934215D0A2F56C42D6
:104C7000934211D002F5943293420DD0A2F5C04276
:104C8000934209D002F58062934205D01A6842F03F
:104C900001021A60002070479968094A0A40062AF2
:104CA00018BFB2F5803F07D01A6842F001021A60BF
:104CB000002070470120704700207047000001402D
:104CC00007000100704770477047704710B50446F1
:104CD00003681A6912F0020F11D0DA6812F0020F9D
:104CE0000DD06FF002021A610123037703689B69FC
:104CF00013F0030F79D0FFF7E6FF00232377236833
:104D00001A6912F0040F12D0DA6812F0040F0ED0F4
:104D10006FF004021A610223237723689B6913F45E
:104D2000407F68D02046FFF7CEFF0023237723681B
:104D30001A6912F0080F12D0DA6812F0080F0ED0BC
:104D40006FF008021A61042323772368DB6913F0EC
:104D5000030F57D02046FFF7B6FF002323772368C1
:104D60001A6912F0100F12D0DA6812F0100F0ED07C
:104D70006FF010021A61082323772368DB6913F4AC
:104D8000407F46D02046FFF79EFF0023237723680D
:104D90001A6912F0010F03D0DA6812F0010F3FD147
:104DA00023681A6912F0800F03D0DA6812F0800FBE
:104DB0003DD123681A6912F4807F03D0DA6812F0BB
:104DC000800F3BD123681A6912F0400F03D0DA68D4
:104DD00012F0400F39D123681A6912F0200F03D066
:104DE000DA6812F0200F37D110BDFFF76BFF2046B5
:104DF000FFF76AFF81E72046FFF764FF2046FFF7D1
:104E000063FF92E72046FFF75DFF2046FFF75CFF58
:104E1000A3E72046FFF756FF2046FFF755FFB4E70C
:104E20006FF001021A612046FCF7D0FBB8E76FF083
:104E300080021A61204600F0DAF9BAE76FF4807256
:104E40001A61204600F0D4F9BCE76FF040021A6105
:104E50002046FFF73AFFBEE76FF020021A612046B6
:104E600000F0C4F9C0E7000030B503683E4A904244
:104E700014BF4FF0000E4FF0010EB0F1804F14BF81
:104E800072464EF00102AAB9384CA04214BF002469
:104E90000124374DA8420DD064B904F1804404F5D3
:104EA0008234A04214BF0024012405F50065A84205
:104EB00000D01CB123F070034C68234362BB2B4A23
:104EC000904214BF00220122294CA04224D01ABBD8
:104ED00002F1804202F58232904214BF0022012288
:104EE00004F50064A04217D0B2B9224A904214BF20
:104EF0000022012204F59A34A0420DD062B91E4A64
:104F0000904214BF0022012204F50064A04203D0A5
:104F100012B91A4A904204D123F4407CCB6843EA88
:104F20000C0323F080034A69134303608A68C2625A
:104F30000A688262124A904214BF73464EF001031F
:104F400063B90C4B984214BF0023012302F5705241
:104F5000904203D013B90B4B984201D10B69036304
:104F60000123436130BD00BF000001400008004044
:104F7000000400400044014000E0004000E4004024
:104F8000000401400048014060B310B5044690F8A9
:104F90003D3013B3022384F83D30214651F8040B11
:104FA000FFF762FF012384F8483084F83E3084F82C
:104FB0003F3084F8403084F8413084F8423084F83F
:104FC000433084F8443084F8453084F8463084F81F
:104FD000473084F83D30002010BD80F83C30FCF7AD
:104FE000A1FED7E70120704710B4846824F47F4CF9
:104FF00042EA03220A4342EA0C0282605DF8044B53
:105000007047000090F83C30012B00F08F8010B505
:105010000446012380F83C30022380F83D300268CA
:105020009068434B034093600B68702B55D031D888
:10503000502B6CD00CD9602B2AD1CA6849682068E3
:10504000FFF7D1FD60212068FFF7E2FD002035E089
:10505000402B0AD1CA6849682068FFF7B1FD40219A
:105060002068FFF7D5FD002028E05BD8202B07D073
:1050700003D9302B04D0012020E00BB1102B05D137
:1050800019462068FFF7C4FD002017E0012015E055
:10509000012013E0B3F5005F2CD00BD9254A9342D1
:1050A000EED012D9244A9342EAD010329342E7D08C
:1050B000012003E0B3F5805F36D10020012384F89E
:1050C0003D30002384F83C3010BDB3F5801FD7D0AD
:1050D000B3F1101FD4D00120F0E7CB684A6889688B
:1050E0002068FFF781FF2268936843F0770393609D
:1050F0000020E3E7CB684A6889682068FFF774FFFF
:105100002268936843F4804393600020D6E7CA681E
:1051100049682068FFF754FD50212068FFF778FDAB
:105120000020CBE70120C9E70120C7E70220704734
:105130008800CEFF200010003000100090F83C30B6
:10514000012B4DD070B4012380F83C30022380F84D
:105150003D3003685A689C68224E234DAB4218BF0D
:10516000B34203D122F470024D682A4322F0700248
:105170000D682A435A6003681A4AB3F1804F18BF7A
:1051800093421FD0A2F57C4293421BD002F580626D
:10519000934217D002F58062934213D002F5784211
:1051A00093420FD0A2F56C4293420BD002F5943299
:1051B000934207D0A2F5C042934203D002F5806229
:1051C000934204D124F080048A6814439C60012334
:1051D00080F83D30002380F83C30184670BC7047A2
:1051E00002207047000001400004014070477047F2
:1051F00070470000026852E8003F23F4907342E8D1
:1052000000310029F6D1026802F1080353E8001FBB
:105210000D4B0B40083242E800310029F3D1C36E38
:10522000012B06D02023C0F88C300023C3664367CF
:105230007047026852E8003F23F0100342E8003153
:105240000029F6D1EEE700BFFEFFFFEF70B586B094
:105250000446016883680269134342691343C269C3
:1052600013430868904A024013430B602268536856
:1052700023F44053E1680B435360A16922688B4BD0
:105280009A4201D0236A19439068894B03400B432B
:1052900093602268D36A23F00F03616A0B43D362E1
:1052A0002268844B9A4229D0834B9A4200F0948022
:1052B000824B9A4200F0AA80814B9A4200F0C08053
:1052C000804B9A4200F0D6807F4B9A4200F00881D2
:1052D0007E4B9A4200F02D817D4B9A4200F0408136
:1052E0007C4B9A4200F053817B4B9A4200F07881CC
:1052F0006E4B9A4200F09D81802333E0774B5B6DCB
:1053000003F03803282B65D8DFE813F02900640088
:10531000640064006400640064006400AB01640025
:105320006400640064006400640064002B00640096
:105330006400640064006400640064005E00640053
:105340006400640064006400640064006000640041
:10535000640064006400640064006400620001236F
:1053600000E0082351498A4200F09481E069B0F5D9
:10537000004F00F00A82202B00F26282202B00F204
:10538000AC82DFE813F079027F02AA02AA0282024D
:10539000AA02AA02AA028702AA02AA02AA02AA02D0
:1053A000AA02AA02AA028C02AA02AA02AA02AA02BB
:1053B000AA02AA02AA02AA02AA02AA02AA02AA028D
:1053C000AA02AA02AA0298021023CBE72023C9E767
:1053D0004023C7E78023C5E7404B5B6D03F007031D
:1053E000052B11D8DFE813F006003F0108000A0082
:1053F0000C000E000023B5E70823B3E71023B1E744
:105400002023AFE74023ADE78023ABE7334B5B6D51
:1054100003F00703052B11D8DFE813F0060027017E
:1054200008000A000C000E0000239BE7082399E700
:10543000102397E7202395E7402393E7802391E704
:10544000264B5B6D03F00703052B11D8DFE813F043
:1054500006000F0108000A000C000E00002381E77F
:1054600008237FE710237DE720237BE7402379E7AC
:10547000802377E7194B5B6D03F00703052B11D8E9
:10548000DFE813F00600F70008000A000C000E0029
:10549000002367E7082365E7102363E7202361E71C
:1054A00040235FE780235DE7F369FFCF000C0058DE
:1054B000FFF4FF110010014000440040004800408C
:1054C000004C0040005000400014014000780040B3
:1054D000007C004000180140001C014000440258BC
:1054E000694B5B6D03F03803282B20D8DFE803F00D
:1054F000151F1F1F1F1F1F1FC31F1F1F1F1F1F1F22
:10550000171F1F1F1F1F1F1F191F1F1F1F1F1F1FB9
:105510001B1F1F1F1F1F1F1F1D00012322E7082322
:1055200020E710231EE720231CE740231AE78023EF
:1055300018E7554B5B6D03F00703052B0ED8DFE82A
:1055400003F0039C0507090B00230BE7082309E779
:10555000102307E7202305E7402303E7802301E723
:10556000494B5B6D03F00703052B0ED8DFE803F012
:1055700003870507090B0023F4E60823F2E610234E
:10558000F0E62023EEE64023ECE68023EAE63E4BFD
:105590005B6D03F03803282B20D8DFE803F0151FDC
:1055A0001F1F1F1F1F1F721F1F1F1F1F1F1F171FC0
:1055B0001F1F1F1F1F1F191F1F1F1F1F1F1F1B1F05
:1055C0001F1F1F1F1F1F1D000123CBE60823C9E655
:1055D0001023C7E62023C5E64023C3E68023C1E6A7
:1055E000294B5B6D03F03803282B20D8DFE803F04C
:1055F000151F1F1F1F1F1F1F4E1F1F1F1F1F1F1F96
:10560000171F1F1F1F1F1F1F191F1F1F1F1F1F1FB8
:105610001B1F1F1F1F1F1F1F1D000123A2E60823A2
:10562000A0E610239EE620239CE640239AE68023F2
:1056300098E603F50E339B6D03F00703052B0ED898
:10564000DFE803F003260507090B02238AE6082397
:1056500088E6102386E6202384E6402382E6802322
:1056600080E604237EE604237CE604237AE6042312
:1056700078E6042376E6042374E6042372E6042322
:1056800070E604236EE600BF00440258042369E676
:10569000042367E6202B27D8022BC0F01081023BA1
:1056A0001E2B00F20E81DFE813F050000C015600B3
:1056B0000C010C010C015B000C010C010C010C0134
:1056C0000C010C010C0160000C010C010C010C011F
:1056D0000C010C010C010C010C010C010C010C0162
:1056E0000C010C010C016C00402B2CD14FF400403C
:1056F000626A804B33F81220B0FBF2F3656805EB69
:105700004501994200F2DF80B3EB053F00F2DD80F6
:10571000002633463146FAF713FE090241EA1061CA
:1057200000026B08C0182A46334641F10001FAF71F
:1057300007FEA0F54072704B9A4200F2C8802368C1
:10574000D8603046CAE00120C8E0FFF72FF80028F3
:10575000CED10020C2E003A8FFF73AF80498F6E79C
:105760006846FFF731F90198F1E7644B1B6813F0C5
:10577000200F08D0614B1B68C3F3C1036048D840B9
:10578000E5E76048B4E75E48B2E7202B15D8202B48
:1057900000F29F80DFE803F031379D9D3A9D9D9D8B
:1057A0003F9D9D9D9D9D9D9D449D9D9D9D9D9D9DE0
:1057B0009D9D9D9D9D9D9D9D5000402B1BD1626A8E
:1057C0004C4B33F81230B0FBF3F06268530803EB34
:1057D0004000B0FBF2F0A0F110024FF6EF739A42D6
:1057E00079D883B223F00F03C0F342001843236833
:1057F000D860002072E0012070E0FEF777F9002801
:10580000DDD100206AE0FEF783F9F8E703A8FEF790
:10581000DFFF0498F3E76846FFF7D6F80198EEE754
:10582000364B1B6813F0200F08D0344B1B68C3F3B2
:10583000C1033348D840E2E73248C0E73048BEE70A
:10584000402B17D14FF40040626A2A4B33F81230D4
:10585000B0FBF3F0636800EB5300B0FBF3F0A0F192
:1058600010024FF6EF739A4242D8236880B2D86094
:10587000002033E0012031E0FEF738F90028E3D1C1
:1058800000202BE0FEF744F9F8E703A8FEF7A0FF9D
:105890000498F3E76846FFF797F80198EEE7174B8F
:1058A0001B6813F0200F08D0144B1B68C3F3C1030F
:1058B0001348D840E2E71348C6E71148C4E701207F
:1058C0000CE001200AE0012008E0012006E00120B0
:1058D00004E0012002E0012000E001200123A4F8FF
:1058E0006A30A4F8683000236367A36706B070BD10
:1058F0000120F3E7C02E0108FFFC0F00004402580E
:105900000090D00300093D00836A13F0010F06D018
:105910000268536823F40033C16A0B435360836AFF
:1059200013F0020F06D00268536823F48033016B32
:105930000B435360836A13F0040F06D00268536868
:1059400023F48023416B0B435360836A13F0080FE9
:1059500006D00268536823F40043816B0B43536005
:10596000836A13F0100F06D00268936823F4805303
:10597000C16B0B439360836A13F0200F06D002685B
:10598000936823F40053016C0B439360836A13F014
:10599000400F0AD00268536823F48013416C0B4314
:1059A0005360436CB3F5801F0BD0836A13F0800FF4
:1059B00006D00268536823F40023C16C0B43536084
:1059C00070470268536823F4C003816C0B43536033
:1059D000EBE72DE9F84305460F4616469946DDF8F4
:1059E00020802C68E46937EA04030CBF4FF0010CF7
:1059F0004FF0000CB44532D1B8F1FF3FF1D0FCF7C5
:105A000097FAA0EB090040452CD8B8F1000F2BD035
:105A10002B681A6812F0040FE3D0DA6912F0080F4D
:105A200011D1DA6912F4006FDBD04FF400621A6210
:105A30002846FFF7DFFB2023C5F89030002385F8C8
:105A4000843003200CE008241C622846FFF7D2FBB8
:105A5000C5F89040002385F88430012000E0002044
:105A6000BDE8F8830320FBE70320F9E72DE9F041C7
:105A700082B01E46D0F88830202B5BD104460D46FC
:105A80009046002A18BF002901D1012053E00023CD
:105A9000C0F890302123C0F88830FCF749FA074657
:105AA000A4F85480A4F85680A368B3F5805F02D0B0
:105AB0004FF0000816E0236943B34FF0000811E0EF
:105AC0002023C4F88830032035E038F8023B2268F0
:105AD000C3F308039362B4F8562092B2013A92B22B
:105AE000A4F85620B4F856309BB293B100963B46CA
:105AF000002280212046FFF76CFF0028E0D1002D16
:105B0000E3D015F8012B23689A62E4E7A846002544
