:020000040800F2
:1000000000000524C52600081D1E00081F1E00084C
:10001000211E0008231E0008251E00080000000005
:10002000000000000000000000000000D1E7000810
:10003000271E00080000000071E80008B9E0000871
:1000400015270008152700081527000815270008A0
:100050001527000815270008152700081527000890
:10006000DDB500088DB50008152700081527000824
:100070001527000815270008152700081527000870
:100080001527000815270008152700081527000860
:100090001527000815270008152700081527000850
:1000A00015270008291E0008152700081527000835
:1000B000F5B50008152700081527000815270008C2
:1000C0001527000815270008152700081527000820
:1000D00015270008391E00081527000815270008F5
:1000E000B5B5000815270008000000001527000816
:1000F00015270008152700081527000815270008F0
:1001000015270008152700081527000815270008DF
:1001100015270008152700081527000815270008CF
:1001200015270008152700081527000815270008BF
:1001300015270008491E0008152700081527000884
:1001400000000000000000000000000000000000AF
:10015000152700081527000815270008152700088F
:10016000152700081527000815270008152700087F
:1001700015270008152700081527000800000000B3
:10018000152700081527000815270008152700085F
:10019000152700081527000815270008152700084F
:1001A0001527000815270008152700080000000083
:1001B000152700081527000815270008152700082F
:1001C00015270008152700080000000000000000A7
:1001D00000000000000000001527000800000000DB
:1001E000000000000000000000000000000000000F
:1001F0000000000000000000152700081527000877
:100200001527000815270008000000001527000822
:1002100015270008152700081527000815270008CE
:100220001527000800000000152700080000000046
:1002300015270008152700080000000015270008F2
:10024000152700081527000815270008152700089E
:10025000152700081527000815270008152700088E
:10026000152700081527000815270008152700087E
:1002700015270008152700081527000800000000B2
:10028000152700081527000815270008152700085E
:1002900000000000152700081527000800000000D6
:1002A0000000000015270008152700081527000882
:1002B000152700081527000815270008152700082E
:0C02C00015270008152700081527000866
:1003000010B5054C237833B9044B13B10448AFF34F
:1003100000800123237010BD58100024000000004D
:1003200034D8010808B5034B1BB103490348AFF3A8
:10033000008008BD000000005C10002434D80108D3
:1003400053B94AB9002908BF00281CBF4FF0FF313C
:100350004FF0FF3000F074B9ADF1080C6DE904CE38
:1003600000F006F8DDF804E0DDE9022304B0704790
:100370002DE9F047089D04468E46002B4DD18A4258
:10038000944669D9B2FA82F252B101FA02F3C2F18B
:10039000200120FA01F10CFA02FC41EA030E94401C
:1003A0004FEA1C48210CBEFBF8F61FFA8CF708FB3D
:1003B00016E341EA034306FB07F199420AD91CEB15
:1003C000030306F1FF3080F01F81994240F21C8147
:1003D000023E63445B1AA4B2B3FBF8F008FB10338F
:1003E00044EA034400FB07F7A7420AD91CEB0404C4
:1003F00000F1FF3380F00A81A74240F20781644494
:10040000023840EA0640E41B00261DB1D440002318
:10041000C5E900433146BDE8F0878B4209D9002D7C
:1004200000F0EF800026C5E9000130463146BDE806
:10043000F087B3FA83F6002E4AD18B4202D3824270
:1004400000F2F980841A61EB030301209E46002D1F
:10045000E0D0C5E9004EDDE702B9FFDEB2FA82F274
:10046000002A40F09280A1EB0C014FEA1C471FFAD2
:100470008CFE0126200CB1FBF7F307FB131140EAB9
:1004800001410EFB03F0884208D91CEB010103F186
:10049000FF3802D2884200F2CB804346091AA4B248
:1004A000B1FBF7F007FB101144EA01440EFB00FE1C
:1004B000A64508D91CEB040400F1FF3102D2A64581
:1004C00000F2BB800846A4EB0E0440EA03409CE720
:1004D000C6F12007B34022FA07FC4CEA030C20FACD
:1004E00007F401FA06F31C43F9404FEA1C4900FAED
:1004F00006F3B1FBF9F8200C1FFA8CFE09FB18116A
:1005000040EA014108FB0EF0884202FA06F20BD9DC
:100510001CEB010108F1FF3A80F08880884240F22C
:100520008580A8F102086144091AA4B2B1FBF9F070
:1005300009FB101144EA014100FB0EFE8E4508D96B
:100540001CEB010100F1FF346CD28E456AD90238F0
:10055000614440EA0840A0FB0294A1EB0E01A142D5
:10056000C846A64656D353D05DB1B3EB080261EB43
:100570000E0101FA07F722FA06F3F1401F43C5E91D
:10058000007100263146BDE8F087C2F12003D84053
:100590000CFA02FC21FA03F3914001434FEA1C4795
:1005A0001FFA8CFEB3FBF7F007FB10360B0C43EA87
:1005B000064300FB0EF69E4204FA02F408D91CEB37
:1005C000030300F1FF382FD29E422DD90238634435
:1005D0009B1B89B2B3FBF7F607FB163341EA0341D5
:1005E00006FB0EF38B4208D91CEB010106F1FF3824
:1005F00016D28B4214D9023E6144C91A46EA00461B
:1006000038E72E46284605E70646E3E61846F8E6AC
:100610004B45A9D2B9EB020864EB0C0E0138A3E7F5
:100620004646EAE7204694E74046D1E7D0467BE7D6
:10063000023B614432E7304609E76444023842E74E
:10064000704700BF844641EA000313F003036DD1F5
:10065000403A41D351F8043B40F8043B51F8043B85
:1006600040F8043B51F8043B40F8043B51F8043B8C
:1006700040F8043B51F8043B40F8043B51F8043B7C
:1006800040F8043B51F8043B40F8043B51F8043B6C
:1006900040F8043B51F8043B40F8043B51F8043B5C
:1006A00040F8043B51F8043B40F8043B51F8043B4C
:1006B00040F8043B51F8043B40F8043B51F8043B3C
:1006C00040F8043B51F8043B40F8043B51F8043B2C
:1006D00040F8043B403ABDD2303211D351F8043BCC
:1006E00040F8043B51F8043B40F8043B51F8043B0C
:1006F00040F8043B51F8043B40F8043B103AEDD27B
:100700000C3205D351F8043B40F8043B043AF9D2CB
:10071000043208D0D2071CBF11F8013B00F8013B9E
:1007200001D30B8803806046704700BF082A13D3AB
:100730008B078DD010F003038AD0C3F10403D21AC3
:10074000DB071CBF11F8013B00F8013B80D331F8F7
:10075000023B20F8023B7BE7043AD9D3013A11F877
:10076000013B00F8013BF9D20B7803704B784370E2
:100770008B78837060467047000000000000000026
:1007800090F800F06DE9024520F007016FF0000CD1
:1007900010F0070491F820F040F049804FF0000479
:1007A0006FF00700D1E9002391F840F000F1080054
:1007B00082FA4CF2A4FA8CF283FA4CF3A2FA8CF38C
:1007C0004BBBD1E9022382FA4CF200F10800A4FAF3
:1007D0008CF283FA4CF3A2FA8CF3E3B9D1E9042347
:1007E00082FA4CF200F10800A4FA8CF283FA4CF37E
:1007F000A2FA8CF37BB9D1E9062301F1200182FA38
:100800004CF200F10800A4FA8CF283FA4CF3A2FA3D
:100810008CF3002BC6D0002A04BF04301A4612BA4B
:10082000B2FA82F2FDE8024500EBD2007047D1E94E
:10083000002304F00305C4F100004FEAC50514F0DD
:10084000040F91F840F00CFA05F562EA05021CBFAE
:1008500063EA050362464FF00004A9E700000000C8
:1008600001F0FF01102A2BDB10F0070F08D010F861
:10087000013B013A8B422DD010F0070F42B3F6D165
:10088000F0B441EA012141EA014122F007047FF07E
:1008900000070023F0E80256083C85EA010586EAD5
:1008A000010685FA47F5A3FA87F586FA47F6A5FA11
:1008B00087F68EB9EED1F0BC01F0FF0102F007021D
:1008C00032B110F8013B013A83EA010313B1F8D1C8
:1008D0000020704701387047002D06BF35460338A9
:1008E000073815F0010F07D1013015F4807F02BFE2
:1008F000013015F4C03F0130F0BC0138704700BF33
:1009000081F0004102E000BF83F0004330B54FEAC0
:1009100041044FEA430594EA050F08BF90EA020F2D
:100920001FBF54EA000C55EA020C7FEA645C7FEAC0
:10093000655C00F0E2804FEA5454D4EB5555B8BFE3
:100940006D420CDD2C4480EA020281EA030382EA54
:10095000000083EA010180EA020281EA0303362DE6
:1009600088BF30BD11F0004F4FEA01314FF4801CB9
:100970004CEA113102D0404261EB410113F0004FCB
:100980004FEA03334CEA133302D0524263EB430382
:1009900094EA050F00F0A780A4F10104D5F1200E20
:1009A0000DDB02FA0EFC22FA05F2801841F100017B
:1009B00003FA0EF2801843FA05F359410EE0A5F14F
:1009C00020050EF1200E012A03FA0EFC28BF4CF080
:1009D000020C43FA05F3C01851EBE37101F0004536
:1009E00007D54FF0000EDCF1000C7EEB00006EEB43
:1009F0000101B1F5801F1BD3B1F5001F0CD34908CD
:100A00005FEA30004FEA3C0C04F101044FEA445223
:100A100012F5800F80F09A80BCF1004F08BF5FEAAA
:100A2000500C50F1000041EB045141EA050130BD8A
:100A30005FEA4C0C404141EB0101013C28BFB1F59C
:100A4000801FE9D291F0000F04BF01460020B1FAE7
:100A500081F308BF2033A3F10B03B3F120020CDABA
:100A60000C3208DD02F1140CC2F10C0201FA0CF098
:100A700021FA02F10CE002F11402D8BFC2F1200CFD
:100A800001FA02F120FA0CFCDCBF41EA0C019040B3
:100A9000E41AA2BF01EB0451294330BD6FEA0404FC
:100AA0001F3C1CDA0C340EDC04F11404C4F12002E7
:100AB00020FA04F001FA02F340EA030021FA04F3F9
:100AC00045EA030130BDC4F10C04C4F1200220FA50
:100AD00002F001FA04F340EA0300294630BD21FA8E
:100AE00004F0294630BD94F0000F83F4801306BF54
:100AF00081F480110134013D4EE77FEA645C18BF48
:100B00007FEA655C29D094EA050F08BF90EA020FDE
:100B100005D054EA000C04BF1946104630BD91EAD6
:100B2000030F1EBF0021002030BD5FEA545C05D1D9
:100B30004000494128BF41F0004130BD14F5800418
:100B40003CBF01F5801130BD01F0004545F0FE418C
:100B500041F470014FF0000030BD7FEA645C1ABFC1
:100B6000194610467FEA655C1CBF0B46024650EAF8
:100B7000013406BF52EA033591EA030F41F4002124
:100B800030BD00BF90F0000F04BF0021704730B5AA
:100B90004FF4806404F132044FF000054FF000017F
:100BA00050E700BF90F0000F04BF0021704730B540
:100BB0004FF4806404F1320410F0004548BF404215
:100BC0004FF000013EE700BF42004FEAE2014FEA6A
:100BD00031014FEA02701FBF12F07F4393F07F4F45
:100BE00081F06051704732F07F4208BF704793F048
:100BF0007F4F04BF41F40021704730B54FF460745B
:100C000001F0004521F000411CE700BF50EA01025D
:100C100008BF704730B54FF000050AE050EA010206
:100C200008BF704730B511F0004502D5404261EB76
:100C300041014FF4806404F132045FEA915C3FF4B7
:100C4000D8AE4FF003025FEADC0C18BF03325FEA54
:100C5000DC0C18BF033202EBDC02C2F1200300FA05
:100C600003FC20FA02F001FA03FE40EA0E0021FA2A
:100C700002F11444BDE600BF70B54FF0FF0C4CF418
:100C8000E06C1CEA11541DBF1CEA135594EA0C0FCA
:100C900095EA0C0F00F0DEF82C4481EA030621EA05
:100CA0004C5123EA4C5350EA013518BF52EA033540
:100CB00041F4801143F4801338D0A0FB02CE4FF0F2
:100CC0000005E1FB02E506F00042E0FB03E54FF022
:100CD0000006E1FB03569CF0000F18BF4EF0010E1A
:100CE000A4F1FF04B6F5007F64F5407404D25FEA16
:100CF0004E0E6D4146EB060642EAC62141EA5551C9
:100D00004FEAC52040EA5E504FEACE2EB4F1FD0C0A
:100D100088BFBCF5E06F1ED8BEF1004F08BF5FEA88
:100D2000500E50F1000041EB045170BD06F000463A
:100D300046EA010140EA020081EA0301B4EB5C04E7
:100D4000C2BFD4EB0C0541EA045170BD41F48011DF
:100D50004FF0000E013C00F3AB8014F1360FDEBF04
:100D6000002001F0004170BDC4F10004203C35DAE0
:100D70000C341BDC04F11404C4F1200500FA05F363
:100D800020FA04F001FA05F240EA020001F0004204
:100D900021F0004110EBD37021FA04F642EB06017A
:100DA0005EEA430E08BF20EAD37070BDC4F10C04A4
:100DB000C4F1200500FA04F320FA05F001FA04F268
:100DC00040EA020001F0004110EBD37041F1000154
:100DD0005EEA430E08BF20EAD37070BDC4F120055F
:100DE00000FA05F24EEA020E20FA04F301FA05F2C7
:100DF00043EA020321FA04F001F0004121FA04F26F
:100E000020EA020000EBD3705EEA430E08BF20EA3E
:100E1000D37070BD94F0000F0FD101F00046400078
:100E200041EB010111F4801F08BF013CF7D041EAFA
:100E3000060195F0000F18BF704703F000465200FE
:100E400043EB030313F4801F08BF013DF7D043EACF
:100E50000603704794EA0C0F0CEA135518BF95EA85
:100E60000C0F0CD050EA410618BF52EA4306D1D10C
:100E700081EA030101F000414FF0000070BD50EA2B
:100E8000410606BF1046194652EA430619D094EAB5
:100E90000C0F02D150EA013613D195EA0C0F05D19F
:100EA00052EA03361CBF104619460AD181EA0301F3
:100EB00001F0004141F0FE4141F470014FF00000AB
:100EC00070BD41F0FE4141F4780170BD70B54FF046
:100ED000FF0C4CF4E06C1CEA11541DBF1CEA1355C6
:100EE00094EA0C0F95EA0C0F00F0A7F8A4EB0504A8
:100EF00081EA030E52EA03354FEA013100F088809F
:100F00004FEA03334FF0805545EA131343EA126367
:100F10004FEA022245EA111545EA10654FEA00261C
:100F20000EF000419D4208BF964244F1FD0404F5D5
:100F3000407402D25B084FEA3202B61A65EB030531
:100F40005B084FEA32024FF480104FF4002CB6EBEE
:100F5000020E75EB030E22BFB61A754640EA0C006E
:100F60005B084FEA3202B6EB020E75EB030E22BFAE
:100F7000B61A754640EA5C005B084FEA3202B6EBEF
:100F8000020E75EB030E22BFB61A754640EA9C00AE
:100F90005B084FEA3202B6EB020E75EB030E22BF7E
:100FA000B61A754640EADC0055EA060E18D04FEA3C
:100FB000051545EA16754FEA06164FEAC30343EADC
:100FC00052734FEAC2025FEA1C1CC0D111F4801FA9
:100FD0000BD141EA00014FF000004FF0004CB6E7A2
:100FE00011F4801F04BF01430020B4F1FD0C88BF41
:100FF000BCF5E06F3FF6AFAEB5EB030C04BFB6EB4C
:10100000020C5FEA500C50F1000041EB045170BD3E
:101010000EF0004E4EEA113114EB5C04C2BFD4EB6B
:101020000C0541EA045170BD41F480114FF0000EEF
:10103000013C90E645EA060E8DE60CEA135594EA6B
:101040000C0F08BF95EA0C0F3FF43BAF94EA0C0F6E
:101050000AD150EA01347FF434AF95EA0C0F7FF4E3
:1010600025AF104619462CE795EA0C0F06D152EA37
:1010700003353FF4FDAE1046194622E750EA41061B
:1010800018BF52EA43067FF4C5AE50EA41047FF42C
:101090000DAF52EA43057FF4EBAE12E74FF0FF3C91
:1010A00006E000BF4FF0010C02E000BF4FF0010C62
:1010B0004DF804CD4FEA410C7FEA6C5C4FEA430CDB
:1010C00018BF7FEA6C5C1BD001B050EA410C0CBF2A
:1010D00052EA430C91EA030F02BF90EA020F00208C
:1010E000704710F1000F91EA030F58BF994208BFF3
:1010F00090422CBFD8176FEAE37040F001007047B0
:101100004FEA410C7FEA6C5C02D150EA013C07D106
:101110004FEA430C7FEA6C5CD6D152EA033CD3D051
:101120005DF8040B704700BF8446104662468C464B
:101130001946634600E000BF01B5FFF7B7FF00287E
:1011400048BF10F1000F01BD4DF808EDFFF7F4FFA7
:101150000CBF012000205DF808FB00BF4DF808ED32
:10116000FFF7EAFF34BF012000205DF808FB00BF55
:101170004DF808EDFFF7E0FF94BF012000205DF877
:1011800008FB00BF4DF808EDFFF7CEFF94BF01202C
:1011900000205DF808FB00BF4DF808EDFFF7C4FF25
:1011A00034BF012000205DF808FB00BF4FEA410C6E
:1011B0007FEA6C5C02D150EA013C0AD14FEA430C51
:1011C0007FEA6C5C02D152EA033C02D14FF000008E
:1011D00070474FF0010070474FEA410212F50012CC
:1011E00015D211D56FF47873B3EB625212D94FEA6E
:1011F000C12343F0004343EA505311F0004F23FA58
:1012000002F018BF404270474FF00000704750EAAC
:10121000013005D111F0004008BF6FF00040704769
:101220004FF00000704700BFF0B5B7B00023319316
:101230003293339334933593364B1B680BB137B0ED
:10124000F0BD0124334B1C60B822002102A816F027
:1012500075FD4FF080720023CDE90223149402A89B
:1012600004F068FD002851D12B4BD3F8D42042F470
:101270008052C3F8D420D3F8D43003F480530193C0
:10128000019B4FF63F033193022732970026339696
:10129000032534950C24359431A9204802F0AEFF83
:1012A0000D233193329733963495359431A91C48E8
:1012B00002F0A4FF1023319332973396349535947E
:1012C00031A9184802F09AFF48F237133193329748
:1012D00033963495359431A9134802F08FFF4FF2BD
:1012E00083733193329733963495359431A90F48EF
:1012F00002F084FF4CF203733193329733963495A6
:10130000359431A90A4802F079FF98E700F0A0FA75
:10131000AAE700BF781000240044025800140258C5
:101320000008025800000258001802580010025825
:10133000000C025800B589B0002301930293039377
:1013400004930593069307931548164A0260436079
:10135000012282600822C2601021016140214161A6
:101360004FF480718161C3614FF400610162436297
:1013700083620223019309230293062303930492B9
:101380000423059305230693079301A905F0E2FBC7
:1013900010B909B05DF804FB00F05AFAF9E700BF94
:1013A0007C1000244041005208B5FFF73DFF08BD06
:1013B00008B50CF087FA64200CF020FFFBE708B5B5
:1013C00001200CF01BFFFBE708B501200CF016FF15
:1013D000FBE708B508F02AF808F042F901200CF004
:1013E0000DFFF9E708B5044B18680EF02DFE01203B
:1013F0000CF004FFF7E700BFB410002408B5194A49
:10140000022110200DF067F8174B1860174A0421CD
:1014100010200DF060F8164B1860164A002116488F
:101420000CF08EFE154B1860154A002115480CF083
:1014300087FE154B1860154A002115480CF080FEF8
:10144000144B1860144A002114480CF079FE144B18
:101450001860144A002114480CF072FE134B1860F7
:1014600008BD00BF78D90108C8100024ACD8010815
:10147000B010002454D90108B1130008C41000248E
:101480000CD90108D3130008BC10002430D901087E
:10149000BF130008C0100024E8D80108C9130008D1
:1014A000B8100024C4D80108E5130008B4100024C3
:1014B0002DE9F04F8FB0002409940A940B940C94FA
:1014C0000D947B4BD3F8E02042F01002C3F8E020EB
:1014D000D3F8E02002F010020192019AD3F8E02044
:1014E00042F00402C3F8E020D3F8E02002F0040246
:1014F0000292029AD3F8E02042F02002C3F8E020E2
:10150000D3F8E02002F020020392039AD3F8E020FF
:1015100042F08002C3F8E020D3F8E02002F080021D
:101520000492049AD3F8E02042F00102C3F8E020CC
:10153000D3F8E02002F001020592059AD3F8E020EA
:1015400042F00202C3F8E020D3F8E02002F00202E9
:101550000692069AD3F8E02042F04002C3F8E02059
:10156000D3F8E02002F040020792079AD3F8E02077
:1015700042F00802C3F8E020D3F8E03003F008039B
:101580000893089B4B4F22464FF40161384602F006
:101590003FFFDFF82CB1224644F20101584602F029
:1015A00037FFDFF8209122460821484602F030FF3D
:1015B000414E22464FF4C061304602F029FF4FF001
:1015C0000808CDF824804FF4041ACDF828A001258E
:1015D0000B9509A9384602F011FE102309930A95CC
:1015E0000B940C9409A9384602F008FE4FF40053FE
:1015F0000993CDF828A00B9509A9304802F0FEFD0B
:1016000044F2010309930A950B940C9409A95846D6
:1016100002F0F4FD4FF4006309930A950B95022341
:101620000C9309A9384602F0E9FD04230993CDF88B
:1016300028A00B9509A9484602F0E0FDCDF82480CA
:101640000A950B940C9409A9484602F0D7FD4FF473
:10165000007309930A950B940C9409A9304602F083
:10166000CDFD4FF4806309930A950B9403230C93EB
:1016700009A9304602F0C2FD4FF4405309930A9481
:101680000B9409A9304602F0B9FD224607214046D5
:1016900001F098F922460621092001F093F922462B
:1016A0000721282001F08EF90FB0BDE8F08F00BFB0
:1016B000004402580010025800180258000802584E
:1016C00000040258000C025800B587B0114BD3F843
:1016D000E02042F01002C3F8E020D3F8E03003F03D
:1016E00010030093009B082301934FF4041302930B
:1016F0000123039301A9084802F080FD002206217E
:10170000092001F05FF9092001F0A0F907B05DF8A8
:1017100004FB00BF004402580010025800B587B017
:10172000114BD3F8E02042F00402C3F8E020D3F8D4
:10173000E03003F004030093009B4FF40053019347
:101740004FF4041302930123039301A9074802F005
:1017500055FD00220721282001F034F9282001F04E
:1017600075F907B05DF804FB004402580008025800
:1017700000B587B0114BD3F8E02042F00802C3F85F
:10178000E020D3F8E03003F008030093009B04232B
:1017900001934FF4041302930123039301A9084812
:1017A00002F02CFD00220721082001F00BF908208F
:1017B00001F04CF907B05DF804FB00BF004402588B
:1017C000000C025830B585B00024009401940294B6
:1017D000039401F04DF901258DF800508DF801407A
:1017E0004FF0405301930E238DF808308DF80940D7
:1017F0008DF80A5003238DF80B308DF80C508DF8BE
:101800000D408DF80E408DF80F40684601F04EF9FE
:101810008DF8015007238DF808308DF80A408DF8B7
:101820000D508DF80F50684601F040F9042001F08A
:101830002DF905B030BD000008B50268034B9A428F
:1018400000D008BD01F07CF8FBE700BF00000140BC
:1018500072B6FEE700B59DB04C22002109A816F033
:101860006DFA2022002101A816F068FA022003F088
:1018700081FB00230093214B9A6922F440429A6134
:101880009B6903F440430093009B1C4B9B6913F43A
:10189000005FFAD0012209924FF480330A930223A9
:1018A000129313930521149160211591169204222D
:1018B000179218930823199300231A931B9309A8CE
:1018C00003F082FBA8B93F23019303210291002377
:1018D0000393082304934023059306934FF48062F7
:1018E0000792089301A803F05FFF20B91DB05DF8CF
:1018F00004FBFFF7ADFFFFF7ABFF00BF0048025846
:1019000000B5AFB0B8220021684616F017FA0E4AAB
:101910000023CDE900230523029340220392049380
:1019200005930423069380230793202313934FF4F6
:1019300080531793684604F0FDF910B92FB05DF895
:1019400004FBFFF785FF00BF0010000208B5FFF79A
:1019500039FF334B5B6913F4003F13D1BFF34F8F53
:10196000BFF36F8F2E4B0022C3F85022BFF34F8F6F
:10197000BFF36F8F5A6942F400325A61BFF34F8F41
:10198000BFF36F8F264B5B6913F4803F27D1244B45
:101990000022C3F88420BFF34F8FD3F88040C4F3F4
:1019A0004E3000E01846C4F3C90243F6E07303EA80
:1019B000401343EA82731A49C1F860321346013A70
:1019C000002BF2D1431E0028ECD1BFF34F8F4B699F
:1019D00043F480334B61BFF34F8FBFF36F8F00F041
:1019E00081FFFFF737FFFFF78BFFFFF761FD00F087
:1019F000E9FA00F019F800F02DF900F03DFBFFF7CF
:101A000099FC00F0D1FB074816F058FA09F03CFDAC
:101A10000CF05EFBFFF7F2FC0CF06CFBFEE700BF86
:101A200000ED00E090D9010800B587B000230093D5
:101A3000019302930393049305931948194A026092
:101A40000A2242608360C360132202610522426160
:101A50008361C3610362012242624FF0804282626D
:101A60004FF08052C2620363082242638363C36300
:101A700002F084FF70B9012300934FF00113039328
:101A800041F288326946064802F0FCFF28B907B0E7
:101A90005DF804FBFFF7DCFEEDE7FFF7D9FEF6E7A4
:101AA000CC1000240050005270B588B0002303937E
:101AB00004930593069307930268234B9A4201D03F
:101AC00008B070BD214BD3F8D42042F40012C3F803
:101AD000D420D3F8D42002F400120092009AD3F854
:101AE000D42042F48042C3F8D420D3F8D42002F4A6
:101AF00080420192019AD3F8E02042F02002C3F81C
:101B0000E020D3F8E03003F020030293029B4FF46F
:101B10007073039302260496032506950A23079300
:101B20000B4C03A9204602F069FB4FF4806303933A
:101B300004960023059306950923079303A92046DD
:101B400002F05CFBBCE700BF0050005200440258AA
:101B50000014025810B596B004465022002102A885
:101B600016F0ECF86B230493012305934FF4807374
:101B700009934FF480530A9308944FF040731093E5
:101B8000042311930823139341F288320DEB0301D0
:101B90000F4802F0DFFD48B941F2883201A90C4834
:101BA00002F086FE20B1FFF753FE01E0FFF750FE82
:101BB0009DF807009DF806301B0443EA00639DF87A
:101BC000050043EA00239DF80400184316B010BD39
:101BD000CC10002430B597B005460C4650220021A9
:101BE00002A816F0ABF88DF80440230A8DF80530F2
:101BF000230C8DF80630240E8DF8074062230493E1
:101C0000012305934FF4807309934FF480530A9393
:101C100008954FF0407310930423119341F28832DA
:101C200002A90A4802F096FD48B941F2883201A99A
:101C3000064802F0F0FD38B1FFF70AFE04E0044860
:101C400016F03CF9FFF704FE17B030BDCC100024AD
:101C50009CD9010808B51548154B03604FF4800363
:101C60004360002383600722C2604FF0007202616C
:101C70004FF0807242614FF080628261C361036203
:101C800043628362C3624FF0804242638363C363F3
:101C9000036443648364C36403654365836504F03C
:101CA00089FF00B908BDFFF7D3FDFBE72811002429
:101CB0000030014030B589B00023039304930593AD
:101CC000069307930268204B9A4201D009B030BDB9
:101CD0001E4BD3F8F02042F48052C3F8F020D3F822
:101CE000F02002F480520092009AD3F8E02042F0F3
:101CF0000102C3F8E020D3F8E02002F001020192D3
:101D0000019AD3F8E02042F00802C3F8E020D3F8AB
:101D1000E03003F008030293029B60230393022543
:101D200004950524079403A9094802F067FA802363
:101D300003930495002305930693079403A905488C
:101D400002F05CFAC2E700BF0030014000440258D4
:101D500000000258000C025800B583B00A4BD3F8BB
:101D6000F42042F00202C3F8F420D3F8F43003F078
:101D700002030193019B00220F216FF0010000F08C
:101D800021FE03B05DF804FB004402580F2801D97E
:101D90000120704710B58AB0044600220146192080
:101DA00000F010FE192000F043FE174B1C60174B8B
:101DB000D3F8F02042F00102C3F8F020D3F8F0305D
:101DC00003F001030093009B01A902A803F07CFE2D
:101DD00003F068FE43000E48A0FB03239B0C013B6D
:101DE0000C480D4A026040F2E732C26043600023B3
:101DF0000361836005F08AF910B101200AB010BDBB
:101E0000044804F0D1FFF9E70C0000240044025814
:101E100083DE1B43B011002400000140FEE7FEE713
:101E2000FEE7FEE7FEE7704708B5024805F010F848
:101E300008BD00BFB011002408B5024805F0E8FA5B
:101E400008BD00BF5822002408B5024801F0C3FEB7
:101E500008BD00BF8C29002401207047024B1622C8
:101E60001A604FF0FF30704708BA002408B54FF0F1
:101E7000FF31FFF7F3FFFEE770B50C46164600256D
:101E800006E0AFF30080214601F8010B01350C4656
:101E9000B542F6DB304670BD70B50C4616460025DF
:101EA00004E014F8010B00F06FF90135B542F8DBDE
:101EB000304670BD4FF0FF3070474FF400534B6019
:101EC00000207047012070470020704710B403467F
:101ED0000C4A0D490D48006850B10C480068034495
:101EE000521A934208D8094A13605DF8044B7047B0
:101EF0000648074C0460F0E7064B0C221A604FF0CE
:101F0000FF30F2E70000052400200000FC1100244F
:101F100058BA002408BA0024224AD2F8883043F480
:101F20007003C2F88830204B1B6803F00F03062BA8
:101F300006D81D4A136823F00F0343F0070313600C
:101F40001A4B1A6842F001021A6000221A611968DD
:101F5000174A0A401A60144B1B6813F0080F06D08A
:101F6000114A136823F00F0343F0070313600F4B6C
:101F700000229A61DA611A620E4999620E49D962A9
:101F80000E4919635A639963DA6319645A641968CC
:101F900021F4802119601A66094B43F2D2021A60BB
:101FA000704700BF00ED00E00020005200440258DE
:101FB0007FEDF6EA000202020000FF01800201014B
:101FC0000040005200B589B00023049305930693A6
:101FD000079301930293039315484FF080420260E8
:101FE000EF224260836040F2E732C26003618023E7
:101FF000836105F08BF890B94FF48053049304A9E2
:102000000B4805F0C1F868B900230193039301A9B7
:10201000074805F055F940B909B05DF804FBFFF732
:1020200017FCE9E7FFF714FCEEE7FFF711FCF3E715
:10203000001200240368B3F1804F00D0704700B550
:1020400083B00C4BD3F8E82042F00102C3F8E8203B
:10205000D3F8E83003F001030193019B002207212C
:102060001C2000F0AFFC1C2000F0E2FC03B05DF887
:1020700004FB00BF0044025808B51748174B036023
:102080004FF4E133436000238360C36003610C229B
:1020900042618361C36103624362836206F015FBA0
:1020A00070B900210C4806F04FFC60B900210A48C5
:1020B00006F06FFC50B9084806F027FC48B908BD87
:1020C000FFF7C6FBEDE7FFF7C3FBEFE7FFF7C0FB4A
:1020D000F1E7FFF7BDFBF2E75822002400100140B2
:1020E00010B5B6B00446002131913291339134914C
:1020F0003591B82202A815F021FE22681F4B9A42A2
:1021000001D036B010BD01220023CDE9022302A880
:1021100003F010FE78BB1A4BD3F8F02042F0100207
:10212000C3F8F020D3F8F02002F010020092009AD9
:10213000D3F8E02042F00102C3F8E020D3F8E03009
:1021400003F001030193019B4FF4C0633193022319
:1021500032930024339434940723359331A90948EA
:1021600002F04CF822460521252000F02BFC25200A
:1021700000F05EFCC5E7FFF76BFBCCE70010014009
:10218000004402580000025800B583B001904FF699
:10219000FF73012201A9034806F0CAF9019803B0B0
:1021A0005DF804FB5822002408B5012202490348C7
:1021B00006F05CFB08BD00BF542200245822002416
:1021C00008B59A4B00221A805A80994B1B88042B21
:1021D00050D0974B1B88032B6CD0954B1B88082B3A
:1021E00000F08380934B1B78532B18BF732B34D193
:1021F000904B5B78542B18BF742B2ED18D4B9B7852
:10220000412B18BF612B28D18A4BDB78542B18BF88
:10221000742B22D1874B1B79452B18BF652B1CD102
:10222000824B04221A80834B5B79202B00F0B8800C
:10223000202B00F0D880202B00F00C81202B00F008
:102240002581202B00F04C81202B00F07381202B66
:1022500000F0A181202B00F0C88100231A467349A9
:10226000754800680CF0F7FF714B1B880D2B00F2CE
:10227000DF8108BD6F4B1B78482B18BF682BA8D196
:102280006C4B5B78452B18BF652BA2D1694B9B78B3
:102290004C2B18BF6C2B9CD1664BDB78502B18BF96
:1022A000702B96D1614B01221A805A80634815F039
:1022B00005FE8EE75F4B1B78432B18BF632B8CD139
:1022C0005C4B5B784C2B18BF6C2B86D1594B9B78A1
:1022D000532B18BF732B80D1544B02221A8001223A
:1022E0005A80574815F0EAFD77E7524B1B78532B7D
:1022F00018BF732B7FF476AF4E4B5B78452B18BF1E
:10230000652B7FF46FAF4B4B9B784E2B18BF6E2B1A
:102310007FF468AF474BDB78442B18BF642B7FF406
:1023200061AF424B03221A80424B1B79202B1ED0F7
:10233000202B7FF457AF3F4B5B79432B18BF632BA8
:102340007FF450AF3B4B9B79412B18BF612B7FF43F
:1023500049AF384BDB79542B18BF742B7FF442AF55
:10236000324B02225A80374815F0A8FD3AE7314A2D
:1023700052794E2A18BF6E2ADAD12E4A9279452A0E
:1023800018BF652AD4D12B4AD279542A18BF742A8F
:10239000CED1264B01225A802B4815F08FFD21E724
:1023A000244A9279492A18BF692A7FF441AF214A09
:1023B000D2794E2A18BF6E2A7FF43AAF1D4A127A9C
:1023C000492A18BF692A7FF433AF1A4A527A542A2D
:1023D00018BF742A7FF42CAF144B01225A801B487B
:1023E00015F06CFD39E7134A9279492A18BF692A1A
:1023F0007FF421AF0F4AD279442A18BF642A7FF4B0
:102400001AAF0C4A127A4C2A18BF6C2A7FF413AF09
:10241000084A527A452A18BF652A7FF40CAF034B4D
:1024200002225A800A4815F049FD16E7741000246C
:1024300050220024501A0024B0100024C8D90108EA
:10244000D8D90108F8D90108F0D9010800DA010843
:1024500010DA01087B4A9279502A18BF702A7FF45B
:10246000EDAE784AD279522A18BF722A7FF4E6AECE
:10247000744A127A452A18BF652A7FF4DFAE724B80
:1024800003225A80714815F019FDE6E66D4A9279EB
:10249000522A18BF722A7FF4D4AE6A4AD279452AEA
:1024A00018BF652A7FF4CDAE664A127A412A18BF5A
:1024B000612A7FF4C6AE634A527A442A18BF642A5E
:1024C0007FF4BFAE5F4A927A592A18BF792A7FF407
:1024D000B8AE5D4B04225A805D4815F0EFFCBCE6B7
:1024E000584A9279532A18BF732A7FF4ADAE554AE1
:1024F000D279452A18BF652A7FF4A6AE514A127ACE
:10250000522A18BF722A7FF49FAE4E4A527A562A38
:1025100018BF762A7FF498AE4A4A927A4F2A18BF9B
:102520006F2A7FF491AE484B05225A80494815F036
:10253000C5FC92E6434A92794D2A18BF6D2A7FF472
:1025400086AE404AD279412A18BF612A7FF47FAE15
:102550003C4A127A4E2A18BF6E2A7FF478AE394A66
:10256000527A552A18BF752A7FF471AE354A927A8D
:10257000412A18BF612A7FF46AAE324AD27A4C2AC5
:1025800018BF6C2A7FF463AE2F4B06225A80324864
:1025900015F094FC61E62B4A9279462A18BF662A08
:1025A0007FF458AE274AD279412A18BF612A7FF4B6
:1025B00051AE244A127A552A18BF752A7FF44AAEC2
:1025C000204A527A4C2A18BF6C2A7FF443AE1D4A27
:1025D000927A542A18BF742A7FF43CAE1A4B072211
:1025E0005A801E4815F06AFC37E6164B9B79442B3F
:1025F00018BF642B7FF431AE124BDB794F2B18BF21
:102600006F2B7FF42AAE0F4B1B7A572B18BF772BFB
:102610007FF423AE0B4B5B7A4E2B18BF6E2B7FF4EF
:102620001CAE094B08225A800D4815F047FC14E6F1
:102630000C48B0F800280C4B1A800249FEF702F84B
:1026400017E600BF501A00247410002420DA010895
:1026500030DA010840DA010850DA010860DA0108CE
:1026600070DA01084C1200245022002408B50268D8
:102670000F4B9A4200D008BD0E4B1A780D2A0BD092
:102680000D490B880D48C25401330B8001220949C2
:102690000B4806F0EBF8EEE7FFF792FD4FF400620F
:1026A0000021064815F04AFB034B00221A80EDE793
:1026B000001001405422002450220024501A00240B
:1026C00058220024DFF834D0FFF726FC0C480D49CF
:1026D0000D4A002302E0D458C4500433C4188C427D
:1026E000F9D30A4A0A4C002301E013600432A242E3
:1026F000FBD314F091FFFFF729F970470000052480
:102700000000002458100024580C0208581000241F
:1027100054BA0024FEE788B1CA6892B18A689AB1B7
:102720000A69A2B10A6882604A68C260CA684261E6
:102730008A6802610A698261002070474FF0FF30A9
:1027400070474FF0FF3070474FF0FF3070474FF049
:10275000FF30704770B582B005460023019344688E
:10276000002C49D1836803B1984720232B600026B1
:1027700002E06FF0040601341F2C0DD86B6901AA2A
:102780001221204698470028F3DB019B03F01F032A
:10279000A342F0D12C60002628681F2825D836BB1C
:1027A0002B694FF4004200219847002833DB6B6906
:1027B00001AA00212868984700282FDBAB699847B9
:1027C0000446019B13F4004F11D0AB699847001BDE
:1027D000B0F5FA7F0DD86B6901AA002128689847E7
:1027E0000028EEDA6FF0040601E06FF002067EB911
:1027F00003E06FF00106FAE70026AB69984704464C
:10280000AB699847031BB3F5FA6FF9D901236B60E5
:10281000304602B070BD6FF00306F9E76FF00406B2
:10282000F6E710B582B0044600230193436901AA7C
:10283000012100689847002839DB636901AA01215A
:1028400020689847002835DB019B13F0040F34D033
:10285000636901AA002120689847002830DB019BAA
:1028600013F4805F0CD103F40452B2F5045F2AD054
:1028700013F4005F29D113F4807F28D004201DE0D9
:10288000636901AA1F2120689847002821DB019B6A
:1028900013F4805F20D003F01C03182B1ED0082BEC
:1028A0001ED0142B01D0052008E0042006E06FF0B4
:1028B000040003E06FF0040000E0012002B010BD4E
:1028C0006FF00400FAE70220F8E70320F6E705209E
:1028D000F4E76FF00400F1E70620EFE70220EDE7F0
:1028E0000320EBE710B5032000F05AF802F062FE77
:1028F0000F498B69C3F303230E4AD35C03F01F0314
:10290000D8408B6903F00F03D35C03F01F0320FA58
:1029100003F3094A1360094B18600F20FFF736FADA
:1029200010B10124204610BD0446FFF715FAF9E75F
:1029300000440258B8D90108040000240000002413
:10294000034B1B78034A11680B441360704700BFA8
:1029500008000024EC220024014B1868704700BFD7
:10296000EC22002438B50446FFF7F6FF0546B4F123
:10297000FF3F02D0044B1B781C44FFF7EDFF401BC8
:10298000A042FAD338BD00BF08000024034A5368B0
:1029900023F4600303435360704700BF00040058F2
:1029A0000649CB6823F4E0631B041B0C000200F40F
:1029B000E0600343024A1A43CA60704700ED00E03A
:1029C0000000FA0500B5174BDB68C3F30223C3F11F
:1029D000070CBCF1040F28BF4FF0040C03F1040EE8
:1029E000BEF1060F14D9033B4FF0FF3E0EFA0CFC6C
:1029F00021EA0C0199400EFA03F322EA030319437A
:102A0000002807DB0901C9B2074B19545DF804FB24
:102A10000023E9E700F00F000901C9B2034B195484
:102A2000F4E700BF00ED00E000E400E014ED00E09A
:102A3000002807DB00F01F02400901239340024AEF
:102A400042F82030704700BF00E100E000280CDBB6
:102A500000F01F024009012393402030034A42F84E
:102A60002030BFF34F8FBFF36F8F704700E100E05E
:102A7000BFF35F8F044B5A6A22F480325A620022FD
:102A8000C3F89420704700BF00ED00E040F0010063
:102A9000054BC3F894005A6A42F480325A62BFF37D
:102AA0004F8FBFF36F8F704700ED00E04278164BF9
:102AB000C3F898200378FBB14368134AC2F89C30EE
:102AC000017BC37A1B0643EA0173817A43EAC1435F
:102AD000417B43EA8143817B43EA4143C17B43EA33
:102AE0000143417A43EA0123017A43EA4103017831
:102AF0000B43C2F8A0307047034B0022C3F89C2060
:102B0000C3F8A020704700BF00ED00E070B5044698
:102B1000FFF722FF002C00F09181054694F8353034
:102B2000DBB2022B06D080236365002384F83430A7
:102B3000012070BD23688C498C4A934218BF8B4298
:102B400030D0183293422DD0183293422AD0183206
:102B5000934227D01832934224D01832934221D086
:102B6000183293421ED002F5567293421AD0183290
:102B7000934217D01832934214D01832934211D096
:102B8000183293420ED0183293420BD0183293422F
:102B900008D01832934205D01A6822F00E021A604B
:102BA000266809E01A6822F01E021A60226853693A
:102BB00023F080035361266823686B496B4A934274
:102BC00018BF8B4242D0183293423FD01832934202
:102BD0003CD01832934239D01832934236D0183252
:102BE000934233D01832934230D002F5567293425A
:102BF0002CD01832934229D01832934226D0183262
:102C0000934223D01832934220D0183293421DD0E1
:102C1000183293421AD01832934217D0544A934232
:102C200014D01432934211D0143293420ED0143285
:102C300093420BD01432934208D01432934205D001
:102C40001432934202D01432934204D1226E13689C
:102C500023F48073136023684349444A934218BFA6
:102C60008B422FD0183293422CD01832934229D065
:102C70001832934226D01832934223D0183293420E
:102C800020D0183293421DD002F55672934219D0CB
:102C90001832934216D01832934213D0183293420E
:102CA00010D0183293420DD0183293420AD0183205
:102CB000934207D01832934204D01A6822F00102DE
:102CC0001A6003E01A6822F001021A60336813F0F8
:102CD000010F0ED0FFF740FE431B052BF6D9202332
:102CE0006365032384F83530002384F834300120F1
:102CF0001FE723681C491D4A934218BF8B4239D0F5
:102D00001832934236D01832934233D0183293425D
:102D100030D0183293422DD0183293422AD0183234
:102D2000934227D002F55672934223D01832934231
:102D300020D0183293421DD0183293421AD0183244
:102D4000934217D01832934214D01832934211D0C4
:102D5000183293420ED0A16DE36D03F01F020123E0
:102D600093404B600DE000BF10000240280002407D
:102D700008540258A16DE36D03F01F023F239340F6
:102D80008B6023682E492F4A934218BF8B4242D052
:102D9000183293423FD0183293423CD018329342BB
:102DA00039D01832934236D01832934233D0183289
:102DB000934230D002F5567293422CD0183293428F
:102DC00029D01832934226D01832934223D0183299
:102DD000934220D0183293421DD0183293421AD019
:102DE0001832934217D0184A934214D014329342A7
:102DF00011D0143293420ED0143293420BD01432BD
:102E0000934208D01432934205D01432934202D038
:102E1000143293420BD1636EA26E5A60E36E33B1EB
:102E20001A6822F480721A60236F626F5A6001235D
:102E300084F83530002084F834007AE6012078E602
:102E4000100002402800024008540258002800F0F8
:102E5000298108B5024690F83530DBB2022B03D049
:102E600080234365012008BD0368904890498B4248
:102E700018BF83420CBF0121002166D0303083424D
:102E800063D01830834260D0183083425DD0183050
:102E900083425AD01830834257D01830834254D0DE
:102EA00000F55670834250D0183083424DD0183010
:102EB00083424AD01830834247D01830834244D0EE
:102EC0001830834241D0183083423ED018308342BC
:102ED0003BD0196821F00E0119601368A0F59560C8
:102EE00073498B4218BF83426AD072498B4267D0C4
:102EF00018318B4264D018318B4261D018318B422B
:102F00005ED018318B425BD018318B4258D001F51E
:102F100056718B4254D018318B4251D018318B42AC
:102F20004ED018318B424BD018318B4248D01831DB
:102F30008B4245D018318B4242D018318B423FD062
:102F4000196821F0010119603EE0042082F8350083
:102F500081BB584A93422DD0183293422AD018325E
:102F6000934227D01832934224D01832934221D072
:102F7000183293421ED002F5567293421AD018327C
:102F8000934217D01832934214D01832934211D082
:102F9000183293420ED0183293420BD0183293421B
:102FA00008D01832934205D01A6822F001021A6044
:102FB000002058E71A6822F001021A60002052E748
:102FC000196821F0010119601368384838498B42AB
:102FD00018BF834242D018318B423FD018318B4208
:102FE0003CD018318B4239D018318B4236D0183151
:102FF0008B4233D018318B4230D001F556718B4261
:103000002CD018318B4229D018318B4226D0183160
:103010008B4223D018318B4220D018318B421DD0E7
:1030200018318B421AD018318B4217D022498B426B
:1030300014D014318B4211D014318B420ED0143184
:103040008B420BD014318B4208D014318B4205D007
:1030500014318B4202D014318B4217D1116E0B68A0
:1030600023F480730B60906DD36D03F01F01012377
:103070008B404360536E916E5960D36E33B11968C3
:1030800021F480711960136F516F5960012382F828
:103090003530002382F83430136D2BB11046984739
:1030A0000020E0E6012070470020DCE6100002402E
:1030B0002800024040000240085402582DE9F04127
:1030C00082B0074600230193D0F8688008F112030C
:1030D00050F82340C56E012611E001A80AF092FFC6
:1030E000019B33B32361236012E04FF00143E3609F
:1030F00018E003F1120257F82240013D9846002DD6
:103100000CBF002306F00103ABB12369002BE4D010
:10311000002EF4D0BFF35F8FBB6D002BE5D04FF0D6
:103120004143E36008F10103032BE2D9A8F1030353
:10313000DFE70026E3E7FB6EAB4208D03B6803F510
:1031400080530022C3F82821C7F86880FD6602B0CA
:10315000BDE8F08130B48B680A6813430A7943EA0A
:10316000C2630A7B43EAC2534A7B43EA82538A7BA7
:1031700043EA4253CA7B43EA02530A7C002A40F0E6
:10318000B0804FF4002213434A7C002A40F0AB8009
:103190004FF4003213438A7C43EA02434A691343E3
:1031A0008A6913430A7F43EA02334A7F43EAC22310
:1031B0008A7F002A40F099804FF480621343CA7FCF
:1031C00043EA422391F82020002A40F090804FF4F7
:1031D000807213434A6A134391F8282043EA02138A
:1031E000CA6A13430468226822F07F4222F47B02F9
:1031F00022F4FE4222F07C0213432360CA6B91F852
:1032000038301B0643EA426391F8302043EA824398
:1032100091F8312043EA424391F83220002A68D1E4
:103220004FF4803213434A6B13430468626822F000
:103230007C5222F4EF2222F4FF6222F007021343B1
:10324000636091F840204B6C43EA02220468E56811
:103250002B4B2B401343E36091F854200B6D43EA52
:10326000420391F84C20002A45D1802213438A6CF6
:1032700043EA02430468226F22F0F2021204120CA5
:103280001343236791F8563091F8552043EA4202E0
:103290000468D4F8903023F003031343C4F890304B
:1032A0000268D2F8003D23F072038C6D2343C2F80C
:1032B000003DCB6D91F86020FAB94022134391F89C
:1032C000612043EA021391F8622043EAC2030168D5
:1032D000D1F8302D22F07B021343C1F8303D30BCD1
:1032E000704700224FE7002254E7002266E70022E1
:1032F0006FE7002296E70022B8E70022DEE700BF72
:10330000F0FEFFFF10B4026802F580521468244BEF
:1033100023400C68234313600A798B6843EA023325
:103320000A7B43EAC232036803F5805CDCF80440A0
:103330001C4B23401343CCF8043091F80DC00B6AAA
:1033400043EA0C4C026802F58052D2F80041164B59
:10335000234043EA0C03C2F800310B690A7D43EABB
:1033600002134A7F43EA0232036803F5805CDCF80B
:1033700004410E4B23401343CCF804310A7F896982
:1033800041EAC271026802F58052D2F80801084B86
:1033900003400B43C2F808315DF8044B704700BF8F
:1033A000FD87FFFFFE2FFFFF00C0FEFFEFEFC0FF16
:1033B000FFFFC07F70B5A2B0064601258DF83350DF
:1033C000002412948DF841408DF843408DF8285028
:1033D0008DF856508DF832508DF84C408DF8845051
:1033E0004FF400530F938DF85C4018948DF885408E
:1033F0008DF886404FF4C36316938DF830400B94DC
:103400008DF835508DF836408DF840401D941B9452
:1034100014948DF864408DF87A408DF84250202342
:1034200020938DF844508DF855404FF04053099348
:103430004FF480430E938DF8314002231F938DF893
:1034400078408DF879408DF854408DF834501A94B6
:103450008DF8705009A9FFF77DFE8DF80450029594
:1034600000948DF81C408DF80D408DF80C404FF401
:10347000001306938DF8144004938DF81D404FF40B
:103480000673089369463046FFF73CFF22B070BDD3
:1034900010B4002210E0C46802EB42034FEAC30CF0
:1034A00004EBC303002144F80C1059609960D96003
:1034B000911D40F821300132032AECD900238362A8
:1034C000036803F580530322C3F82C21C268036804
:1034D00003F58053C3F81421C268036803F58053D1
:1034E000C3F820215DF8044B704710B4002113E0AD
:1034F000046901EB41034FEAC30C04EBC303002250
:1035000044F80C205A609A60DA601A615A6101F13D
:10351000120240F8223001310329E9D90023C365A2
:1035200003668366C3668365036803F580530322DD
:10353000C3F830210269036803F58053C3F81C21E6
:10354000036903F14802036803F58053C3F8282197
:103550005DF8044B704700002DE9F0419046846A05
:1035600000EB84039B69D1F808C0DA68002AC0F236
:103570009881221D00EB8202D269002A40F09381DB
:103580000A6812F0040F2CD0DD68814A2A404D6A87
:103590002A43DA60DA6842F48032DA6005682A6E1B
:1035A00042F480122A660A6812F0080F19D09A684D
:1035B00092B2CD6A42EA05429A60DA6842F4003279
:1035C000DA60DA6822F440220D6B2A43DA6005687B
:1035D0006A6E42F480126A6605682A6D42F0806263
:1035E0002A650A6812F0100F09D09D68694A2A40BE
:1035F0008D692A439A60DA6842F08062DA600A686C
:1036000012F0140220D0DA6842F08042DA60BFF390
:103610005F8FDA6842F00042DA60661C032E00D940
:10362000E61E00EB86039B69DA68002A01DB0122B3
:103630000BE000EB84008269BFF35F8FD36823F057
:103640000043D36002202FE1264602F1010EDCF890
:1036500000201A609A684F4D1540DCF804202A4378
:103660009A60DCF80820002A48D015685D609D68E3
:10367000DFF824C105EA0C0C55684CEA05459D604D
:103680000D6815F0100F41D0DD6825F4F00C0D6ABF
:103690004CEAC545DD60DD68DFF804C105EA0C0CC5
:1036A000CD694CEA0505DD60DD6845F48025DD6007
:1036B0000D6815F0040F06D09D6825F4404C8D6A06
:1036C0004CEA05059D60DD6845F00055DD60DD686C
:1036D00025F08045DD60BFF35F8FDD6845F0004574
:1036E000DD600D6815F0020F06D0DD6825F0607C06
:1036F000CD684CEA0505DD6000256FE000225A60C8
:103700009D68254A2A409A606246B9E7DD68DFF87D
:103710008CC005EA0C0C4D684CEA0505DD600D68AF
:1037200015F0010F06D0DD6825F4403C4D694CEAE8
:103730000505DD600D6815F0200FB9D0DD6825F0B6
:10374000406C0D694CEA0505DD60B1E700EB8403D0
:103750009969002204E000EB8301896901321C466B
:1037600072450AD2BFF35F8FCB6823F00043CB6072
:10377000631C032BEFD9E31EEDE7022094E0002247
:103780005A609E68044A32409A603A465CE000BF44
:103790000000FFFF00C0FFFFFFFF00C00080FFFF31
:1037A0000000FCFFDF68414E3E404F683E43DE6054
:1037B0000E6816F0010F05D0DE6826F440364F691A
:1037C0003E43DE600135BFF35F8FDE6846F00046A2
:1037D000DE60DE6826F08046DE6066469768002F71
:1037E00041D0DF6827F08057DF6006F1010CBCF1A3
:1037F000030F01D9A6F1030C00EB8C039B69DE6873
:1038000026F00056DE60DE68002E9FDB0CF1040619
:1038100000EB8606F669002E98D10EF1010E97682E
:103820003A681A609A68224E16407A6832439A6063
:10383000BA68002AA3D016685E609F681D4E3E409D
:10384000576846EA07469E600E6816F0100FA9D02A
:10385000DF68194E3E40CF693E43DE60DE6846F4C5
:103860008026DE60AEE7B8F1000F15D09A6842F00E
:1038700000429A60DA6842F08052DA60C26B331D0F
:1038800000EB8303DA61866272B6036C1D44013576
:10389000056462B6002007E09A6822F000429A6050
:1038A000E8E7022000E00220BDE8F0810080FFFF91
:1038B00000C0FFFFFFFF00C00000FCFF38B5D0F8DC
:1038C0008430102B01D0012038BD04462325C0F8D8
:1038D0008450012383650268D2F80C17244B0B43F4
:1038E000C2F80C370268D2F81017224B0B43C2F80B
:1038F00010370423C366FFF7E1FB2268136843F027
:10390000020313602268136843F001031360226806
:10391000D2F8003D43F00103C2F8003D236803F5EF
:103920008053D3F8042142F00102C3F80421236834
:1039300003F58053D3F8082142F00102C3F80821AF
:10394000236803F58053D3F8602142F48172C3F8F1
:103950006021236803F58053D3F834114DF2C1027E
:103960000A43C3F83421C4F884500020ACE700BFF8
:103970006000020C00C0200CD0F88430232B01D052
:1039800001207047C0F88430036803F58053D3F8F2
:1039900034111D4A0A40C3F83421036803F58053EB
:1039A000D3F8042122F00102C3F80421036803F5CF
:1039B0008053D3F8082122F00102C3F808210268DD
:1039C000136823F0010313600268D2F8003D43F04E
:1039D0000103C2F8003D0268136823F0020313607C
:1039E000002308E003F1120250F82210CA6822F006
:1039F0008042CA600133032BF4D90023836510226F
:103A0000C0F88420184670473E2FFFFF10B50446CB
:103A100029B1D4F88430232B09D0012010BDD0F86F
:103A2000883043F00103C0F888300120F6E74B6B83
:103A3000E36301222046FFF78FFD38B1D4F88830C8
:103A400043F00203C4F888300120E7E7BFF34F8F4B
:103A5000A36A0133A362032B01D9043BA362A26AC8
:103A60002368063254F8222003F58053C3F820213E
:103A70000020D3E72DE9F84F044689B18B46D0F8F2
:103A80008430232B72D1D0F85C8008F1120350F8F7
:103A90002350C36EC3F1040A4FF000094F4638E0CB
:103AA000D0F8883043F00103C0F8883001205EE090
:103AB000EB6813F0005F02D000232366636666693B
:103AC000EB6813F0805F08D0EE68C6F30E06636EF5
:103AD000F61AEB6823674FF00109B3B22A6904F1C3
:103AE000800104F17C000AF0B3FA236E01332366EF
:103AF000636E3344636600232B6108F10103032BDB
:103B000001D9A8F1030303F1120254F8225001373E
:103B10009846EB68002B14DB89F00103574510D25F
:103B20007BB1EB6813F0804F03D06B68A3672B6801
:103B30006367EB6813F0005FBAD1E36F002BB7D176
:103B4000DBE7E36E1F44E76637B9C4F85C80B9F180
:103B5000000F05D101200AE02046FFF7AFFAF4E795
:103B6000E36FCBF800300020E06700E00120BDE803
:103B7000F88FF8B50646056C446C012702E0013465
:103B800004F00304002D0CBF002307F00103EBB188
:103B9000013D231D06EB8303D8690028EFD0F368AD
:103BA00004EB440203EBC203DB68002B01DA0027BD
:103BB000E8E70AF07DFA231D06EB83030022DA61B1
:103BC000013404F0030435647464DBE70020F8BDBD
:103BD00070477047704710B50446036803F580527C
:103BE000D2F8602112F0400F06D003F58052D2F8CF
:103BF000342112F0400F5CD1236803F58052D2F8D3
:103C0000602112F0010F06D003F58052D2F8342162
:103C100012F0010F56D1236803F58052D2F86021CB
:103C200012F4804F2BD003F58052D2F8342112F4D5
:103C3000804F24D0D4F8882042F00802C4F88820AD
:103C400003F58052D2F8602112F4805F44D003F56E
:103C50008053D3F8602122F46F6222F00D02D20467
:103C6000D20CC4F88C20D3F8342122F44042C3F89B
:103C70003421E023C4F8843020460AF089F8236810
:103C8000D3F8B42012F4C04F33D12368D3F8B02056
:103C900012F0100F41D12368D3F8B02012F0200F9A
:103CA00048D14FF0B043D3F8A83013F4800F4ED171
:103CB00010BD03F5805348F24002C3F860210AF0BA
:103CC00057F899E703F5805348F20102C3F86021E1
:103CD00020460AF055F89EE703F58053D3F860219B
:103CE00002F4CD42C4F88C204FF4CD42C3F86021D9
:103CF000C2E7D4F8882042F01002C4F88820D3F834
:103D0000B830C4F89030E023C4F8843020460AF07C
:103D10003FF80023C4F89030B7E7D3F8C03003F081
:103D20006003C4F894302046FFF752FF0023C4F824
:103D30009430B0E7D3F8C03003F00F03C4F89830E4
:103D40002046FFF746FF0023C4F89830A9E74FF05C
:103D5000B0434FF48002C3F8A8202046FFF73AFF93
:103D6000A6E770B504461D460068D0F8003213F08F
:103D7000010F01D0012070BDD0F8003223F078731C
:103D800043EA415323F4F81343EA024242F00D029E
:103D9000C0F80022FEF7E0FD06462268D2F80012C5
:103DA00011F0010F07D0FEF7D7FD821BB2F57A7F25
:103DB000F3D90120DFE7D2F804329BB22B60002058
:103DC000D9E7000038B504460068D0F8005215F075
:103DD000010F01D0012038BDD0F8000220F078702A
:103DE00040EA415121F4F81141EA024222F00C026A
:103DF00042F005029BB20C49C1F80432C1F800221E
:103E0000FEF7AAFD05462368D3F8003213F0010F30
:103E100007D0FEF7A1FD431BB3F57A7FF3D901204C
:103E2000D9E70020D7E700BF00800240002900F05A
:103E3000EE800268126802F00C02CA620268126820
:103E4000C2F3001281F828200268126802F06002B2
:103E50004A620268126812F4807F0CBF01220022BD
:103E600081F8202002681268C2F34022CA770268F3
:103E7000126812F4806F0CBF012200228A77026858
:103E80001268C2F3C0224A7702681268C2F3003295
:103E90000A770268126802F400528A6102681268A6
:103EA00002F480424A6102681268C2F300428A74D6
:103EB0000268126812F4003F0CBF012200224A740B
:103EC0000268126812F4002F0CBF012200220A744B
:103ED00002681268C2F30052CA7302681268C2F321
:103EE00040528A7302681268C2F380524A730268B1
:103EF0001268C2F3C0520A730268126802F0E062EC
:103F00008A6002681268C2F3C0620A7102681268AD
:103F100002F0E0420A6002685268C2F30D024A638E
:103F20000268526812F4803F0CBF0122002281F81F
:103F3000322002685268C2F3404281F831200268A0
:103F40005268C2F3804281F8302002685268C2F39E
:103F5000006281F8382002685268C2F34462CA6382
:103F60000268D268C2F3002281F840200268D26859
:103F700002F00F024A640268126FC2F3400281F835
:103F800054200268126F12F0800F0CBF0122002231
:103F900081F84C200268126F02F070020A65026814
:103FA000126F120C8A640268D2F8902002F00102AB
:103FB00081F856200268D2F89020C2F3400281F8BE
:103FC00055200268D2F8002D02F072028A6502685C
:103FD000D2F8302D02F02302CA650268D2F8302DE3
:103FE000C2F3C00281F862200268D2F8302DC2F319
:103FF000001281F861200268D2F8302D12F0400FD3
:104000000CBF0122002281F86020002070470120AF
:10401000704751B108B5D0F88430102B01D0012081
:1040200008BDFFF797F80020FAE70120704700006D
:1040300038B505460368D3F8004224F4706401F0F3
:10404000FDFC114B0344114A934205D244F4007421
:104050002B68C3F8004238BD0D4B03440D4A934210
:1040600002D844F44074F3E70B4B03440B4A9342E9
:10407000EED30B4B03440B4A934202D844F48074B2
:10408000E6E744F48064E3E700D3CEFEC0E1E40059
:1040900040F1E9FD3F787D0100796CFC005A620235
:1040A000001F0AFA7FF0FA02002800F0998030B56C
:1040B00083B00446D0F884309BB34A4BD3F8F42045
:1040C00042F00202C3F8F420D3F8F43003F0020304
:1040D0000193019B237A53BB0020FEF757FC424B10
:1040E0005B68236803F580531A6842F001021A6086
:1040F000FEF732FC0546236803F580531B6813F076
:10410000010F19D0FEF728FC401BB0F5FA7FF2D959
:104110000423C4F88830E023C4F88430012003B0BD
:1041200030BD2323C0F8843009F068FEC5E74FF4A2
:104130000000FEF72BFCD2E72046FFF779FF01F0E5
:104140007DFC2A4BA3FB00239B0C2268013BC2F899
:10415000DC302046FFF72EF9226802F58052D2F8B3
:10416000003123F4E01343F40023C2F80031626904
:1041700012F0030F06D00120C4F88800E023C4F831
:104180008430CCE7216801F58051D1F80801184B43
:10419000034043EA4203C1F808312046FFF778F9AB
:1041A0002046FFF7A2F9626851791379226843EA41
:1041B0000123C2F800336268D17893781B0443EA84
:1041C0000163517843EA0123117822680B43C2F856
:1041D00004330020C4F888001023C4F884309EE71C
:1041E00001207047004402580004005883DE1B433E
:1041F0000180FFFFD0F88C0070470000F0B583B05D
:1042000000236BE085685E000324B44025EA0405C2
:10421000CC68B4402C438460446824EA0C0C4C689D
:10422000C4F300149C4044EA0C04446068E0DD08D8
:10423000083550F8256003F007044FEA840C0F247A
:1042400004FA0CF426EA040E0C6904FA0CF444EAAD
:104250000E0440F825406BE0092400E0002404FA35
:104260000EF42C430CF1020C664D45F82C404FF037
:10427000B0442568D44325EA02064F6817F4801F2E
:1042800001D042EA05064FF0B0452E606D6804EAA1
:1042900005064F6817F4001F01D042EA05064FF0EB
:1042A000B0456E60D5F8845004EA05064F6817F4EF
:1042B000003F01D042EA05064FF0B045C5F88460E2
:1042C000D5F880502C404E6816F4803F01D042EA69
:1042D00005044FF0B042C2F8804001330A6832FA58
:1042E00003F400F08C804FF0010C0CFA03FC1CEA84
:1042F0000202F2D04C6804F00304013C012C81D985
:104300004C6804F00304032C0CD0C4685D004FF02B
:10431000030C0CFA05FC24EA0C0C8C68AC4044EA53
:104320000C04C4604C6804F00304022C3FF47FAF1B
:1043300004684FEA430E4FF0030C0CFA0EFC24EA1B
:104340000C0C4C6804F0030404FA0EF444EA0C0468
:1043500004604C6814F4403FBFD02B4CD4F8F450A8
:1043600045F00205C4F8F450D4F8F44004F0020417
:104370000194019C4FEA930C0CF10205214C54F876
:10438000255003F003044FEA840E0F2404FA0EF4C0
:1043900025EA04051D4CA0423FF460AF04F580649B
:1043A000A0421ED004F58064A0421CD004F58064B5
:1043B000A0421AD004F58064A04218D004F58064AD
:1043C000A04216D004F58064A04214D004F58064A5
:1043D000A04212D004F50064A0423FF43DAF0A248D
:1043E0003DE701243BE7022439E7032437E70424AF
:1043F00035E7052433E7062431E707242FE703B028
:10440000F0BD00BF000400580044025800000258EC
:104410000AB181617047090481617047436901EA0B
:10442000030221EA030141EA0241816170477047BA
:1044300008B54FF0B043D3F88830034200D108BD2F
:104440004FF0B043C3F88800FFF7F1FFF7E7000033
:10445000F0B50268136823F040531360836833B9E2
:104460000268136823F080034C68234313600B68D1
:10447000022B4DD0032B55D0036803F5807203F552
:10448000847E03F5887C03F59073CC6C8D6C2C4393
:104490001460CC6A5CB18C6A1C60136823F47C13D2
:1044A000CC6A4D6B2C430D6B2C4323431360DEF819
:1044B000003023F01F034C6C2343CEF800308B6B8D
:1044C0002BB10B681BB9CB6B0468013B2364CB6831
:1044D000002B73D0CC69002C48D08D6B65B3176866
:1044E000484E3E404F693B430F693B431C434B6A78
:1044F0001C430B6A1C432C430D6C2C433443146047
:104500008B68CCF8003003688A699A640020F0BD9B
:10451000036803F5C07203F5C47E03F5C87C03F598
:10452000D073B2E7036803F5A07203F5A47E03F528
:10453000A87C03F5B073A8E71668334D35404E6983
:1045400033430E6933431C434B6A1C430B6A1C43C1
:104550002C431460C36AB3F1805FD1D14B69082B3F
:10456000CED1136843F000631360C9E78C6B84B14C
:104570001568264828404D692B430D692B431C4381
:104580000B6C1C43044314608B68CCF80030002093
:10459000BDE7146824F03F044D692B430D692B439C
:1045A00023431360C36AB3F1805FEDD14B69082BDD
:1045B000EAD1136843F000631360E5E7CB69E3B128
:1045C0008C6B84B11668124D35404E6A33430E6AC7
:1045D000334323430C6C23432B43136003688A69E2
:1045E0009A64002093E7146824F47C544D6A2B43AA
:1045F0000D6A2B4323431360F0E708234365012032
:1046000085E700BFC0C0FFF0C0C0FFFFC0FFFFF0E4
:10461000FFC0FFF0431EDBB2012B01D90120704720
:10462000002965D010B400230B604B608B60CB6019
:104630000B61022802D00024002213E02D4B1B68DE
:1046400013F0010F01D12C4CF6E74FF40074F3E79F
:10465000501C40F08070C86036E0531C43F08073FB
:104660000B610132012A3FD89000244B1B5813F0F4
:10467000010F06D084EA030010F0020F01D1501C94
:10468000086013F0100F06D084EA030010F0200F2A
:1046900001D1501C486013F4807F06D084EA0300E7
:1046A00010F4007F01D1501C886013F4803F0BD0C0
:1046B00084EA030010F4802F06D113F4003FC7D121
:1046C000501C40F48030C86013F0807FC9D084EA69
:1046D000030010F0806FC4D113F0007FBDD1531CD4
:1046E00043F480330B61BCE700205DF8044B704756
:1046F0000120704700B400522202040404B40052A6
:104700002DE9F84305460F4616469946DDF8208008
:104710002C68246A3C4214BF4FF0010C4FF0000C8F
:10472000B44514D0B8F1FF3FF2D0FEF715F9A0EB75
:104730000900404502D8B8F1000FE9D14FF40073E9
:104740002B656B6D43F001036B65012000E00020D9
:10475000BDE8F8832DE9F04182B00446884617464B
:10476000FEF7FAF80646256D022D09D0142D24D047
:10477000242D28D010236365012002B0BDE8F0810C
:10478000E368B3F1806FF1D0009733460022202117
:104790002046FFF7B5FF0028EFD16065414620466F
:1047A000FFF756FE0028E8D1D8F8383093B1D8F892
:1047B0000030D3B904232365DFE7D8F80030023B8B
:1047C000012BD5D8E0E7D8F80030032B18BF012B18
:1047D000D0D1D9E700973346012202212046FFF7C6
:1047E0008FFF236802225A62C7E7012B07D0022BF2
:1047F000C3D1236D142B0BD024232365BDE7236D78
:10480000242B02D014232365B7E704232365B4E7E0
:1048100004232365B1E72DE9F04182B004468846C0
:104820001646FEF799F82768B8F1000F0AD005463A
:10483000236D042B0AD0102363650123184602B0B0
:10484000BDE8F081082363650123F7E73B6C013382
:10485000A364A36C6364C4F840803B6823F04053B6
:104860003B6000962B46012204212046FFF748FFBB
:10487000034660B9226C127887F85020216C013110
:104880002164A16C0139A164A26C002AE9D1002B3A
:10489000D4D100962B46012202212046FFF730FF9B
:1048A00003460028CAD1216802224A622265C5E770
:1048B0002DE9F04182B0044688461746FEF74CF8D1
:1048C0002568AA6CD5F81011B8F1000F0AD0064679
:1048D000236D042B0AD0102363650123184602B010
:1048E000BDE8F081082363650123F7E72B6C0133F2
:1048F000A364A36C6364C4F840802B6823F0405326
:1049000043F080532B60E368B3F1806F07D02368D6
:10491000D3F8000110F4E06F2AD09A6401E0236814
:104920009A6400973346012206212046FFF7E8FEED
:10493000034660B9226C95F850101170216C01315A
:104940002164A16C0139A164A26C002AE9D1002B79
:10495000C4D100973346012202212046FFF7D0FE42
:1049600003460028BAD1216802224A622265B5E7CF
:10497000C3F81011D5E781650020704730B583B0CA
:104980000446FDF7E9FF002C77D005460023636558
:10499000236D13B1002003B030BD2046FDF784F82D
:1049A00041F288312046FFF7E6FF20688268344BE9
:1049B0001340E2682169013942EA01426169013923
:1049C00042EA0122616B0A43E1690A4313438360AF
:1049D0002268D36823F4E023216A0B43D360216B60
:1049E000A36B226843EA014313612368E26B5A61B7
:1049F00021680B6823F4F8536268013A43EA022302
:104A00000B60A36D00932B46002220212046FFF768
:104A100077FE0028BFD12168CB6823F0FF03626ACC
:104A2000013A1343CB602268136823F04003A16866
:104A30000B4313602168D1F8083123F0A043A26A28
:104A4000E56A2A431343C1F808312268136843F02A
:104A500001031360A369022B06D0E368B3F1806FF2
:104A600008D00223236596E72268936843F0020387
:104A70009360F2E7012323658DE701208BE700BFF8
:104A8000F4F8E0F82DE9F0438DB081460D46026858
:104A90009A4B9A4205D04FF00008012600231F468A
:104AA00004E04FF001080026F8E72346012B0FD859
:104AB0005C1CE4B203EB43030DEBC3012046FFF79C
:104AC000A9FD0028F1D00823C9F854300127ECE7EC
:104AD000002F40F00C81894B1B6813F0010F00F090
:104AE0000A81864A136823F0010313600121844B75
:104AF0001B6813F0010F07D0814A136823F00103EC
:104B0000136041F00201C9B206EB46030CAA02EBA6
:104B1000C30353F8283C013B7A4800EB83035A68EF
:104B200022F480725A60036813F0010F00F02E81A6
:104B3000036823F001030360B8F1000F40F0E48044
:104B4000D5F800E0434608EB48020CA800EBC2028F
:104B500052F8300C864518D008EB48080CAA02EB36
:104B6000C80858F82C2C6C6894420ED058F8282CA1
:104B7000AC68944209D058F8242CEC68944204D0D4
:104B800058F8202C2C69944248D1864500F0478182
:104B9000013880005B4A0244506820F001005060F8
:104BA00003EB43020CA800EBC20252F82C2C3AB1E2
:104BB000013A920053481044426822F010024260C9
:104BC00003EB43000CAA02EBC00050F8282C013A7A
:104BD00092004C4C1444626822F48072626050F877
:104BE000242C4AB1013A02F00102920045481044D7
:104BF000426822F48032426003EB43030CAA02EBCA
:104C0000C30353F8203C4BB1013B03F001039B006D
:104C10003C4A1A44536823F080735360AA68013AEF
:104C2000384800EB8202536823F4407343EA46237A
:104C300043F4807353606B69013B0268C2F307421F
:104C4000934205D9026822F47F0242EA03430360DB
:104C50002C4B1B6813F0010F00F027812B68013BE0
:104C60009B00284A1A44536823F0030343F00103CE
:104C700053606B684BB1013B9B00224A1A44536856
:104C800023F0300343F010035360EB6813F4803FCC
:104C900000F0EB80013B03F001039B00194A1A442A
:104CA000536823F4E02343F4803353602B6913F4F7
:104CB000803F00F0EA80013B03F001039B00114AB2
:104CC0001A44536823F4E02343F44033536011F053
:104CD000010F04D0094A136843F00103136011F077
:104CE000020F04D0064A136843F0010313603846EC
:104CF0000DB0BDE8F0833946F9E600BF0050005220
:104D000000A0005200B40052434608EB48000CAA31
:104D100002EBC00050F8302C013A9200944C14443D
:104D2000626842F00202626050F82C2C3AB1013AFB
:104D300092008F481044426842F02002426003EB28
:104D400043020CA800EBC20252F8242C4AB1013AEB
:104D500002F00102920086481044426842F4802228
:104D6000426003EB43030CAA02EBC30353F8203C5D
:104D7000002B3FF4E5AE013B03F001039B007C4AAE
:104D80001A44536843F080635360D9E606EB460348
:104D90000CAA02EBC30353F8303C002B3FF4D0AE17
:104DA000013B9B00724A1A44536823F0010353608D
:104DB00006EB46030CAA02EBC30353F82C3C3BB1B1
:104DC000013B9B006A4A1A44536823F01003536066
:104DD00006EB46030CAA02EBC30353F8243C4BB189
:104DE000013B03F001039B00614A1A44536823F41A
:104DF0008033536006EB46030CAA02EBC30353F85F
:104E0000203C002B3FF49CAE013B03F001039B00D0
:104E1000574A1A44536823F08073536090E66C68D5
:104E200003EB43020DF1300C0CEBC20252F82C2CB8
:104E300094427FF4ADAEEC6803EB43020CEBC2028C
:104E400052F8242C94427FF4A3AE2C6903EB430266
:104E50000CEBC20252F8202C94427FF499AE444AE3
:104E6000136843F001031360D8E6002B3FF41EAF34
:104E7000013B03F001039B003D4A1A44536823F0B1
:104E8000E06343F08073536010E7002B3FF41FAFE3
:104E9000013B03F001039B00354A1A44536823F099
:104EA000E06343F04073536011E72B68013B9B00C4
:104EB0002F4A1A44536823F0030343EA460343F09E
:104EC000010353606B685BB1013B9B00284A1A44A5
:104ED000536823F0300343EA461343F01003536052
:104EE000EB6813F4803F20D0013B03F001039B00EB
:104EF0001F4A1A44536823F4E02343EA864343F4E9
:104F0000803353602B6913F4803F1FD0013B03F0C3
:104F100001039B00164A1A44536823F4E02343EA32
:104F2000864646F440365660D1E6002BEAD0013B77
:104F300003F001039B000E4A1A44536823F0E06318
:104F400043EA866343F080735360DBE7002B3FF452
:104F5000BEAE013B03F001039B00054A1A445368AF
:104F600023F0E06343EA866646F040765660AEE69C
:104F700000B40052134BDB6813F0040F07D1114B40
:104F8000DB6803F0070383421AD00120704710B595
:104F90000C4AD36823F007031843D060FDF7DCFC0C
:104FA0000446084B5B6813F4005F07D1FDF7D4FC9F
:104FB000001BB0F57A7FF4D9012000E0002010BD7D
:104FC0000020704700480258002800F0D78238B50A
:104FD0000446036813F0010F25D0A04A136903F0BB
:104FE0003803926A102B15D0182B0FD06368B3F5D5
:104FF000803F3FD0002B53D1984B1A6822F4803267
:105000001A601A6822F480221A6038E002F0030263
:10501000022AEBD1914B1B6813F4003F03D0636865
:10502000002B00F0AD82236813F0020F00F088809F
:105030008A4A1369926A13F038035AD0182B55D054
:10504000E368002B00F0A98084490A6822F0190265
:1050500013430B60FDF780FC0546804B1B6813F083
:10506000040F40F09180FDF777FC401B0228F4D933
:1050700003208CE2794A136843F480331360636839
:105080002BB3FDF769FC0546744B1B6813F4003F16
:10509000C9D1FDF761FC401B6428F5D9032076E2F5
:1050A000B3F5A02F09D06D4B1A6822F480321A6034
:1050B0001A6822F480221A60E1E7684B1A6842F409
:1050C00080221A601A6842F480321A60D7E7FDF72E
:1050D00043FC0546614B1B6813F4003FA3D0FDF76A
:1050E0003BFC401B6428F5D9032050E212F0030F6B
:1050F000A6D15A4B1B6813F0040F03D0E368002BB2
:1051000000F04082554A136823F01903E1680B430D
:105110001360FDF721FC0546504B1B6813F0040F8C
:1051200006D1FDF719FC401B0228F5D903202EE219
:105130004A4A536823F0FE43216943EA01635360FE
:10514000236813F0100F51D0444A136903F0380359
:10515000926A082B39D0182B33D0E369002B69D021
:105160003E4A136843F080031360FDF7F5FB0546E4
:105170003A4B1B6813F4807F53D1FDF7EDFB401BC6
:105180000228F5D9032002E2344A536823F0FE4393
:10519000216943EA01635360D2E7304A136823F080
:1051A00001031360FDF7D8FB05462C4B1B6813F079
:1051B000040FC5D0FDF7D0FB401B0228F5D9032012
:1051C000E5E102F00302012AC7D1244B1B6813F466
:1051D000807F03D0E369802B40F0D6811F4AD368DB
:1051E00023F07C53216A43EA0163D360236813F000
:1051F000080F49D06369002B32D0184A536F43F02F
:1052000001035367FDF7A8FB0546144B5B6F13F0D2
:10521000020F39D1FDF7A0FB401B0228F5D903206E
:10522000B5E10E4AD36823F07C53216A43EA016357
:10523000D360DBE7094A136823F080031360FDF7AE
:105240008BFB0546054B1B6813F4807FCED0FDF722
:1052500083FB401B0228F5D9032098E10044025843
:105260009D4A536F23F001035367FDF775FB054615
:10527000994B5B6F13F0020F06D0FDF76DFB401BDF
:105280000228F5D9032082E1236813F0200F29D0EA
:10529000A3699BB1904A136843F480531360FDF7F0
:1052A0005BFB05468C4B1B6813F4005F1AD1FDF7BE
:1052B00053FB401B0228F5D9032068E1864A136896
:1052C00023F480531360FDF747FB0546824B1B68B0
:1052D00013F4005F06D0FDF73FFB401B0228F5D911
:1052E000032054E1236813F0040F21D1636A002BDB
:1052F00000F04C81784A126902F03802182A00F056
:10530000F380022B75D0744A136823F08073136006
:10531000FDF722FB0446704B1B6813F0007F00F082
:10532000D880FDF719FB001B0228F4D903202EE1D9
:105330006A4A136843F480731360FDF70DFB05465A
:10534000664B1B6813F4807F06D1FDF705FB401BFD
:105350006428F5D903201AE1A368012B0AD00BBBFE
:105360005D4B1A6F22F001021A671A6F22F00402D5
:105370001A6704E0584A136F43F001031367A368E8
:1053800033B3FDF7E9FA0546534B1B6F13F0020FD9
:10539000ACD1FDF7E1FA401B41F288339842F3D9D2
:1053A0000320F4E0052B09D04B4B1A6F22F00102C9
:1053B0001A671A6F22F004021A67E0E7464B1A6F69
:1053C00042F004021A671A6F42F001021A67D6E728
:1053D000FDF7C2FA0546404B1B6F13F0020F85D054
:1053E000FDF7BAFA401B41F288339842F3D9032003
:1053F000CDE0394A136823F080731360FDF7ACFAEF
:105400000546354B1B6813F0007F06D0FDF7A4FA64
:10541000401B0228F5D90320B9E02F4B996A304A86
:105420000A40A16AE06A41EA00110A439A62226BCB
:10543000013AC2F30802616B0139490289B20A4399
:10544000A16B0139090401F4FE010A43E16B013942
:10545000090601F0FE410A431A63DA6A22F00102EA
:10546000DA62596B1F4A0A40A16C42EAC1025A63D0
:10547000DA6A22F00C02216C0A43DA62DA6A22F05C
:105480000202616C0A43DA62DA6A42F48032DA625A
:10549000DA6A42F40032DA62DA6A42F48022DA62CC
:1054A000DA6A42F00102DA621A6842F080721A6027
:1054B000FDF752FA0446084B1B6813F0007F06D133
:1054C000FDF74AFA001B0228F5D903205FE000200F
:1054D0005DE000205BE000BF004402580048025835
:1054E0000CFCFFFF0700FFFF30498A6A086B012BA5
:1054F0004ED002F00303A16A8B424BD1C2F30512D6
:10550000E36A9A4248D1C0F30802236B013B9A42F6
:1055100044D1C0F34622636B013B9A4240D1C0F3B1
:105520000642A36B013B9A423CD1C0F30660E36B99
:10553000013B984238D11D4B5B6BC3F3CC03A26C8B
:105540009A4201D1002022E0184AD36A23F00103D5
:10555000D362FDF701FA0546FDF7FEF9A842FBD03C
:10556000124A516B124B0B40A16C43EAC1035363C7
:10557000D36A43F00103D362002008E001207047A2
:10558000012004E0012002E0012000E0002038BDFD
:105590000120FCE70120FAE70120F8E70120F6E707
:1055A0000120F4E70120F2E70120F0E7004402586F
:1055B0000700FFFF744B1B6903F03803102B00F04A
:1055C000DE80182B10D00BB1704870476E4B1B68F3
:1055D00013F0200F00F0D5806B4B1868C0F3C100AA
:1055E0006B4B23FA00F0704710B4674A916A01F0E0
:1055F0000301946AC4F30510D36A03F0010C536BE2
:10560000C3F3CC030CFB03F307EE903AF8EE677A92
:1056100014F47C7F00F09380012965D0022900F00A
:105620009180E1B107EE100AF8EE476A9FED596AE2
:1056300086EE267A544B1B6BC3F3080306EE903AB2
:10564000F8EE666A9FED546A67EE867A76EEA77A80
:10565000F7EE006A77EEA67A27EE277A60E0136805
:1056600013F0200F23D011461268C2F3C102484B39
:10567000D34007EE103AF8EE476A07EE100AB8EE8C
:10568000476A86EE867A0B6BC3F3080306EE903A00
:10569000F8EE666A9FED406A67EE867A76EEA77A44
:1056A000F7EE006A77EEA67A27EE277A38E007EE63
:1056B000100AF8EE476A9FED396A86EE267A324B79
:1056C0001B6BC3F3080306EE903AF8EE666A9FED93
:1056D000326A67EE867A76EEA77AF7EE006A77EEA0
:1056E000A67A27EE277A1BE007EE100AF8EE476A43
:1056F0009FED286A86EE267A234B1B6BC3F30803C3
:1057000006EE903AF8EE666A9FED236A67EE867AB7
:1057100076EEA77AF7EE006A77EEA67A27EE277A7A
:10572000194B1B6BC3F34623013307EE903AF8EE97
:10573000677AC7EE276AFCEEE67A17EE900A5DF804
:10574000044B704707EE100AF8EE476A9FED146AA3
:1057500086EE267A0C4B1B6BC3F3080306EE903AD9
:10576000F8EE666A9FED0C6A67EE867A76EEA77AA7
:10577000F7EE006A77EEA67A27EE277AD0E7094897
:1057800070470348704700BF0044025800093D00BD
:105790000090D0030024744A000000390024744CA7
:1057A00020BCBE4B40787D01002800F0328170B5EE
:1057B0000D4604469B4B1B6803F00F038B420BD234
:1057C000984A136823F00F030B431360136803F028
:1057D0000F038B4240F01F81236813F0040F0CD09D
:1057E0002269914B9B6903F070039A4205D98E4957
:1057F0008B6923F070031A438A61236813F0080F42
:105800000CD06269884BDB6903F070039A4205D9BA
:105810008549CB6923F070031A43CA61236813F0EA
:10582000100F0CD0A269804BDB6903F4E0639A424D
:1058300005D97D49CB6923F4E0631A43CA61236823
:1058400013F0200F0CD0E269774B1B6A03F0700352
:105850009A4205D974490B6A23F070031A430A620D
:10586000236813F0020F0CD0E2686F4B9B6903F0C2
:105870000F039A4205D96C498B6923F00F031A4331
:105880008A61236813F0010F41D0674A936923F4BA
:105890007063A1680B4393616368022B0AD0032BEA
:1058A00027D0012B2CD0604A126812F0040F06D1C9
:1058B0000120ADE0126812F4003F00F0AE805A49BA
:1058C0000A6922F0070213430B61FDF745F806460B
:1058D000554B1B6903F038036268B3EBC20F16D057
:1058E000FDF73AF8801B41F288339842F0D9032043
:1058F0008EE04D4A126812F0007FE0D1012087E06F
:10590000494A126812F4807FD9D1012080E02368CF
:1059100013F0020F0CD0E268434B9B6903F00F03B6
:105920009A4205D240498B6923F00F031A438A61DA
:105930003C4B1B6803F00F03AB420AD9394A13688A
:1059400023F00F032B431360136803F00F03AB42E4
:1059500065D1236813F0040F0CD02269324B9B6988
:1059600003F070039A4205D22F498B6923F070032C
:105970001A438A61236813F0080F0CD062692A4B1E
:10598000DB6903F070039A4205D22749CB6923F003
:1059900070031A43CA61236813F0100F0CD0A26978
:1059A000214BDB6903F4E0639A4205D21E49CB69BF
:1059B00023F4E0631A43CA61236813F0200F0CD06C
:1059C000E269194B1B6A03F070039A4205D216492B
:1059D0000B6A23F070031A430A62FFF7EBFD1249CA
:1059E0008B69C3F30323114AD35C03F01F03D84030
:1059F0008B6903F00F03D35C03F01F0320FA03F35A
:105A00000B4A13600B4B18600B4B1868FCF7BEF980
:105A100070BD012070470120FAE70120F8E701205E
:105A2000F6E700BF0020005200440258B8D9010830
:105A300004000024000000240C00002408B5FFF737
:105A4000B9FD0B4A9369C3F303230A49CB5C03F006
:105A50001F0320FA03F3926902F00F02885C00F042
:105A60001F0023FA00F0044A1060044A136008BDC6
:105A700000440258B8D901080400002400000024A2
:105A800008B5FFF7DBFF054BDB69C3F30213044ADC
:105A9000D35C03F01F03D84008BD00BF0044025888
:105AA000B8D9010808B5FFF7C9FF054BDB69C3F397
:105AB0000223044AD35C03F01F03D84008BD00BF93
:105AC00000440258B8D901083F230360114B1A69FA
:105AD00002F0070242609A6902F4706282609A6979
:105AE00002F00F02C2609A6902F070020261DA6984
:105AF00002F070024261DA6902F4E06282611B6ABC
:105B000003F07003C361044B1B6803F00F030B60C9
